:020000040000FA
:10000000E80D0010C100000091040000550400003C
:1000100000000000000000000000000000000000E0
:10002000000000000000000000000000E3000000ED
:100030000000000000000000E5000000CD0400000A
:10004000E1020000E9000000E9000000E900000012
:100050005904000095040000D1020000CD03000007
:10006000E9000000E9000000610500000000000058
:100070000000000000000000000000000000000080
:100080000000000000000000000000000000000070
:100090000000000000000000000000000000000060
:1000A0000000000000000000000000000000000050
:1000B0000000000000000000000000000000000040
:1000C00072B60A480A49016000200A490A4A0860D3
:1000D000091D9142FBD30948804709480047FEE7C4
:1000E000FEE7FEE7FEE7FEE7FEE7000000F0004067
:1000F00098BADCFED8000010E80D0010E104000002
:100100004D05000010B5202A04DB0846203AD040F7
:10011000002110BD0B46D340D0402024A21A9140AC
:100120000843194610BD03460B439B0703D009E063
:1001300008C9121F08C0042AFAD203E00B78037022
:10014000401C491C521EF9D27047D2B201E0027025
:10015000401C491EFBD270470022F6E710B513463B
:100160000A4604461946FFF7F0FF204610BD30B599
:1001700004460020034600E05B1C934203D2E05C8F
:10018000CD5C401BF8D030BD70B50446002903D0CB
:1001900000202022012310E0002801D00020C043CD
:1001A000C046C0460DE02546D5408D4205D30D46DC
:1001B0009540641B1D46954040191546521E002D62
:1001C000F1DC214670BD0000F0B5ADB002930192A4
:1001D000039100F0C1FC00210398814272D2019882
:1001E000049140180DAC214600F06CFB0021204624
:1001F000059100F0F7F901250DAC204602F04AFE0A
:10020000204602F011FE0A2D4ED006950DA81DA91C
:10021000059A042A0AD00023102B03D0C458CC50CE
:100220001B1DF9E710311030521CF2E700200DA918
:100230000C91042831D00790000123490A580B92F1
:10024000081841680A9181680991C06808900F20D8
:10025000C743002F1BD01DA8C41921690B981B4E42
:10026000B0470546216A0A98B04706466E40216BA2
:100270000998164A904705467540216C0898134A1C
:10028000904768400C99C91908613F1DE1E70C9837
:1002900010300C900798401CCBE70DA8069D29460E
:1002A00000F0A0F96D1CA7E70DAC0A21204600F074
:1002B00099F90298049D4119204600F0F3FA294665
:1002C000103189E72DB0F0BDE434000001030000D7
:1002D0000248416802680A43026070472CC000402F
:1002E00004488168044A054B13600160954810601A
:1002F0007047C0463400FF00F800FF0055AA55AA19
:10030000B0B50C46801E0C2837D8C046784400791A
:1003100040008744060C3232323232133218322E09
:100320002200600021060CD5C0B21B2424E060002E
:10033000210621D5C1B21B2048401DE0204600F017
:100340003FF8044619E06500200602D5E8B21B25F7
:100350004540204600F034F808E06500200602D54C
:10036000E8B21B254540204600F009F804466C40E1
:1003700003E0204600F003F844402046B0BDB0B58D
:10038000044600F012F80546204600F002F86840E6
:10039000B0BD42001B21000601D5D2B24A40500038
:1003A000120601D5C0B24840704780B5FFF7F1FF93
:1003B00001464000090602D5C1B21B20484080BD5D
:1003C00010B50446FFF7F1FF604010BD70B5094D50
:1003D0002C69094E344009480168002901D02046A3
:1003E000884728682968064A0A4030402043801818
:1003F000286070BD10800040FF010000280600103A
:1004000000FEFFFFB0B504460F20C043104D00288A
:100410000FD02918702200238B5460228B54502255
:100420008B5440228B5430228B5420228B54401CFE
:10043000EDE72B461033102120462A46FFF7C4FE75
:1004400029462031303520462A4600F045FCB0BD13
:10045000D800001000F0B8F810B50B48384981609A
:100460000122130644681C434460364B836081605C
:10047000016811430160836004480168002901D0CC
:100480000020884710BDC04610A00040E0090010C1
:1004900000F09AF8B0B50C4DE86D3A4C044012D01B
:1004A000C00507D5286802218843286028680421F0
:1004B0000143296034480168002901D0204688475B
:1004C000686D20436865B0BD0860004080B501F0EC
:1004D000A9FD02480168491C016080BDEC080010BC
:1004E000B0B500F037FA00242046214602F010FD96
:1004F00002F0EAFC1148124981610121CD430168F3
:100500002940016001680222914301600D49816127
:10051000204602F02FFD0C484168294041607021BF
:10052000C94342680A40426002682A400260026889
:100530000A40026002F060FDB0BDC04600A000406D
:100540005555AAAA7856341214C00040EFF3108013
:1005500072B600F06DFA62B601F0FCFCFCE7000038
:10056000B0B5074DA868074C044008D0064841685C
:10057000002901D020468847286820432860B0BD64
:100580005CB00040FFFF7F00E408001010B5C0B26F
:100590008207D20EFF239340054C00190324A04389
:1005A00004689C438901C9B291402143016010BD98
:1005B00000E400E0BFF34F8F084809490160BFF332
:1005C0004F8F00BFFDE7C046BFF34F8F034804497C
:1005D0000160BFF34F8F00BFFDE7C0460CED00E0A8
:1005E0000400FA05FFB589000022104B042A1BD035
:1005F0005418A4001C59E5B20395250E0095250A50
:10060000EDB20295240CE4B2019400240546102CAE
:1006100007D06E4636592F6877402F601035241D5D
:10062000F5E7001D521CE1E7FFBDC0463009001090
:10063000F0B59BB0019317460E4607A903AA029096
:1006400000F04AFB0F203A46024039460F310C09B0
:1006500007D0002A06D1791E8143701807A90FAA76
:100660000AE001242001801910380BAF394601F04F
:100670000DFD03A90FAA384602F028FF002010281C
:1006800004D017A900220A54401CF8E7651E002D6B
:100690000FD017AF13AC38463146224602F016FF92
:1006A0001021029822463B46FFF78EFD10366D1E44
:1006B000EDE717AC0FA913AE2046324602F006FF55
:1006C0001021029832462346FFF77EFD0020019A52
:1006D000102804D017A9095C1154401CF8E71BB07E
:1006E000F0BD0000F8B50D46044600F0EFFC7E2892
:1006F00024D000F0EBFC7F2820D0062D15D16078A7
:10070000F32816D1A0783F2813D12079022810D1E0
:10071000E078401E032811D87844007940008744CF
:10072000010E194AEC48012147E0217800201322EC
:1007300002E021780020312200F06AF9F8BDE64895
:10074000817A0129FAD161790329F7D802228272CC
:10075000C172F8BDE04FB87A0228EFD11F20C40261
:100760003D460B35022620462946324601F04AFD19
:1007700020462946324601F015FD02F067FD00F0E3
:10078000A5FC68280BD000F0A1FC6A2807D000F077
:100790009DFC692803D000F099FC6B2808D1002447
:1007A0002046214601F036F80120214601F032F8BA
:1007B0000320B872F8BDC84804218172F8BDC04654
:1007C000FEB502460027029708460838182822D8A6
:1007D0000D460124214681400F4801421BD0EE08FE
:1007E00002A8009211463246FFF79DFC0298394656
:1007F000002D0AD06D1E2246AA400346FB4023402E
:100800005B42134019437F1CF2E7019101A9009854
:100810003246FFF788FCFEBD010100010022082AD4
:1008200007D08B5CC01883B2FF2B00D9FF38521C55
:10083000F5E7FF2181430846704780B50178002025
:100840007F2200F0E5F880BD80B5C24A5278042AC4
:1008500010D1032912D1427811468039042911D3CD
:10086000032A19D8817802230B43032B10D1017876
:10087000012014E0017800207F2210E001780020A0
:1008800013220CE0817802220A43032A00D180BDA2
:1008900001780020312202E001780020122200F0CD
:1008A000B7F880BD10B50022042A0AD00023402BDF
:1008B00004D0C4580C701033491CF8E7001D521CBA
:1008C000F2E710BDB0B500221346042B0AD0002475
:1008D000402C04D0855C0D511034521CF8E7091DE2
:1008E0005B1CF2E7B0BDB0B500231A46102B04D054
:1008F0008C5C855C531CA542F7D00F2A01D80020E0
:10090000B0BD0120B0BD0000F8B515460E46044646
:100910006F460E48388010213846FFF751FF38885F
:1009200029040FD06D1E31784C400821002907D0D2
:10093000012222405242024064085440491EF5E719
:10094000761CEDE70248A043F8BDC0462110000028
:10095000FFFF000010B50A48800881000A1F0949FE
:100960008918094B9A180023DB439B00002805D007
:100970000C681460D218C918401EF7E710BDC046B5
:10098000D8000000103D000000000010B0B5044683
:10099000EFF3108072B60448056862B6284602F08C
:1009A00081FBA042FAD3B0BDEC08001010B586B0B0
:1009B00001AC617040302070A01C1946002905D0A0
:1009C00014780470521C401C491EF7E7BF48007899
:1009D000991CCAB201A900F009FD06B010BDC046BD
:1009E00010B58AB040306B461870581C1346002B67
:1009F00005D00C780470491C401C5B1EF7E7B34817
:100A00000078511CCAB2694600F0F0FC0AB010BD73
:100A100080B5012806D10023084611461A46FFF783
:100A2000C5FF80BDA948007800F008FC80BDC04625
:100A300080B50B4802F032FDA4481230FFF7E2FC0B
:100A400001F087FA00F022F8A2480649FFF784FB7C
:100A50004B20020201200021034B01F047FB80BD27
:100A6000102700003C040000D9100000E0B501464A
:100A700001AAC820D07000209070F420507001208E
:100A8000107010200423FFF791FF8CBDB0B51F201C
:100A9000C1028F4C22460B3200250223284600F06B
:100AA00093FD7D204102123403232846224600F0A4
:100AB0008BFD02F0CBFBB0BD86488169491C81618A
:100AC000044A914204D3824901228A710021816142
:100AD0007047C046891300004801001080B5022904
:100AE00008D1417880290ED0002907D10178012052
:100AF000002206E001780020132202E001780020A5
:100B00001222FFF785FF80BD80B5704A5278042A13
:100B10000ED1022910D141780A46813A022A10D317
:100B200002290FD0012911D101780120024606E0E7
:100B3000017800207F2202E0017800201322FFF7D5
:100B400067FF80BD017801200222F8E701780020CC
:100B50001222F4E742000010F0B587B000212E4ABF
:100B600010290FD0425C120643185C782404A218A6
:100B70009C7824021219DB78D218274B5A50264A47
:100B8000091DEDE7002002900426244F2C2E41D0B1
:100B9000B500A918081F006810390B68B10702D00A
:100BA0005840505134E00193C1B20691010E0391B7
:100BB000010AC9B20591000CC0B2049003A801213A
:100BC00000F0C6F8002010280CD003A90A589300A2
:100BD0000F24A4011C403B191207920E9A580A5088
:100BE000001DF0E7029B98000DA1085801994840AC
:100BF00003990906049A12040A430599090211434C
:100C0000069A0A4342400448425102465B1C029342
:100C1000761CBBE707B0F0BD3009001010390000AA
:100C200000000001000000020000000400000008B5
:100C300000000010000000200000004000000080C4
:100C40000000001B00000036B0B50D46044600F061
:100C50003DFA7E2835D000F039FA7F2831D0042DB6
:100C600022D31A484078022822D16078F12823D173
:100C7000A078842820D10D2D16D1FB48017F0529AD
:100C800020D11349097801291CD1A51C062101771F
:100C90002430E11C0A22FFF746FA6178207801230C
:100CA0002A46FFF783FEB0BD21780020132206E01C
:100CB000217800207F2202E0217800203122FFF7F6
:100CC000A7FEB0BD217800203322F8E742000010D3
:100CD00048010010A801001070B58CB014460D46F4
:100CE0000021102904D004AA00235354491CF8E71A
:100CF000102104AA08AE3346FFF766FA307840B2F6
:100D0000002804D408A8294600F038F809E008A80B
:100D10006E46314600F032F80C4930462A4602F061
:100D2000D5FB287840B2002804D42846214600F09C
:100D300025F809E06E462846314600F01FF80349C1
:100D40003046224602F0C2FB0CB070BD8400001099
:100D50001FB50022102A04D083586C46A350121DE0
:100D6000F8E70022102A08D0032319408B006C46B4
:100D7000E3588350121D491CF4E71FBD10B5002233
:100D80000F23002B07D0C45C64001443CC54C25C16
:100D9000D2095B1EF5E7007840001043087010BDD3
:100DA000FEB5082818D8924C800001A2105887463A
:100DB000DB0D0000F30D0000F90D0000D50D000063
:100DC000D50D0000D50D0000D50D0000D50D00009B
:100DD000D50D000000202070FEBD27783C2945D0AD
:100DE0007D29F9D1BB4E3046022F00D192E014305C
:100DF00091E000F021FAEDE7207BB6490870FE2172
:100E000001407E2903D07B490978884211D1607B5B
:100E100002280ED1A07B3E280BD1E07B802808D190
:100E2000A8480025856120460A300A21FFF794F979
:100E3000D9E0A8488679562E1DD8701CA54DA871FA
:100E4000E089218A628AEB68A789F6009F559B1981
:100E50009A71120ADA711971090A59719870000AA7
:100E6000D870380A5870AE79EF6819E0F148022F4F
:100E700057D0173056E02B200001EE49CF68A189EA
:100E800039543818628A130AC3718271228A130A8C
:100E900043710271E289130AC3708270090A4170BA
:100EA00020460A300A21FFF757F900202070701EF3
:100EB000C200B91848780F239843022E1ED310237E
:100EC0000343DBB2102B63D14B780293BA5C0192DF
:100ED000CA7800928E784D790B79CA798979B9717F
:100EE000FA713B717D71ED4DBE700099F9700199F9
:100EF00039700299797001262E81AE71C0B2202816
:100F00002CD0102837D0002800D065E70120E34915
:100F10000871FEBD08300088022F12D03146123110
:100F200010E00B30017822460C320120082301F03A
:100F30002AF9022020700A340A212046FFF70CF912
:100F4000FEBDB11D0978884204D23146022F26D059
:100F5000183125E0022F2BD011212AE00621714300
:100F6000A088814202D90121CC4A1171572E00D0AC
:100F700032E7801F0AE0C948C068F1000818811FE5
:100F80000978C01F00780007000D4018A080FEBD42
:100F9000BB5C02933B78029DAB4295D1AEE70C312E
:100FA0000968C0000A183046022F08D0173007E041
:100FB000052100207054022F0CD012210BE00B30C1
:100FC000017801250823284601F0E5F8022F07D013
:100FD000162006E006217054022F06D0142105E0E9
:100FE0000A20042131542570FEBD08217052F2E61A
:100FF0009401001042000010F8B56D4600272F80C4
:1010000018483049085C40020C1826463A362C48ED
:10101000007831462A4600F043F9298800291FD07C
:101020003A20225C1148782F04D0C35D9A4210D038
:101030000837F8E700F04AF87E28224C0ED000F07E
:1010400045F87F280AD0317800201122FFF7E0FC14
:1010500004E0C0194268304690471A4C0020A06155
:10106000F8BDC04639040000A80100102435000076
:1010700010B5124C6079012808D1002060717D20E4
:10108000400221461231032201F0BCF8A079012868
:1010900011D10B48012141700020A071094C20772B
:1010A0001F21490222462432142301F0EBF8206B61
:1010B0000549884200D010BDFFF77CFA48010010B6
:1010C00042000010A8010010EFBEADDEC548007858
:1010D0007047C04664000010FEB50446C24E377823
:1010E000400720D5012600213D4602AF3046009141
:1010F0003A4601F03DF80195022D01D0172500E098
:101100000B253978FD4F7955304601F00BF8795DA4
:10111000FF2803D0019FB44E009802E00320019FF6
:10112000B14EFFF73DFEE00728D03078022825D1E8
:10113000012002AA014601F01BF8F07A072805D821
:10114000411CF17230180299017317E0022F0197C8
:1011500001D0172500E00B25E848405D02A90F7873
:1011600031460C3100F0B1FFE449495D874201D1BD
:10117000022000E00420FFF713FE019FE00409D5E0
:10118000DE48022F01D0173000E00B300178052037
:10119000FFF706FE200709D5D848022F01D01730E7
:1011A00000E00B3001780620FFF7FAFDE00509D5D5
:1011B000D248022F01D0173000E00B300178012017
:1011C000FFF7EEFD60040DD50120014600F070FF31
:1011D000CA48022F01D0173000E00B3001780820F8
:1011E000FFF7DEFDA00524D53078012821D1022F9C
:1011F00001D0162400E00A24C04D285D042818D12F
:10120000022F01D0142600E00826A85BC000294662
:10121000022F01D0183100E00C3109680818011DB7
:101220000120042200F0B3FF00202855A85B401CD9
:10123000A853FEBD6400001070470000B0B5AF4B6E
:1012400000249C825C749C749C69CC25E571A5711A
:1012500065712571E570A570657025709C699D7C30
:10126000ED00605598699C7CE400001903244470EB
:1012700098699C7CE40000197F24847098699C7CA8
:10128000E4000019C1709869997CC9004018027186
:10129000987C401C98740120B0BDC04664000010CA
:1012A000F0B587B005910690944C2079002800D1C4
:1012B00090E002920020049020716679F7000120EE
:1012C0000390494DA07986427DD2E068C1194A78E1
:1012D000F0231340202B1ED0102B4DD0002B6FD1AC
:1012E000C15DA970069B994203D0FE2319407E2957
:1012F00062D10F210A402A816179C9004018811CFE
:101300000598FEF710FF0020E880A0712081607131
:101310000398049054E0C05DAB7898424CD10F25FF
:101320002A4023891D40954240D1002B2E4D43D0A9
:10133000069A904203D0FE2210407E283CD1EA88D3
:10134000062A134600D3062300932889801A0192A7
:10135000059A1018891C1A46FEF7E5FE01980099B7
:10136000401AE8802189491C2181000428D10020ED
:1013700020816071A071CBE7C05DA870069B984288
:1013800003D0FE2318407E2816D188781207120D4C
:10139000151815480581C91C05220598FEF7C3FEDE
:1013A000681F114DE8800120208109E0002B0E4DBF
:1013B00002D0562BACD003E0002020816071A071D8
:1013C0000837761C7EE701200499084000D0288960
:1013D000029A01E00020014610800120084007B079
:1013E000F0BDC0466400001094010010F0B585B057
:1013F00002AB07C3002A2CD0404F0020B88278747B
:10140000B874B869CC21C1713D4A140C8471150AB5
:1014100045710271C170019484700095457002702D
:10142000B869B97CC900029A42540498062815D8B4
:10143000B869B97CC9004018049A4270B869B97C8F
:10144000C9004018801C0399FEF76DFEB87C401C53
:10145000B8740498411E884105B0F0BDB869B97CE4
:10146000C9004018049A1105090F10314170B8697C
:10147000B97CC90040188270B869B97CC9004018AD
:10148000C01C05220399FEF74EFE0498441F012656
:10149000B87C401CB8742104DBD0B969C0B2C0006C
:1014A000174A0A540818110EC171019D8571009BDD
:1014B00043710271C17085704370B869B97CC9000D
:1014C000029A4254B869B97CC90040180F213140D2
:1014D00020314170A0B20628254600D30625AAB2C5
:1014E0000499081A03990918B869BB7CDB00C01875
:1014F000801CFEF718FE641B761CC9E76400001010
:10150000CCCCCCCC10B50B48C17910290BD20A4AEF
:1015100053189A785218094CA4691419027A1419AC
:101520009C70491C01E0027A0021C171511C0172BA
:1015300010BDC0464801001042000010A801001074
:1015400070B503460024E043002B00D070BD551851
:1015500001231E04B542F9D87A4D7B48286018064D
:101560007A4B1E6886431E600846114600F004F858
:1015700077482860204670BDF8B5744CE2681023A7
:1015800000939A43E2604118491E490A491C8EB2F1
:10159000400A87B20B4DB7420ED27F203946014038
:1015A0002268824350182060EFF3108072B62868DA
:1015B000804762B67F1CEEE7E06800990843E06070
:1015C000F8BDC046CC000010F0B587B01F465818D3
:1015D000002401231B04984201D9E04353E0039403
:1015E000029203230846184012D00C460A469A433A
:1015F000116852680592049104A909180822121A68
:10160000BA4200D33A4602980392FEF78CFD214677
:10161000039BFD1A07242A462240082D20D300925E
:1016200001915A180298C318A5430027AF4219D256
:10163000D41964682946D559DD55DE193471280E50
:10164000F070280CB070280A7070200EF071200C19
:10165000B071200A7071059404950D460837E5E7CE
:10166000029C04E0039BDB19029C0199009A002A6A
:1016700008D058585918496805910490E01804A9F1
:10168000FEF751FD002007B0F0BD0000F8B515468B
:101690000E4601460022D043002900D0F8BD1C466A
:1016A0009B1901210F04BB42F8D81348134F382A65
:1016B00004D0835C5B1EBB54521CF8E73620FF222B
:1016C0003A54BA771F4A2048106008061F490A6832
:1016D00082430A6030462146FFF74EFF30462946D6
:1016E000224600F037F81A48164908603821384673
:1016F000FEF732FD0020F8BD94000010000000103D
:10170000F8B504460025E843002C00D0F8BD5E186B
:1017100001242704BE42F9D8EFF3108072B6094EB7
:10172000094830602006094C27688743276008462F
:1017300011461A4600F00EF8F648306062B62846A8
:10174000F8BDC046F800FF0055AA55AA1C00FF00CE
:1017500078563412F0B587B00E4604462B49086817
:101760001023039398430860072013460340082A78
:10177000029028D300930192154685430027AF427B
:1017800023D2F01901794279120251188279C37972
:101790001B029A18120451180591F15D4278120249
:1017A00051188278C0780002801800044018049014
:1017B000E019EFF3108172B615490A6804A9904741
:1017C00062B60837DBE7002701E0019A009B002B97
:1017D00014D00020C0430590049002988243B118B1
:1017E0001A4604AD2846FEF79EFC3819EFF3108127
:1017F00072B607490A682946904762B603490868E5
:10180000039A1043086007B0F0BDC0462800FF00EF
:10181000D0000010B0B50C46064D062800D20C359D
:101820000621FEF7B1FC8800295807229143214385
:101830002950B0BD0020004002460120022A0BD8EA
:10184000002A09D0012A03D104480068C0B201E08F
:1018500003480068087000207047C04630600040B0
:1018600030B0004002460120022A0DD8002A0BD0D9
:10187000002909D0012A03D105480068C0B201E05F
:1018800002480068087000207047C04604B000405D
:101890000460004001460120022918D8002916D012
:1018A000002A14D0002B12D0012901D0094800E0F1
:1018B00007480168022291430160016804220A433B
:1018C00002600168012292060A430260002070470C
:1018D0000860004008B0004002460120022A0DD8EE
:1018E000002A0BD0012A08D10F2000036C4A13688C
:1018F00083430807000C1818106000207047C0468A
:10190000F8B504460120022C2FD8002C2DD0002A37
:101910002BD0002B29D0274D2748012C2E4600D054
:101920000646766EB60614D4012C00D00546A8688B
:101930000224A043A860A868012676060643AE608C
:101940000E467D3E701E864100203C290ED1014688
:101950000DE0012C00D00546E86D20210143E9652A
:101960000C21204600F0E0F90420F8BDB101AE687A
:101970004027BE437118A960A9680F263604B143F9
:101980001E07360B8919A960A9682143A960042B99
:1019900000D304230146CCB2A342E6D9AE6A76074F
:1019A000FCD4145D2E68FF27BE4334192C60491CFB
:1019B000F1E7C0460060004000B00040F8B50228E2
:1019C00001D9012561E00D46044600283DD0C048FC
:1019D000012C00D0143000680006000F461C01F0F6
:1019E000B7FA3146FEF7D0FB060930462946FEF726
:1019F000CBFB074628467843301A00012946FEF7FC
:101A0000C3FB0007000C22493940431821482249F2
:101A1000012C024600D00A46136016691F4B334062
:101A20001F4EAC4FBD421FD308252B431361012C21
:101A300000D008460025456220462946FFF74CFFA6
:101A400030684021884330601FE001F0C9FA294620
:101A5000FEF79AFB13490A68134B1340401E134AC2
:101A60000240981808600FE0C8252B431361012C31
:101A700000D008460721416203212046FFF72CFFD2
:101A8000306840210143316000252846F8BDC0463A
:101A9000FF0100001460004014B0004000FEFFFF92
:101AA0002CF000400440004000C0FFFFFF3F00005A
:101AB00010B5EC49EC4A0A60154A00281AD013699F
:101AC00001242343136100BF00BF1369A3431361C3
:101AD00000BF00BF924A20231360E14A13608000D8
:101AE000804A8018001FBFF34F8FBFF36F8F002213
:101AF00002600AE0106801231843106000BF00BFB5
:101B000010689843106000BF00BFDE48086010BD39
:101B10001010004078563412F8B516460C460546AB
:101B2000D04A022802D9D048106062E010D0012DBE
:101B300036D0002DF7D1022701213846FFF76AFE83
:101B4000C84AC948106062481038016839434FE0FC
:101B50000320009605263146FFF75CFE0427384631
:101B60003146009EFFF756FEE948E84908605848AC
:101B700041690122114341614169914341614169D8
:101B800002220A43426141693943416161784269F5
:101B9000F0239A430907090E5118DC4A416128E0F5
:101BA000207B022809D1072002273946FFF732FEA1
:101BB00008203946FFF72EFED44AD5481060444825
:101BC00001681746012211430160016891430160D9
:101BD000016802220A430260016804220A4302608B
:101BE00061780268F0239A430907090E51183A46B2
:101BF0000160D648106021692846FFF7DFFE002DFE
:101C00005FD00096624E634B012D304600D01846DF
:101C1000227B4168022A07D10122114341604168B9
:101C200004229143416009E0012291434160207BFD
:101C3000012803D15003616801436160012D3046E2
:101C400000D01846416908220A43426120692149AF
:101C5000884204D301208003616881436160277B4F
:101C60000321284600F060F8012D3046494B00D092
:101C70001846012F01D0194900E01749022F00D161
:101C800007210160426D16490A434265607A0028C7
:101C900011D0012D00D01E466068B26D084082430D
:101CA000B265A8000F494018001F00990160012D7E
:101CB00008D00A2007E0012D00D01E46B06D084371
:101CC000B065F8BD0520217AFEF760FCF8BDC0467E
:101CD00020100040014B0000ED870860ED85086092
:101CE000FFFF7F00E408001002460120022A15D8F9
:101CF000002A13D0012A02D00120800200E0202017
:101D0000884A1060002902D00649086005E0C249EF
:101D10000860BFF34F8FBFF36F8F00207047C0463E
:101D200080E200E000E100E070B500292ED000283C
:101D30002CD0CA07164A174B08D00128144600D0E9
:101D40001C462568012676062E4326608C0708D59A
:101D50000128144600D01C4625680126B6062E43ED
:101D600026604C0708D50128144600D01C4625687B
:101D70000126F6052E432660090707D5012800D065
:101D80001A461068012109060143116070BDC04662
:101D90000860004008B00040FEB50292012302280E
:101DA00036D8002934D0029A002A31D00191002778
:101DB000184C194D194E009702998F4227D00028D0
:101DC00019D001280CD002281FD1B16A4907FCD4D0
:101DD0000199C95D3268FF239A435118316014E0BC
:101DE000A96A4907FCD40199C95D2A68FF239A436F
:101DF0005118296009E0A368DB07FCD10199CA5D8D
:101E00002168FF239943891821607F1CD4E7009B38
:101E10001846FEBD004000400060004000B0004099
:101E200010B57D4810210160BFF34F8FBFF36F8F56
:101E30003D48002101603848434A826101604168A1
:101E4000374A0A404260414981613048304A026065
:101E5000304A13680224A3431360016010BDC046DA
:101E600080E100E0FC1000405A5A5A5A2A49364A8A
:101E70008A610A6801239A43101808603348886110
:101E80007047C04678563412F8B50D460446FFF741
:101E9000C7FF1E491E4808601E48026802231A43F5
:101EA00002602A4808601C49274A8A6101221602FA
:101EB0000F6837430F60267B0F689F4373061B0E26
:101EC0003B430B602369154E1E404B68144F1F4067
:101ED000BB194B60637A53404E6996431E434E6173
:101EE0000B6913430B618861607A00280DD00D489F
:101EF000102101600C4805600C480168FF229143E5
:101F0000227A9201D2B251180160F8BDFC10004053
:101F10005A5A5A5A1410004000A00040FFFF0F0008
:101F20000000F0FF80E200E0E009001004E400E0BF
:101F3000044805498160016801220A43026003499F
:101F40008160704710A000405555AAAA78563412F7
:101F500070477047F8B501F0B5FAFFF74DF8FFF795
:101F600087F8FFF7CFFA2B4FF87F012836D00028EB
:101F70004DD101263046FEF709FDE74CA069401C13
:101F8000A061332843D30025A5611F2041023A46B2
:101F900024321423284600F075F9386B1F49884213
:101FA00019D1A07C022102460A43032A30D11C4ADF
:101FB000517003213977012805D10220FEF756FD23
:101FC0000120FEF7E3FCA5747D20400212340322B9
:101FD000214600F017F90220F877F8BD0E480821D5
:101FE0000160BFF34F8FBFF36F8F20210160BFF3FC
:101FF0004F8FBFF36F8F012000F073F8FFF7A8FF3A
:10200000412000020168406881F308888047F8BDDC
:10201000FE77F8BDA801001080E100E0EFBEADDE64
:102020004200001010B5FEF747FDBB4C2079012897
:1020300016D1E089401CE08180B21249884205D364
:102040000020E08131217822FEF7E2FC607A401C1A
:102050006072C0B2652803D30020607201F032FACA
:10206000207D03280CD3208A401C208280B20649A0
:10207000884205D302202075002020820120607153
:1020800010BDC046090700001127000010B500234D
:10209000102B0CD0934201D2C45C05E09A4202D1CD
:1020A00080248C5401E00024CC545B1CF0E710BD6C
:1020B00080B50A46012111404B4205211940920783
:1020C00000D50A31FFF730FE80BD80B50246002002
:1020D0003C2A02D07D2A00D010460822FEF79EFB43
:1020E00080BD80B5FFF7E4FC80BD0000B0B586B0D0
:1020F000044601AD00202880FF2004302881481EBE
:1021000081412973059206480290204629461A46C5
:10211000FFF702FD01212046FFF7E6FD06B0B0BD46
:102120002D5F0000B0B501220B4613404C080D098D
:10213000654015406B404A07D20F5A4092010B0789
:10214000DB0F6B408C06E40F5C40E343DB019A1825
:10215000012806D14A401006800F05D00020C14357
:1021600004E00A43D0B2B0BD3F200140C8B2B0BDC8
:1021700080B5002903D01146FFF774FB80BD1146DE
:10218000FFF75AFB80BD80B5FFF784FB80BD80B5AB
:10219000FFF702FE80BD80B5FFF7B2FB4142484128
:1021A00080BD0000F0B5FFB082B014460091064635
:1021B00031490140314D6B1C002001AF3A46FFF719
:1021C00003FA2E403019395C38184278120251183F
:1021D0008278C0780002801800044518BE1928488B
:1021E00031462246FEF790FB0746854204D100980F
:1021F00031462246FDF797FFE91B484248417FB030
:1022000002B0F0BDF0B5FFB086B017460C460546EB
:10221000194901401948431C002005AE0290009165
:1022200032460493FFF7D0F914480540761930463A
:102230000194214603973A46FDF799FF002818D0EC
:1022400030460199039F3A46FDF76DFF0C48314631
:102250003A46FEF759FBE91905AA50545118029B5A
:10226000CB708B70000A487018460099049BFFF7EA
:102270000DFA7FB006B0F0BD00FEFFFFFF010000C9
:10228000FFFF000080B5FFF79FF94142484180BD44
:102290007CB50D460446FEF719FF7E2836D0FEF7C2
:1022A00015FF7F2832D0062D27D16078F32828D15A
:1022B000A0783F2825D1E078FF2822D12079022874
:1022C0001FD1607903281CD81F20C0029D4E3146C3
:1022D0000B3102252A46FFF765FFF07A61798842C3
:1022E00015D169460871CD7000208870487008705B
:1022F00020780522FEF774FB7CBD21780020132294
:1023000002E0217800203122FEF782FB7CBD21789B
:1023100000207222F8E7C04648010010F0B589B0ED
:102320000D460746FEF7D2FE7E2800D182E0FEF77A
:10233000CDFE7F287ED0032D17D1BE787C78200279
:102340008519284600F05AFF00283ED0002008AB2F
:1023500001462A4600F08CFF37498E704C70387861
:10236000089A491C921C92B25BE0281F072828D8C3
:10237000681EC10725D1029700260496400804A9CB
:1023800008700796069605960421CF43C0B20390C5
:10239000062534460398B04219D002984019C11955
:1023A0004978C05D0002401804A9485380B200F08B
:1023B00025FF002801D00120B0400443AD1C761C4D
:1023C000E8E739780020132232E039782EE004A8BB
:1023D0008480200428D004A8871DA0B20190002486
:1023E000154D26460398A04215D00198E040C0073D
:1023F0000ED0B0B240193A888270110A4170F01CB8
:10240000C1B2012008AB00F033FF08983018861CD9
:10241000BF1C641CE6E704A8468002980078691C8B
:10242000B2B2FEF7DDFA05E0029801780020312211
:10243000FEF7EEFA09B0F0BDE40500107CB50D46DC
:102440000446FEF743FE7E2876D0FEF73FFE7F2847
:1024500072D0FA48407802280CD10B2D0ED1F848E2
:10246000007801280ED1607800280FD02178002054
:1024700012225FE0217800207F225BE0217800209B
:10248000132257E021780020332253E0A07844281B
:102490004DD1E0790006217A09040818617A090211
:1024A0004018A17A4118E078000622791204101829
:1024B000627912028018A2798318E248027F551FC0
:1024C000022D19D201221507AB4230D140292ED15D
:1024D0002021402343548723DB000026C652056099
:1024E000072303778660C6600661426101AA164829
:1024F00010802078022317E00B2A1ED1416343602D
:1025000001218A03934212D18722D20000238352F1
:102510000C2202778360C3600361416101AA022338
:102520005370137020782021FEF740FA7CBD21788B
:1025300000203122FEF76CFA7CBD21780020702249
:10254000F8E7C0464801001002020000B0B50D4691
:102550000446FEF7BBFD7E2826D0FEF7B7FD7F2898
:1025600022D0B6484078022809D1012D0BD1B548B8
:10257000017F0D290BD0082911D1092108E021780C
:1025800000207F220EE02178002013220AE00E2195
:102590000177207800210A46FEF722FAB0BD2178A3
:1025A00000202422FEF734FAB0BDC04680B50229CF
:1025B00008D14278911E022908D311468239022996
:1025C00007D280BD01780020132209E001780120A4
:1025D00006E0812A0FD0012A05D0017800201222BE
:1025E000FEF716FA80BD017801200246FEF710FAC8
:1025F0003220FEF7CBF9FDF7DDFF0000F0B58BB020
:102600000E4604460AA800258570058002A82027EA
:102610003946FDF7A1FDFEF759FD7E2800D1BAE04D
:10262000FEF754FD7F2800D1B5E06078802101439A
:10263000812925D1012001906070E178A078020203
:1026400052187B4B9A421FD07A4B9A4240D0FF20BF
:102650000002824266D07848824200D08EE0FC4878
:102660004078042800D085E0042E00D08AE0F948A4
:10267000017F491E012900D988E002210177B4E0D9
:1026800021780020122284E0F1484078022871D19C
:10269000042E77D1EF4A107F0F2877D1EB4880784E
:1026A000012873D1102010770AAEB570A078307071
:1026B000E0786549116370701F20410224321423B1
:1026C0002846FFF71DF861782078032332469DE005
:1026D000DF4B5A78022A4DD1142E53D1DD4E327F72
:1026E0000E2A5AD0092A00D088E0F15D574802AA84
:1026F00000921E4600F058FA12363046D34E2C3661
:1027000000993A463346FDF793FF211D3046FEF708
:10271000EAF801287DD10A20CE4908770198CB49F3
:10272000487062E0CA484178022923D10C2E29D191
:10273000C84D297F0A2929D1C4494978012925D1C1
:10274000217800787822FEF779FD5A20FEF71EF9ED
:102750001F2041025D2042020020FEF7F1FE0B2007
:102760002877A0780AAA1070E078507061782078F5
:1027700002234BE0217800207F220AE0217800200C
:10278000312206E021780020132202E02178002087
:102790002222FEF73DF90BB0F0BD217878222846C1
:1027A00037461E46FEF734F9FD4901980871CD8180
:1027B000796B800302AA009200F0F6F91236F8490C
:1027C0000F463C37202230460E4600993B46FDF727
:1027D0002FFF3571211D3846FEF785F801281ED1DF
:1027E0000198B0700F20EC4908770AAA9570A0787C
:1027F0001070E07850706178207806E00AAA022311
:10280000937051701070207801210323FEF7CEF8E9
:10281000C1E7E34845700AAA02209070E7E7B57067
:102820000AAA02209070E0785070A0781070E2E759
:1028300001FF000002DD0000030200004200001062
:1028400048010010A8010010EFBEADDE000000102E
:10285000F0B585B00D460446FEF738FC7E2847D01B
:10286000FEF734FC7F2843D0022D01D0122D37D142
:10287000774E7078022816D16078892803D00A280C
:1028800018D0092836D1022D2AD1704D287D022872
:1028900037D8287801283DD1E87801284FD1002089
:1028A000E870287048E069490020C87008702178F5
:1028B0007F221BE0122D13D16648007F042837D1F8
:1028C000624D287B6838032868D8C0467844007970
:1028D000400087440155595D304612306AA15AE0E4
:1028E0005A490020C870087021781322FEF790F82A
:1028F00005B0F0BD55490020C8700870217812223B
:10290000F4E70020E8702870524903220A77217802
:102910003722EBE74F48017FC91E012916D81C2139
:102920002C2919D072181A3A12786A54491CF7E700
:1029300046490020C870087021782422D6E71C2060
:102940002C2813D000212954401CF9E70020E870FE
:10295000287021782222C9E7042101776178207844
:102960001C3510232A46FEF721F8C1E7617820784C
:102970002A461C321023FEF719F80120E870B7E749
:10298000304612303CA106E03046123036A102E05B
:102990003046123030A11022FDF7C5FB1236294611
:1029A0001C31102201AF30463B46FDF741FEA11C11
:1029B0003846FDF798FF01281AD1012000902870B1
:1029C0000520244908777D20470212350326384622
:1029D00029463246FFF7E6FB00201C4908753846B9
:1029E00029463246FFF70EFC6278217800987DE791
:1029F000032018490877287D7D214E02022811D82E
:102A00002946123103223046FFF7CCFB287D401CBB
:102A10002875C1B2022905D80020E87028702178F5
:102A2000352208E00021E97029702178C0B203281E
:102A30000AD100203622FDF7EBFF12350322304683
:102A40002946FFF7DFFB53E7002076E74801001037
:102A500042000010A80100102A7EF5257E01E6063E
:102A6000CD0C68FEA03E5E5C485424F9F5763E2B02
:102A70009987D0111A8BD28232A98303AD07AE9CFD
:102A80002B461FDE1DA5467688B34F45E10DBBC31F
:102A90005DBF7ECF868E736070B5044602292CD14F
:102AA0006078012809D002282DD0032836D0832849
:102AB0003ED0822827D0812841D1384D687802281D
:102AC0000CD11F204102344E324624320020142300
:102AD000FFF7D8FB306B3349884241D030480021A2
:102AE000C17001226A702C4A117701706078012848
:102AF00008D10120FDF7BAFF70BD21780020132214
:102B0000FDF786FF70BD2449087F02280AD3234AB7
:102B10000220507003220A77C8771AE01F484178D4
:102B2000022910D1217800207E22FDF771FF12E0EA
:102B30001948012101771948042141700BE02178DF
:102B400000201222DCE7144901220A770421417097
:102B50006078FDF78BFF12480021C170017070BDD5
:102B60006078812816D07D2044020D4E35461235FE
:102B7000032220462946FFF715FBF07C012806D0EA
:102B80000120F074032220462946FFF73BFB052075
:102B9000FDF7FCFEFDF70EFDA8010010420000103D
:102BA00048010010EFBEADDEF0B5E9B005920E466B
:102BB000019038200840382801D0402000E08020D3
:102BC0003F2132468A43101880090690770FF000A3
:102BD000109059A83830029000218A480F908A48F6
:102BE0000E908A480D908A480C908A480B908A482B
:102BF0000A908A4809908A48089004960397069894
:102C0000814200D1DBE059A8402507912946FDF714
:102C1000A3FA0798800186421ED901990918341A2F
:102C2000402C254600D3402559A82A46FDF77BFABB
:102C30003F2C20D859A880214155372D1BD840253D
:102C4000029C002D17D0083D109839462A46FDF702
:102C500059FA2070641CF4E759A880210170029C85
:102C6000002D08D0083D109839462A46FDF74AFA4B
:102C70002070641CF4E7002040280FD059A90A5C9A
:102C8000120609184B781B049A188B781B02D2186D
:102C9000C978511819AA1150001DEDE70020C0286D
:102CA0001BD019AB19188A6B13241546E541112462
:102CB000960AE2416A4072404C6812252646EE416F
:102CC0000725E708EC4174407C401B58E3184C6A28
:102CD0001B199A180A64001DE1E7402419A81590F1
:102CE000504814900CAE65CE17900B990A9F099826
:102CF000189008981690189818970F462B46354646
:102D0000002C3BD00D212E46CE41022113902846A7
:102D1000C841704016212E46CE414640104618400C
:102D20001146594029404140881912900B203946DC
:102D3000C1410620119323463C46C4414C40192012
:102D40003946C14161401C46189838400818169908
:102D50004018139B1946B9434018149E02CE14968E
:102D60004018159E02CE1596401812990E18179904
:102D70004118641E1792119A1693BCE701460898F1
:102D8000169C201808900998081809900A98189914
:102D900008180A900B9838180B900C981799081877
:102DA0000C900D9810180D900E9818180E900F9802
:102DB00028180F900799491C049E039F1FE7089845
:102DC000209009981F900A981E900B981D900C98BF
:102DD0001C900D981B900E981A900F981990002037
:102DE00020280CD019A909580A0E059B1A541A1844
:102DF000D1700B0A9370090C5170001DF0E769B097
:102E0000F0BDC04667E6096A85AE67BB72F36E3CEB
:102E10003AF54FA57F520E518C68059BABD9831FA5
:102E200019CDE05B9C35000070B58CB004460F20D6
:102E3000C543284600280ED008A909182218136A8D
:102E40000B6104A90918136B0B6169460918126C10
:102E50000A61001DEEE708A801210D4EB04704A845
:102E60000221B04768460321B047002D0ED06019FB
:102E700008A949190969016204A949190969016385
:102E800069464919096901642D1DEEE70CB070BD52
:102E9000510D000070B500210A4A042911D0002309
:102EA000102B0BD0C458A5000F26B6012E40951943
:102EB0002407A40E2C59C4501B1DF1E71030491CE7
:102EC000EBE770BD1039000080B500F041F80C4907
:102ED00008607D21C900FDF757F9401E010E0DD194
:102EE0000849094A5060094803680B4003218907D3
:102EF00059180160002090600720106080BDC04616
:102F000080000010FFFFFF0010E000E020ED00E077
:102F100010B5304A304B1360144B012805D00028FF
:102F200007D118680124A04302E01C680120204357
:102F300018601868F024A0430907090E40181860AB
:102F400018680821014319602448106010BDC0466C
:102F500006490868C00702D07D20000200E004484E
:102F600009680906090FC8407047C04600100040B4
:102F7000006CDC0210B51749174A0A600723184095
:102F80001C4A14689C4320181060106808230343EF
:102F900013600220C043936803409360D3680340EA
:102FA000D36013690340136153690340536193690C
:102FB00003409361D3690340D361936A03409362F2
:102FC000D36A0340D362136B034013630348086062
:102FD00010BDC046FC1000405A5A5A5A7856341256
:102FE00010B50448006807240440FFF7B1FFE04033
:102FF00010BDC04604100040F0B52648016800220C
:10300000264C274D1646202A42D00F46D740FF07B0
:1030100002D0761C521CF6E725607F2737400A2F26
:10302000F7D8C0467F443F797F00BF4405090D11A2
:1030300015191D2125292D004368174F7B60E8E7EE
:103040008368154F3B60E4E7C368134F3B61E0E7DB
:103050000369114FFB63DCE743690F4F3B63D8E71C
:1030600083690D4F7B61D4E7C3690B4F3B64D0E7A5
:10307000036A094FBB60CCE7436A074FBB63C8E7ED
:10308000836A054FBB61C4E7C36A034FFB61C0E7B6
:10309000F0BDC046040080000CF00040FCF0004091
:1030A0001032547605490A68824203D2C043096847
:1030B000081870470968081A7047C046EC080010E5
:1030C000F8B50D460446FEF701F87E2812D0FDF74C
:1030D000FDFF7F280ED065484078022805D1022DDB
:1030E00009D821780020132202E0217800207F22D5
:1030F000FDF78EFCF8BD3E48854203D321780020C1
:103100003122F5E7DA4E307F01460C3902290ED321
:10311000C01F01282CD8082030772020325CA11C49
:103120003548FDF700F8627821780120E0E70D20AE
:1031300030776078002817D0F168491C814213D19C
:1031400070610120B077AF1E3069C01930617168BD
:10315000880B02D0C80A1E280ED98720C100002083
:1031600070522178722221E0217800207322BFE77B
:10317000217800202422BBE7A21CBBB200252846F0
:10318000FEF7BEFA8720C000315C491CCAB2012A92
:1031900000D80D4635547069F0607068C0197060D1
:1031A000B068C019B060627821780120FDF730FC6A
:1031B0003069410A04D1B1680818716B884208D19E
:1031C0000C48315C491CCAB2012A00D90021315493
:1031D00004E0217800207122FDF71AFC706BB168C1
:1031E000814287D18720C00000213152F8BDC046FE
:1031F000030200003904000000000010B0B5974938
:1032000041180124172906D801228A400D4B1A4281
:1032100015D1092905D09349884210D09049884298
:103220000CD11F204102924D2A4624320020142343
:10323000FFF728F8286B0449884200D00024204674
:10324000B0BDC04691048100EFBEADDE8948017B70
:10325000FC220A40682A00D06821044A1170017DCE
:10326000042901D3002101757047C04642000010B7
:10327000F0B58FB01E4617460191054673A00CA904
:103280000CC80CC10088088006A8152420222146FD
:10329000FCF75BFF704805900490039002906F4824
:1032A00038180A2817D8C046784400794000874467
:1032B00005CBCBCB2ECBCB3DCB434D00082333806E
:1032C00039200102002402AA2046FEF77DF9002DD4
:1032D0006AD0019969E0624887423DD061488742DF
:1032E00054D06148874200D0AEE00A203080614867
:1032F000C07A032807D8C0005F49C1400CAA917169
:103300005E49C1405171002D7AD0019979E00A20BF
:1033100030801F204102564C2246243200201423C4
:10332000FEF7B0FF002D49D0019948E00C20308015
:10333000002D4FD001994EE01820308001208103EC
:103340004A48002D7BD0019A821879E00A2030800B
:10335000002D4AD0019949E03480012081031831C1
:10336000002606AA30462346FEF72EF94148C07AC9
:10337000032807D8C0004049C14006AA11723F493E
:10338000C140D171002D46D0019945E0082333801A
:10339000392001020831002404AA2046FEF714F95E
:1033A000002D42D0019941E0032130484018082CFB
:1033B0004AD002A9095D0155641CF8E703212B4896
:1033C000401824212E293FD0625C4318243B1A70F8
:1033D000491CF7E703212548401800212BA20C299E
:1033E00032D0535C4354491CF9E703211F4840186D
:1033F000002123A20A2927D0535C4354491CF9E732
:1034000003211A48401800210A291DD00CAA525C39
:103410004254491CF8E7032114484018152E13D0D4
:1034200006A9895D8155761CF8E703210F484018ED
:10343000082C09D004A9095D0155641CF8E7C21CD9
:1034400000201823FEF7C0F80FB0F0BD45484953DF
:103450005F464C202020000020202020800EFFFF0F
:103460001602000089F0000097F10000E40500104A
:10347000A8010010480100104C4C525246524652CE
:1034800033313937202020202020000034323830DA
:103490003331302D525730320000000010B586B065
:1034A00001AA0124147303211181002111800291CA
:1034B000400105901046FEF7E7FC2046FEF7D6FCDB
:1034C00006B010BD80B5FEF733FD80BDB0B500235A
:1034D000102B05D0C45CCD5C6540D5545B1CF7E770
:1034E000B0BD000002000000030000000100000069
:1034F00001000000010000000200000003000000C5
:1035000001000000010000000100000002000000B6
:1035100003000000030000000100000001000000A3
:103520000200000010000000992A000011000000B5
:10353000AD25000027000000512800002E000000EB
:10354000490C000031000000FD250000340000009F
:103550003D24000036000000C130000037000000AC
:103560004D250000140000003B080000B5000000DD
:10357000E5060000B20000009122000022000000D9
:103580001D230000280000004908000085000000FD
:10359000090B00003E000000DD0A0000982F8A425F
:1035A00091443771CFFBC0B5A5DBB5E95BC2563995
:1035B000F111F159A4823F92D55E1CAB98AA07D8AD
:1035C000015B8312BE853124C37D0C55745DBE72D0
:1035D000FEB1DE80A706DC9B74F19BC1C1699BE450
:1035E0008647BEEFC69DC10FCCA10C246F2CE92DE0
:1035F000AA84744ADCA9B05CDA88F97652513E9804
:103600006DC631A8C82703B0C77F59BFF30BE0C60A
:103610004791A7D55163CA0667292914850AB72798
:1036200038211B2EFC6D2C4D130D385354730A6535
:10363000BB0A6A762EC9C281852C7292A1E8BFA20C
:103640004B661AA8708B4BC2A3516CC719E892D174
:10365000240699D685350EF470A06A1016C1A419F7
:10366000086C371E4C774827B5BCB034B30C1C39F6
:103670004AAAD84E4FCA9C5BF36F2E68EE828F74B5
:103680006F63A5781478C8840802C78CFAFFBE90CF
:10369000EB6C50A4F7A3F9BEF27871C600000000ED
:1036A000000000000000000000000000000000001A
:1036B000000000000000000000000000000000000A
:1036C00000000000000000000000000000000000FA
:1036D00000000000000000000000000000000000EA
:1039000042543A422E30342048573A422E322E301A
:10391000630000007C000000770000007B000000D6
:10392000F20000006B0000006F000000C500000006
:103930003000000001000000670000002B000000C4
:10394000FE000000D7000000AB0000007600000081
:10395000CA00000082000000C90000007D000000D5
:10396000FA0000005900000047000000F0000000CD
:10397000AD000000D4000000A2000000AF00000075
:103980009C000000A400000072000000C0000000C5
:10399000B7000000FD0000009300000026000000BA
:1039A000360000003F000000F7000000CC000000DF
:1039B00034000000A5000000E5000000F100000058
:1039C00071000000D8000000310000001500000068
:1039D00004000000C700000023000000C300000036
:1039E0001800000096000000050000009A0000008A
:1039F000070000001200000080000000E20000004C
:103A0000EB00000027000000B2000000750000007D
:103A100009000000830000002C0000001A000000D4
:103A20001B0000006E0000005A000000A000000013
:103A3000520000003B000000D6000000B300000070
:103A400029000000E30000002F00000084000000B7
:103A500053000000D100000000000000ED00000055
:103A600020000000FC000000B10000005B0000002E
:103A70006A000000CB000000BE000000390000001A
:103A80004A0000004C00000058000000CF00000079
:103A9000D0000000EF000000AA000000FB000000C2
:103AA000430000004D0000003300000085000000CE
:103AB00045000000F9000000020000007F00000047
:103AC000500000003C0000009F000000A800000023
:103AD00051000000A3000000400000008F00000023
:103AE000920000009D00000038000000F50000007A
:103AF000BC000000B6000000DA0000002100000059
:103B000010000000FF000000F3000000D2000000E1
:103B1000CD0000000C00000013000000EC000000CD
:103B20005F00000097000000440000001700000044
:103B3000C4000000A70000007E0000003D0000005F
:103B4000640000005D000000190000007300000028
:103B500060000000810000004F000000DC00000059
:103B6000220000002A0000009000000088000000F1
:103B700046000000EE000000B80000001400000045
:103B8000DE0000005E0000000B000000DB00000013
:103B9000E0000000320000003A0000000A000000CF
:103BA0004900000006000000240000005C00000046
:103BB000C2000000D3000000AC0000006200000062
:103BC0009100000095000000E40000007900000072
:103BD000E7000000C8000000370000006D00000092
:103BE0008D000000D50000004E000000A90000007C
:103BF0006C00000056000000F4000000EA00000025
:103C0000650000007A000000AE000000080000001F
:103C1000BA00000078000000250000002E0000001F
:103C20001C000000A6000000B4000000C600000058
:103C3000E8000000DD000000740000001F0000002C
:103C40004B000000BD0000008B0000008A00000057
:103C5000700000003E000000B5000000660000009B
:103C60004800000003000000F60000000E00000005
:103C7000610000003500000057000000B90000009E
:103C800086000000C10000001D0000009E00000032
:103C9000E1000000F80000009800000011000000A2
:103CA00069000000D90000008E00000094000000B0
:103CB0009B0000001E00000087000000E9000000DB
:103CC000CE0000005500000028000000DF000000CA
:103CD0008C000000A1000000890000000D00000021
:103CE000BF000000E6000000420000006800000085
:103CF00041000000990000002D0000000F000000AE
:103D0000B000000054000000BB00000016000000DE
:103D100000000000000000000000000000000000A3
:103D20000000000000000000000000000000000093
:103D30000000000000000000000000000000000083
:103D40000000000000000000000000000000000073
:103D5000000068016BC1BEE22E409F96E93D7E11D6
:103D60007393172A88B34F45E10DBBC35DBF7ECF68
:103D7000868E73604200000000000000000000001A
:103D80002C0600100000000000000000F0080010E9
:103D9000006CDC02000000000000000000000000D9
:103DA00000000087020101011A01010105490269B1
:103DB00002230B440361C26B8A08FDD57148C147D9
:103DC0002101FF010B694A694261036103490269EC
:103DD0004A08FDD57148C1474D01FF010900001097
:083DE0002100001000000000AA
:04000005000000C136
:00000001FF
