:020000040000FA
:1040000053573A312E30312E425F32353132333010
:084010005F333139375F3031B5
:020000040000FA
:1040180053573A45484953464C2E312E33432E3098
:084028003120202020000000DF
:020000040000FA
:10410000000E0010C1410000F74E0000914C00006D
:10411000000000000000000000000000000000009F
:10412000000000000000000000000000E941000065
:104130000000000000000000EB41000045000010FE
:10414000194C000045450000EF4100006D50000093
:10415000EF410000FD4E00006D450000EF41000002
:10416000EF410000D1500000795A0000EF410000FB
:10417000EF410000EF410000EF410000EF4100007F
:10418000EF410000EF410000EF410000EF4100006F
:10419000EF410000EF410000EF410000EF4100005F
:1041A000EF410000EF410000EF410000EF4100004F
:1041B000EF410000EF410000EF410000EF4100003F
:1041C00072B60B480B4901600B480C490160002096
:1041D0000B490C4A0860091D9142FBD30A488047ED
:1041E0000A480047FEE7FEE7FEE7FEE7FEE7FEE7D8
:1041F00000F0004098BADCFEF800FF007856341258
:1042000020020010000E0010CD4F000035510000BC
:1042100030B50B46014600202022012409E00D465E
:10422000D5409D4205D31D469540491B25469540E6
:1042300040191546521E002DF1DC30BD70B500242A
:104240002546002801DA01244042002901DA01252F
:104250004942FFF7DDFFAC4200D04042002C00D0C5
:10426000494270BD03460B439B0703D009E008C9D0
:10427000121F08C0042AFAD203E00B780370401C16
:10428000491C521EF9D27047D2B201E00270401CA4
:10429000491EFBD270470022F6E710B513460A46C6
:1042A00004461946FFF7F0FF204610BDF8B5024658
:1042B0004A40D40F42004B0052085B089A4202D297
:1042C0000246084611464A0023D0C30D4A00DDB21B
:1042D000120EAD1A202D35DA49020126490AF605DB
:1042E0008A19002C00D0524220214F1B1146B940A0
:1042F0002A411018C20D9A4221D0002C17D0012D4E
:1043000008DCDA05801AD20F8019D207DBB200F080
:10431000DFF8F8BDDA05801A012340001B06C0183B
:1043200080185A428018CA0F1043490007E0490814
:10433000C2071143DA05801A80194008801800F07E
:10434000BFF8F8BD61000122511A001BF7E70122F6
:10435000D2075140AAE70122D2075040A6E7024601
:1043600070B54A40D30FDB0740002DD04A002AD059
:10437000010E140E000212020919400A520A841892
:10438000E50104465443000A120A2E045043A419BE
:104390004219200CC543AA18120C0125AD03521C6A
:1043A000521912047F39240400D0521C104301D446
:1043B0004000491EC2B20C06C0092018401C40082B
:1043C000802A02D003E0002070BD40084000002990
:1043D00000DA0020184370BD70B502464A40D50F80
:1043E00040004A00ED0740085208002814D0002A77
:1043F00012D0C40DD30D41020120C0055202490A5A
:10440000520AE41A091812187D34914201D3641C2F
:1044100000E04900002C01DA002070BD0023914229
:1044200001D3891A0343400849000028F7D1002925
:104430000AD0914202D10121C90705E0914201D27F
:10444000012101E00121C943E005C018401900F035
:1044500037F870BDC217C10F504010B54018CA07D9
:104460009623002100F034F810BD10B500229623E9
:10447000114600F02DF810BDC20F4100400201238B
:10448000400ADB05D207090EC0187F2901DA002097
:104490007047962903DC9623591AC84001E09639E3
:1044A0008840002AF4D04042704700000122D20721
:1044B000002800DB101A002900DB511A88427047DF
:1044C000002904DA401C490001D14008400070472F
:1044D00070B40024050C05D11024000402D1002979
:1044E00021D01124050E01D100020834050F01D19D
:1044F0000001241D850F01D18000A41C002801DBD0
:104500004000641C002908D020252E1B0D46F540D4
:10451000A14000D001212943084301061B1B000ACA
:10452000DB1D02D5002070BC7047DB051818801811
:104530000029F8DA401C4900F5D170BC4008400061
:1045400070470000B0B5074D68681F24044008D0CC
:1045500005480168002901D0204688472868204383
:104560002860B0BD0C7000402003001070B50A4DEB
:104570006E680124204603F077FF002801D0074829
:104580000470022003F070FF002801D000F0B2FC9C
:1045900028683043286070BD2CC000405C070010C4
:1045A00080B582B0052830D878440079400087442F
:1045B00002162C2C202717480368002200920120A5
:1045C000022100F083FE14490860002801D000F0A9
:1045D000D3FE00F0A9FC00F0CFFA02B080BD03F0DA
:1045E000A7FF00F01BF800F07FFB00F0B1FC02B069
:1045F00080BD0748016802229143016002B080BD7E
:104600000348016802220A43026002B080BDC0462E
:1046100038500040300300102002001080B500F038
:1046200061F800F001F880BDB0B5E84801790029D3
:104630003CD000210171EB480078811E02291BD378
:10464000012834D0002831D12020E1490A5C5006ED
:10465000C30F234843709206120F027021228A5C16
:104660002223C95C09028918FF235B010B401F212B
:10467000114059184180B0BD2120D54A105C0F234C
:10468000034017490B70C306DB0F4B702223D35C2A
:104690005C0924022325525D02251540EA02121905
:1046A0001B0218184009C0B210184880B0BD212163
:1046B000C748425C5107CB0F09494B709300202437
:1046C000045DA409E3180F241C400C709206520FDD
:1046D0002223C05C4009800280184880B0BDC046DB
:1046E000A0030010F0B583B0B84C207800285AD051
:1046F000B748037907250122B6490E78002E0292A9
:1047000001D0134300E0AB430626B3434E78B6070F
:10471000760FF718B04B1F71B04E34781022224339
:10472000327042795A713278202313433370002259
:104730000346A648019202708A785406A40FC878EE
:104740000007800E00190C79A40100199F4C5871C4
:104750003D40D000401918713078CF2202403270AD
:1047600088790F2202404879000180189C4D2A78F0
:104770009871029802402A70087A03220240C87990
:104780000007800E8018497A890140186978D8712D
:10479000F8200840687093480178002903D00199F7
:1047A000017005F087FDA078002857D088490D7D5D
:1047B00007230120874A1478002C029001D005437A
:1047C00000E09D430624A5435478A407640F6619AE
:1047D000814C2671814DAF7810203843A870487DF8
:1047E0006071A87820240443AC700020774CA0703E
:1047F00090784406A40FD7783F07BF0E3C1917796D
:10480000BF01E4194C753340C000C0180875A87882
:10481000CF230340AB7090790F2303405079000100
:10482000C0186F4B1C798875029D2C401C71107A42
:1048300003240440D0790007800E0019634C527A9B
:10484000920180185A79C875F8201040587165494E
:104850000878012802D00D7005F02CFD6078002842
:1048600058D05B48057B072301225A490C78002C5D
:10487000029201D0154300E09D430624A5434C78E5
:10488000A407640F6619544C2671544D6F7810229A
:104890003A436A70427B62716A78202414436C70D8
:1048A00000224A4C62708A785406A40FCF783F07E2
:1048B000BF0E3C190F79BF01E41944733340D20095
:1048C000D21802736A78CF2313406B708A790F2352
:1048D00013404A791201D218414B9C788273029A94
:1048E00014409C700A7A03241440CA791207920E6D
:1048F0001219364C497A89015118DA78C173F820B7
:104900001040D87037480178022903D00221017085
:1049100005F0D0FCE078002856D02D48057F07230D
:1049200001222C490C78002C029201D0154300E0A2
:104930009D430624A5434C78A407640F6619264CB2
:104940002671264DEF7810223A43EA70427F627159
:10495000EA7820241443EC7000221C4CE2708A7820
:104960005406A40FCF783F07BF0E3C190F79BF0143
:10497000E41944773340D200D2180277EA78CF2383
:104980001340EB708A790F2313404A791201D21831
:10499000134B9C798277029A14409C710C7A032203
:1049A0001440CD792D07AD0E2C19497A8901611873
:1049B000DC79C177F8202040D8710A4801780329B2
:1049C00002D0027005F076FC03B0F0BD8D07001038
:1049D000C0010010A403001024030010940700106D
:1049E000B5010010E8030010411E884103490A6820
:1049F00001239A43101808607047C0461490004085
:104A0000F0B581B0024603210846009251430723C6
:104A10001C468C4010490D68A5430D6000242546B6
:104A2000064666431F46B7400A68BA430A60F2B2B8
:104A300094400A6822430A606D1CECB2009A9442CA
:104A4000EED91B060A689A430098400740091018DF
:104A5000086001B0F0BDC0462090004002490A68DD
:104A600082430A607047C046009000400C2859D825
:104A70007844007940008744060B10151A1F24293A
:104A80002E33383D4200314800682749486070475E
:104A90002E4840682449086070472C4880682249A5
:104AA000086170472948C0681F49C8637047274894
:104AB00000691D4908637047244840691A494861E4
:104AC0007047224880691849086470471F48C069C8
:104AD0001549886070471D48006A1349886370470C
:104AE0001A48406A1049886170471848806A0E4920
:104AF000C86170471548C06A0B49486470470A4846
:104B00000A4941670A4981670A49C1670A480B494E
:104B100001600B4941600B4981600B49C1607921FB
:104B2000090201617047C0460CF000401D1F377438
:104B30007C00FA007701EF028CF00040F804040BCF
:104B4000040B0116FF2080100021403F0800800068
:104B500080B5054A900805D00320824303480449E4
:104B6000FFF780FB80BDC04620020000000000105F
:104B7000F0C7000070470000B0B582B01748184970
:104B8000016018490A6802231A430A602A49016031
:104B9000154801681943016008240025204629466C
:104BA00003F028F9114908794A7912021218684667
:104BB00082800A784B781B029A188B78C978090290
:104BC000C918090489180091294603F065F82046A0
:104BD000294603F00FF902B0B0BDC046FC100040FA
:104BE0005A5A5A5A181000403850004011C5000057
:104BF00070B515460E4644B2204600F0A9FF204687
:104C000000F088FF2046314600F0D6FF002D02D08C
:104C1000204600F0BBFF70BD04488168044A054B84
:104C200013600160044810607047C0463400FF0004
:104C3000F800FF0055AA55AA7856341206490A789A
:104C4000022A02D90020C0437047531C0B70920007
:104C50008918486001207047B003001006490A789F
:104C6000012A02D90020C0437047531C0B709200E8
:104C70008918486001207047EC03001080B5034894
:104C80000068002801D000F01DFB80BDFC0300106F
:104C900000F0DAFF7047704710B50D4B1A78052900
:104CA00006D0042909D101248440E0B2104303E076
:104CB000012484401046A0431870501E8241187889
:104CC000431E9841824202D0002000F015FD10BD25
:104CD0002402001080B50020FFF7DEFF80BD80B504
:104CE0000120FFF7D9FF80BD10B5144801780229D3
:104CF0000DD313490A68521C0A60124B9A4209D319
:104D000001220270002008600F49087002E00C4880
:104D1000002101600D48817803290ED30C4A1388C5
:104D20005B1C13809BB20B4CA34206D30023138061
:104D30008C4A01231370491E817010BD19020010A6
:104D400098030010C509000048080010E403001093
:104D5000AC0700108913000012480068002802D038
:104D60005C480078704700207047C04680B50D4809
:104D70000068002806D002F073F80A2802D05548CF
:104D80000121017080BDC04680B504A00449002205
:104D9000012300F015FA0349086080BD6C696E00BC
:104DA000A94D000058070010B0B582B0052800D901
:104DB00084E0C046784400794000874402407F7F09
:104DC00027664848036800220092012420462146B5
:104DD00000F07CFA44490860002801D000F0CCFAC9
:104DE00002F098F901F0E0FA4048FFF727FF404849
:104DF000FFF734FF34480470B44800683349086052
:104E000002F042F83249088002B0B0BD2E490020BD
:104E10000870304908700421022203F05BFB2E4821
:104E200001680124214301602046214603F00CFB68
:104E3000062003212246FFF7DBFE02B0B0BD01F0E1
:104E40000FFC02F057FC02F049F802F01DF8204C6C
:104E50002188884202D02148012101701A4D28780A
:104E600001282BD102F010F82188884228D1174C54
:104E70002068964D2968081A194988421ED302F005
:104E8000EBF82868206002B0B0BD01240025204660
:104E9000294603F0D9FA062003212A46FFF7A8FE87
:104EA00001F030FD02F0D8F8074804708748006828
:104EB0000649086001F0E8FF0549088002B0B0BD6E
:104EC0000020287002B0B0BD340200103002001083
:104ED0002C0200105C0700102CC000405507001089
:104EE000E90300003003001028020010594D0000B3
:104EF0006D4D0000704700F0A7FE7047B0B5074D3C
:104F0000A868074C044008D006480168002901D071
:104F100020468847286820432860B0BD5C60004078
:104F2000FFFF7F005C08001005480121817181703E
:104F3000C17000224271017201714272C1717047E9
:104F4000A40300107D21C900C1400846704700003D
:104F500080B504480178012903D10021017000F0D7
:104F6000F7FF80BDF80A001010B5401E010E07D1F2
:104F7000044C606000F05CFE0020A0600720206010
:104F800010BDC04610E000E010B5074800680748B3
:104F9000074901600024E0B2FFF768FD641CE0B23D
:104FA0000D28F8D310BDC04604008000FCF000407E
:104FB0001032547680B500F005F80149086080BDD4
:104FC0009000001080B503F095FF80BD80B5FFF71D
:104FD000BFFD0020014600F01DF8FFF7EBFFFFF7D3
:104FE000D3FF03F09BFF03F071FF05F01DFC0648A3
:104FF0000649016006490A680123134302229343CC
:105000000B601949016080BDF800FF0055AA55AA40
:105010000400FF0010B5114A114B1360114B012819
:105020000CD0002812D118680124A0431860186819
:10503000F024A0430907090E401806E01868012172
:10504000014319601968082008431860186808218E
:10505000014319600448106010BDC046FC100040B8
:105060005A5A5A5A001000407856341210B5114955
:105070004868C0071CD00A68012002430A600E4A33
:1050800010700C390A680D490B689A180A600C4BAD
:105090009A420DDB4B22D2000A4B1C68A4181C60FC
:1050A000094B587000200860B948016889180160F0
:1050B00010BDC04618300040F20A0010F80300107E
:1050C000CC4C0000C8030010EC030010940000104A
:1050D00010B514484168490703D5016804220A4302
:1050E00002604168C9071BD0026801210A430260BF
:1050F0000E4804686078002803D00B480078002828
:1051000004D00B480068826B0A438263616E2046BC
:105110008847442141436018406D012100F056FC4E
:1051200010BDC04604900040C0030010EC0A0010FF
:10513000F40A001041200002012103F09BF9FFF75F
:105140001BFD00F0AFFC00F015F862B600F0AEFAFF
:1051500003F05EFDFFF718FE04A0054900220223BC
:1051600000F02EF800F04EF8FCE7C04661707000C9
:10517000A145000080B500F00DF90E480021016046
:1051800041600248012100F003F880BD8553000012
:10519000B0B50024074A1378002B01D0E043B0BD1E
:1051A000D518AC706970990051184860581C10707F
:1051B0000120B0BD68080010002141700120704737
:1051C000F0B581B0002909D00026354FB85D002820
:1051D00006D03C36B42EF9D100240FE000240DE0B7
:1051E0000120B853BC190025A563616320462946F8
:1051F00000F058F8002801D5BD552C46204601B0D6
:10520000F0BDC046F0B583B0614C2068234D2968DD
:10521000814203D000F070F820682860204D2E46AF
:105220000836002703E03C367F1C032F34D03C2097
:105230007843295C0029F6D02918487800281ED028
:10524000009702964D1C4B48019101602878002878
:105250000DD0019C34340026029F39682268381F23
:10526000006890470837761C28788642F5D30020DE
:105270002870404908600A4D029E009F0199886B82
:105280000028D0D03B4801604A6B02200024214610
:10529000904738480460C6E703B0F0BD38020010FC
:1052A0007008001010B54378052B02D90020C043C8
:1052B00010BDDC0004196160A260591C417001201E
:1052C00010BD0000CB490968C1607047B0B500222D
:1052D000274CA55C002D05D01032502AF9D10022B0
:1052E0001046B0BD0125A554A2180024947050703A
:1052F000536091601046B0BDF0B581B07D20C00014
:10530000009000261A4F04E00220A8701036502E9C
:105310002CD0B85D0028F9D0BD19A8780128F5D1A6
:10532000B4480168A868EA688C1A00994843FEF7F7
:105330006FFF8442EAD3686800280BD00178002907
:1053400008D00C490860426B012000242146904798
:105350000848046068780128D6D1A86800994843B5
:10536000FEF756FFE9684018E860CFE701B0F0BDEE
:1053700024090010300300109E4909680122827040
:10538000C16070479B480168491C01607047C04676
:105390009400001080B5044800687D21C900FEF724
:1053A00037FFFFF7E1FD80BD90000010F0B599B028
:1053B0000746069007AD44212846FEF76CFF0126FC
:1053C0002E704E484E494F4A00F08CFA0521297143
:1053D00018901F20159014904B480E904B480D903C
:1053E0004B480B904B480A904B4809904B48119002
:1053F0001A2013904A480C904A484B4A294600F01C
:105400009DFA9D4908604948494906F0D5FB49483D
:1054100000960190484C4949494B2046324606F0D7
:105420006DFC4848A06100949F4C474A474B20467A
:10543000314606F05BFE3846214606F06BFE4448D6
:1054400044490226444B324606F0BEFA43480096D1
:105450000190434C4349444B2046324606F094F8B1
:10546000424D4349434A284605F004FD4248E8605E
:10547000002703A8B0C03648029040480190404839
:105480000090874C204639463A46334606F05AFE8D
:105490000698214606F07FFE3A483B493B4B324690
:1054A00006F092FA3A48009601903A4C3A493B4B42
:1054B0002046324606F068F8394D3A493A4A2846BD
:1054C00005F0D8FC3948E86003A8B0C02D48029028
:1054D0003748019037480090724C204639463A468A
:1054E000334606F02FFE0698214606F054FE324958
:1054F000114806F04DFB19B0F0BDC046D4020010B3
:10550000D8C5000018C5000006010010D400001026
:10551000A6C5000074C5000038C50000B600001024
:10552000980000103C02001020C500001C0800106C
:10553000C4C70000E4070010B0070010BAC700009D
:1055400004080010FB4E0000B8C70000000800105F
:105550007406001008C700006C0600103406001026
:105560009C050010C8C600003C0600100404001092
:1055700030C60000D54C0000954C0000EC06001031
:1055800018C70000B006001010C700007006001019
:1055900038060010E8050010E8C6000054060010A8
:1055A000D00400107CC60000DF4C0000974C0000C7
:1055B000F00600101AC700003C010010B249087044
:1055C0007047C04610B5C3480124214606F0B8FD17
:1055D000C148214606F009FEC048214606F005FEF6
:1055E000BF48214606F07CFE10BDC0460148006859
:1055F0007047C0469400001080B5A348007800288A
:1056000005D0A5480078002807D0012080BD64207F
:1056100000BF401EFCD1002080BD9C480068C16DC9
:105620008847411E884180BD7047000010B5AA48D8
:105630000124214606F0D9FDA848214606F0D5FDF3
:10564000A448214606F07CFD10BDC04680B502F09E
:105650006FFF8D48007800280CD08E480188491CC7
:10566000018089B2042905D30021018087480068A0
:10567000016E884780BDC046EC0A001070470000EC
:1056800010B595480024214606F0AFFD9348214609
:1056900006F0ABFD8F48214606F052FD10BDC04616
:1056A000F406001024070010E807001010B50C489D
:1056B0000C4901600C4C204605F071FB2046FFF7B9
:1056C00075FE0920032101242246FFF791FA07A065
:1056D000084900222346FFF773FD6D49086010BD9D
:1056E0008C000010ED550000CC0A0010746F75633B
:1056F00068000000C957000080B5052908D00429BA
:105700000AD10648016802220A430260012100E032
:105710000021082002F06EFB80BDC04638500040DA
:10572000F0B581B00C46054602F0B8FEF149F248EA
:105730000860234A13680220034313601368082695
:105740001E431660FF231B0116689E4316601368F4
:1057500004261E431660EA4A0A601A4F39688022FE
:105760009143396039684022914339603968202279
:10577000914339603968814339600126F003294635
:10578000FEF746FDF860002C0DD00020C043B86144
:105790007869B0437861032001463246FFF728FA62
:1057A0003868304309E0786930437861032000228B
:1057B0000146FFF71DFA3868B043386001B0F0BD0C
:1057C0000C10004000300040B0B582B000282BD053
:1057D0000C460546401E012809D82B4800780028B1
:1057E00050D02A480068836D294622469847052DE7
:1057F00030D0042D46D12748002101802648017071
:10580000FFF7E0FE20480078002805D01F48006818
:10581000836D0421224698471C480068007B0121C3
:10582000FFF77EFF02B0B0BD1C4803680022009263
:1058300001200146FFF74AFD19490860002801D000
:10584000FFF79AFD1748FFF7F9F91748FFF706FA2F
:1058500002B0B0BDFFF712FA0D480068FFF7ACFCCC
:1058600000F024F808480078002805D007480068B0
:10587000836D05212246984704480068007B00217B
:10588000FFF74EFF02B0B0BD78010010EC0A001027
:10589000F40A0010F00A0010C103001030030010D9
:1058A0001C030010F95500004D56000010B50948C2
:1058B0000024214606F044FC0748214606F095FCEA
:1058C0000648214606F091FC0548214606F008FDF1
:1058D00010BDC046E8070010F406001024070010B1
:1058E000CC0A0010B0B50B8849880904C9180162B8
:1058F0009188D388148852880A4D85600A4DC56006
:105900000A4D05610A4D45610A4D85610A4DC56123
:10591000002545601204121942621A04511881626E
:105920000060B0BD1D91000025930000259400008B
:10593000319500003D950000A9900000F0B581B0C0
:1059400015460E46044600270846394600F0A8FAD8
:105950003046394602F024FE3046394600F014FA4B
:105960003046394602F0F4FD2046103048223146D8
:10597000FEF778FC2046683018222946FEF772FCB4
:10598000FFF734FEA16E6160A0606C20205AA081F8
:10599000688A0949094A0A4BE3652266616601285B
:1059A00001D0094800E00748A065204603F019FE31
:1059B000204601B0F0BDC046719600009F960000E1
:1059C000A99D0000D1990000B19600004160704788
:1059D000B0B504281FD804460320062102F032F98E
:1059E00060000D490C5C08184178204602F02AF945
:1059F0000121A140094842680A43094B1A40446802
:105A0000084D2C40A218426002688A431A4001687F
:105A1000294089180160B0BDDCC500000480004049
:105A2000FF01000000FEFFFF80B504280CD8032210
:105A3000424306488318002901D0591C00E0991CF4
:105A40000978805C02F0FEF880BDC046E6C5000023
:105A500028482949016007490A6801231A430A6056
:105A600000BF00BF0A689A430A6000BF00BF244914
:105A7000016070472C100040B0B5074DA868074C76
:105A8000044008D006484168002901D020468847D4
:105A9000286820432860B0BD5CB00040FFFF7F0055
:105AA0005C080010B0B51349134808601348026839
:105AB00002231A430260124808601249124A8A619E
:105AC000012214020D6825430D600C681C430C6014
:105AD0004B680E4C1C400E4BE3184B600B69134394
:105AE0000B614B6913434B610B6813430B60886177
:105AF000B0BDC046FC1000405A5A5A5A141000401B
:105B00007856341200A000405555AAAA0000F0FFB4
:105B1000FFFF0300002805D41F2108400121814018
:105B2000064801607047C046002805D41F21084080
:105B300001218140014801607047C04680E200E0D9
:105B4000114808210160BFF34F8FBFF36F8F70477B
:105B5000002809D41F210840012181400A48016022
:105B6000BFF34F8FBFF36F8F7047C046002809D433
:105B70001F2108400121814003480160BFF34F8F7E
:105B8000BFF36F8F7047C04680E100E0002805D466
:105B90001F21084001218140064801607047C0462E
:105BA000002805D41F2108400121814001480160DF
:105BB0007047C04600E100E0002805D403220346F8
:105BC00093431A4A9A1806E00F220240083A032328
:105BD0009A43154BD2188007C00E8901C9B2814083
:105BE000FF23834010689843084310607047C04605
:105BF000002805D40322034693430C4A9A1806E072
:105C00000F220240083A03239A43074BD218800719
:105C1000C00E8901C9B28140FF23834010689843B8
:105C2000084310607047C0461CED00E000E400E04F
:105C3000FF20000603490A688243032080071018EA
:105C40000860704720ED00E0BFF34F8F0848094916
:105C50000160BFF34F8F00BFFDE7C046BFF34F8F1A
:105C6000034804490160BFF34F8F00BFFDE7C04602
:105C70000CED00E00400FA0502480068800480147E
:105C80007047C04600700040F0B583B00246002760
:105C90000297019708460838182823D80D46012492
:105CA00021468140104801421CD0EE0802A8009213
:105CB00011463246FEF7D6FA0198029903E06D1EAE
:105CC0007F1C002D08D00A46FA40D207F7D06A1E82
:105CD000234693401843F2E7019001A90098324609
:105CE000FEF7C0FA03B0F0BD0101000110B5742247
:105CF0008A5A0021002A15D0027C002A12D0027C88
:105D000040300023194604E0012144305B1C9342DB
:105D100008D20468002CF7D10446243C2468002CE7
:105D2000F2D1F2E7084610BD7421415A002905D08E
:105D300074304069884201D20020704701207047CA
:105D400010B50A234B43C15C00291BD0C018C17891
:105D5000002908D1C11C03230B70011D0023CA5266
:105D60009B1C062BFBD10321C94343185C891C8172
:105D7000891CFAD1028183784278011D032004F046
:105D800067FD0246104610BDF0B50278002A31D0FA
:105D900002780023002905D118E05B1C934229D228
:105DA000002913D044245C4305196C6A002CF4D0FC
:105DB0002E79002EF1D02D1DE41C2D7800263746BB
:105DC00026700A347F1CAF42FAD3E6E744245C43D2
:105DD00005192C6A002CE5D02E79002EE2D02D1D5D
:105DE000E41C2D780026374626700A347F1CAF420B
:105DF000FAD3D7E7F0BD000070B582B015460E4665
:105E0000044601A80D4901801021FFF73DFF002D38
:105E100010D001A8008831784C406D1E0821012265
:105E200022405242024064085440491EF7D1761C79
:105E30002904F0D16D48A04302B070BD21100000CC
:105E4000F0B581B00446104D104868600027AF607F
:105E50002868052101432960002C0ED00C4EAF604C
:105E60007D20C1003068FEF7D3F90849081A401CAC
:105E7000A9688142FCD8641EF1D1286801218843B9
:105E8000286001B0F0BDC04610E000E0FFFFFF0059
:105E900090000010002802D000BF401EFCD17047C7
:105EA000F0B581B00278002A20D002780092002359
:105EB00003E05B1C009A934218D244245C4305190A
:105EC0006C69002CF5D02E79002EF2D02D1DA41C6B
:105ED0002D780026374603E0A41D7F1CAF42E8D290
:105EE00026800029F8D100226280F5E701B0F0BDDC
:105EF00010B500242046214601F0A4FE01202146D1
:105F000001F0A0FE2046FFF759FB10BD70B582B02E
:105F100005467B20440200206E4608232146324677
:105F200002F0B8FCB21E0121491E501C9278FF2AD3
:105F30000246F9D1002902D00178A94206D0457065
:105F400000206A460823214602F0AAFC02B070BD78
:105F500070B582B00024E043019000902348114EB8
:105F600003223146FFF748FF6D46AC716C71E87053
:105F7000000A2871B078A870307871780902081882
:105F800028807D204602012042022046314602F050
:105F90007BFC0823204631462A4602F081FC02B0F1
:105FA00070BDC046E403001070B582B00024E04329
:105FB000019000900D480E4E02223146FFF71CFF63
:105FC0006D46AC806880308828801F20C602012082
:105FD00042022046314602F057FC08232046314653
:105FE0002A4602F05DFC02B070BDC046FFFF000013
:105FF000E803001080B500F0E5FD80BD80B501F03C
:1060000032F8002080BD000080B51A49012202F05C
:10601000C3FF80BDBF490020C88005220A71086007
:106020001449C880086008715E4A02211170124A42
:106030001080124A10805C4A1070C04A1170B84A31
:106040001080B64A10800E4A10700E4A10700E4A28
:1060500010700E4A1070B04A10700D4A1070B24A9B
:1060600010700C4A1070AF480170B048C089B04938
:1060700008807047EC0100107E09001080090010B4
:106080007A090010790900107B09001078090010C6
:106090007C0900107709001080B59E49002202F0AB
:1060A000A8FF9D480178491C017080BD20280BD1B4
:1060B000252008712420C870232088702220487071
:1060C000212008705420704753207047FEB50C46BD
:1060D0000546344A0127177033480078411F0229CA
:1060E0005DD3022802D0032859D0FEE701AE304626
:1060F000FFF78AFF70780109022926D001290FD005
:10610000002947D10F210840288001A989782170F2
:1061100087423FD201A9C9198978E1557F1CF7E769
:1061200001A98A780007000D80182880CA7822709B
:10613000091D621C0023042B03D0CD5CD5545B1CCD
:10614000F9E71A494618052510E000252E460DE00E
:1061500001A8FFF759FF0220082806D001A9095C11
:10616000AAB2A154401C6D1CF6E7BE1FB7B2072FA0
:10617000EED2002F0ED001A8FFF746FFF0B20021AB
:10618000814207D201AA8A189278ABB2E254491C24
:106190006D1CF5E70020044908700220014A1070C8
:1061A000FEBDC046820900107D090010FBFF000003
:1061B000F0B585B00C46574A0025D580EE490D70E4
:1061C0000527177115605D4B1978012900D19FE0F3
:1061D000072801D201260CE00290401F80B2062160
:1061E000FEF716F8002901D0861C00E0461C029834
:1061F000524BF2B247490989914200D288E047499F
:106200000A8047490D80012100911970D9490D700C
:10621000EF490A7803A90A70C3B206280ED803A969
:106220000546487022788A7001211846814217D2AB
:1062300003AA8A18635C9370491CF7E703A98B7063
:106240002278CA7002900005000F10304870601C60
:10625000042D10D003A94919425D0A716D1CF7E79E
:10626000A81C03A9091800228318082B46D0CC23A8
:106270008B54521CF8E703AD2846FFF70DFFD448B6
:1062800000782870A81C01900298431F009D761E7C
:10629000300636D00F202840203003A948706D1CEE
:1062A000A8B20F2800D9002598B206280BD2029375
:1062B00001990246002A10D0BBB2E35C0B70491C66
:1062C000521E7F1CF6E70220082810D0B9B2615C8C
:1062D00003AA1154401C7F1CF6E701990918801F7E
:1062E000002806D0CC220A70491C401CF8E79B1FEE
:1062F000029303A8FFF7D0FE029BC8E703A8FFF7AD
:10630000CBFE0948012101705448C0890849088022
:1063100005B0F0BDFC010010230A0010260A001091
:10632000240A00101B0200107609001060070010FC
:1063300074090010014800787047C046280A001010
:1063400080B501F0BBFA00F075FE80BD00223C294B
:1063500002D07D2900D00A46411C0078030608D0EF
:106360000B78D21893B2FF2B00D9FF3A491C401E7C
:10637000F4E7FF2090437047014800787047C0461B
:106380003503001080B5054802700548FDF76AFF27
:1063900004480021016000F017FB80BD3C030010A1
:1063A000400300109803001010B50B4841780129F4
:1063B00011D100244470FFF7CBFD0849C820487173
:1063C0000C71F420C870012088704870502008704B
:1063D0000620FFF7EDFE10BDE4030010540300108B
:1063E000F0B581B0044606292AD16578A8083E2870
:1063F00012D81A48407A291D052204E0521E491E6F
:10640000CBB2AB4208D9D3B2E35CFF2BF6D0CBB210
:106410008342F3D901B0F0BD0226904F05E0FF2082
:10642000E9B27854761C062E10D0A05D6D1C0028B1
:10643000F5D0FF28F6D0012100F074FEFF28EFD13F
:106440002078102100F0CEF801B0F0BD20780021B6
:106450000A4600F0D4F801B0F0BDC0466007001055
:10646000F0B583B00446C078217909020F1860792D
:10647000D54D402807D13C484188A94268D0B9424F
:106480003FD1012146E06178A278120251180191B2
:106490000126314600F046FE029033484388AB4265
:1064A00011D06E493246BB4207D1521CD6B273009E
:1064B000C35AAB4207D0BB42F7D08B5D029E9E42CF
:1064C000F3D1FF210291BF49019B591A4A1E914104
:1064D000BB4A12889A1A531E9A41029BFF2B08D07E
:1064E000114006D14188A94232D0B9421CD10121C4
:1064F00023E02048022101701F480021017003B0F1
:10650000F0BD0222D1B24B00C35AAB4220D0521C84
:10651000BB42F7D15148FF224254207800210A465D
:1065200000F06DF803B0F0BD0222D1B24B00C35AA7
:10653000AB420DD0521CBB42F7D1F148029D4554ED
:10654000207800242146224600F059F8002D01D081
:1065500003B0F0BD0548BB214172AA210172044875
:10656000447003B0F0BDC046A2010010C00100108D
:106570008D0700101B020010230A001010B50446FE
:10658000407800281AD1A278501E042816D8217904
:10659000E078022A04D8D04B1B88D200083A05E0E4
:1065A000042A06D8CC4B5B88D200183AD340DAB222
:1065B00001E0C94A12794A40024200D010BD207859
:1065C00000210A4600F01BF860797B49087010BD75
:1065D000B4010010704780B5007800210A4600F031
:1065E0000EF880BD80B59EB06A46917050707F20D5
:1065F000107003201146FFF7DBFD1EB080BD10B503
:106600009EB0144640306A461070002C04D0684694
:10661000401C2246FDF726FE601C80B26946FFF74B
:10662000C7FD1EB010BD0000B0B505466749002487
:10663000CC708C704C706048007808701422204632
:1066400002F038FC0120AE49092202F033FC287820
:1066500021462246FFF7D3FFB0BDC0469801001087
:10666000F0B59FB00024304D304E314F04E0002093
:106670002855641C1B2C52D0285D0028F9D01EA878
:106680006946FFF723FD305D0146B039072915D86B
:106690007944097949008F44091B21272D0330369D
:1066A0001EA90A886946FFF76DFEE0E71EA802886A
:1066B00042480078694600F041F8D8E72F2828D0F2
:1066C0003228EDD11EA801886846FFF783FFCEE788
:1066D0001EA801886846FFF7C3FEC8E71EA8018808
:1066E000684600F075F8C2E71EA801886846FFF703
:1066F00045FFBCE701203870B9E71EA8018868464D
:10670000FFF792FFB3E71EA801886846FFF768FE0F
:10671000ADE71EA801886846FFF75DFFA7E700F018
:1067200009F81FB0F0BDC046700700101CC700007C
:10673000CC03001080B5FFF7FDFD80BDF0B581B042
:106740000C461D4E3178091A4B424B411B490978C2
:106750000F1A7D427D417F3847424741062A17D1B3
:106760002F431F4314D06078A278120212185A489F
:1067700003889A4202D0594B9A4209D1E278237990
:106780001B029A184088824204D00F48824201D0EE
:1067900001B0F0BD31702078002529462A46FFF768
:1067A0002EFF60790949CD708D704D700870307082
:1067B000FFF7ACFB01B0F0BDB4010010BF01001049
:1067C000CCC70000FF7F0000FFFF00008001001029
:1067D000F0B583B004468178C278100240183E4B71
:1067E0001B8898420AD03D4B984207D07548022139
:1067F000017072480021017003B0F0BD6078F32889
:1068000028D1FF2A4DD13F294BD12079022848D1E8
:106810006079032845D87D204702314D022638464D
:106820002946324601F0E2FF60792978814247D15A
:10683000601C009038462946324601F0D7FF267189
:106840000020E070A07060702878607120780522C8
:1068500000993CE0E0210140202928D10025EA43AD
:1068600001A90A710192FFF721FC532825D0542871
:1068700021D101A80078FF2809D101A8401C0021DE
:1068800004291AD04A1C415CFF291146F8D001A8FE
:10689000001D415DFF2916D16D1E691DF9D1002231
:1068A00013E020783121FFF79DFE03B0F0BD207882
:1068B0001221FFF797FE03B0F0BD20781221F2E716
:1068C00020787221EFE7681DC2B2207801A9FFF796
:1068D00096FE03B0F0BDC046CCC70000FF7F0000AD
:1068E000E80300100F49097A054A0B0605D0CBB220
:1068F000D35C491E8342F8D100E0FF21C8B2704743
:10690000980100100648002101700648C088064919
:10691000088006480178FB220A4002707047C04692
:106920001A02001060070010000400105407001045
:10693000B0B50C4605460846FFF7D4FF1749087066
:10694000FC212940042922D10101154A515C012969
:1069500002D0144901220A703D2C0CD03C2C13D1DA
:10696000134903220A7013490A70134902220A715B
:106970001249002204E00C4906220A710B49032245
:106980000A700F4900220A700E4903220A7000F0B3
:10699000B3FE204600F092FFB0BDC046C203001017
:1069A00038C700008C070010FC010010280A0010F6
:1069B000820900107D090010EC010010230A00106C
:1069C000770900101B020010F0B581B07148002655
:1069D0000670714F3C78714D2878012829D1FFF756
:1069E000CBFC6F490978884223D138783E2807D0FC
:1069F000102813D1797880220A43822A13D004E028
:106A0000797880220A43802A0DD0797828280FD1FE
:106A100083290DD1B878032805D009E07978852835
:106A200004D1822902D10120287002E02828EFD069
:106A30002E7020461038752800D97DE04000C046F1
:106A400078448088400087447F0083007D007D007B
:106A500087007D007D007D007D007D007D007D0044
:106A60007D007D007D007D007D007D008B007D0030
:106A70007D007D007D008F0094007D007D007D0005
:106A80007D007D0075007D007D0098007D007D000B
:106A900075007D00750075007D007D007D007D0026
:106AA0007D007D009C007D007D007D007D007D00DF
:106AB0007D007D007D007D007D007D007D007D00EE
:106AC0007D007D007D007D007D007D007D007D00DE
:106AD0007D007D007D007D007D007D007D007D00CE
:106AE0007D007D007D007D007D007D007D007D00BE
:106AF0007D007D007D007D007D007D007D007D00AE
:106B00007D007D007D007D007D007D007D007D009D
:106B10007D007D007D007D007D007D007D007D008D
:106B20007D007D007D007D007D007D007D007D007D
:106B30007D00A0007F2018E0B52C03D103F066FB98
:106B400001B0F0BD112010E003F014FD01B0F0BD64
:106B500003F060FC01B0F0BD03F092FB01B0F0BDAA
:106B600003F030FC01B0F0BD122001F0F5FE01B0E1
:106B7000F0BD03F0B7FA01B0F0BD03F099FC01B02D
:106B8000F0BD03F057FD01B0F0BD03F0DDFB01B037
:106B9000F0BDC046AE0700104003001048080010CA
:106BA000B401001080B54B20020201200021024BED
:106BB00001F0E6FD80BDC046D56B000080B500F059
:106BC00053F980BD10B50024204600F051F920464D
:106BD00010BD0000F0B581B00446400516D5AC48A4
:106BE0000188491C018000F094FA964880899649F2
:106BF0000880B94801780A2903D1FFF783FE01B064
:106C0000F0BD03210170914804210170A00616D542
:106C10008F4802210170B0480078821F022A0ED8E6
:106C2000062802D0072803D10121012001F078FDB8
:106C3000EB480178042000F03FFAFFF763FE2005DF
:106C400005D5012001F079FDE14804210170E04FF4
:106C5000600721D5387804281ED1012500216E4611
:106C60002846324601F0A8FD3078294600F05AFA4D
:106C70000146DB480170EB48009A0270FF2942D0C0
:106C8000002000F019FAE648007840006D494018ED
:106C9000801E0088CF490880E0076AD001256A4637
:106CA0002846294601F088FD38780A283BD0062876
:106CB0005FD1834801684A1C026000984870E5482B
:106CC0000078DB4E3178814250D1012502212846DF
:106CD00001F026FDD3480178D3480068FFF736FB62
:106CE00069460978884232D109203870BB4801785A
:106CF00029430170BA480178022000F0DDF93878A4
:106D00000A2831D132E0B44903200870B3490A7827
:106D1000402313430B70FF2100F0CEF9FFF7F2FD83
:106D2000E007BBD125E06846007801010009401862
:106D300008214140C8B208281BD88540FF20D23026
:106D4000054216D0FFF7DEFDE00514D425E0A24889
:106D500004210170A148017812220A430270A04860
:106D60000178052000F0A8F9FFF7CCFD3078401C31
:106D70003070E00511D5387807280ED10920387019
:106D800096490A78012002430A709549097800F073
:106D900093F900F089FAFFF7B5FD600410D5387853
:106DA00007280DD18C48082101700120014601F00F
:106DB000B7FC8B480178062000F07EF9FFF7A2FDB2
:106DC000A0051ED5387807281BD1B0480078984D0B
:106DD0002A78824215D880490B78082B02D109788D
:106DE00002290ED0904909685118491C861A052EAF
:106DF00000DB0426F2B2012001F0EDFC28788019B6
:106E00002870E00407D420070CD460060FD42006B5
:106E100012D401B0F0BD704801210170FFF772FD7E
:106E20002007F2D56C48032101706006EFD56A484F
:106E3000052101702006ECD567480621017001B0DC
:106E4000F0BDC046A8C70000C403001054070010DE
:106E50008B07001080B500F01DF8002080BD0000F9
:106E6000724800787047C04680B5FFF74BFD80BD83
:106E700080B56D488549016000F00AF9FFF792FE80
:106E8000FFF740FD80BDC046014800887047C046FE
:106E9000A607001080B503466548002101707B48B5
:106EA000037061480068064908605E490978421C21
:106EB000012001F08CFC5D480621017080BDC046B8
:106EC0004C08001003480121017058480A21017044
:106ED0007047C0469B0700101A020010B0B5364834
:106EE0000178022906D135490A88521E0A80110408
:106EF0000ED00178012917D130490A88521E0A8024
:106F0000110411D12E4904220A70C749032206E058
:106F10002D4905220A70C44903230B702B490A70BE
:106F20000021017027480170404C2078082816D8AD
:106F30000121814067229200114206D02948018830
:106F400000290DD0491E0180B0BD00280BD00628B5
:106F500005D12048018800290CD0491E0180B0BD10
:106F6000FFF7D0FCB0BD204D2888002819D0401E66
:106F70002880B0BD2E48007800280BD01649072085
:106F8000087016490A78022313430B7014490978D4
:106F900000F092F80120022101F0C2FBFFF7B2FCE1
:106FA000B0BD0820FF2100F087F80A202070DB48E0
:106FB000C0882880B0BDC046760900107409001052
:106FC000280A0010770900107D09001082090010BE
:106FD0001A020010500800108B0700105407001010
:106FE00034030010C40300100004001010B5D74C87
:106FF00023780C4801780C480068421C012001F0FD
:10700000EEFB002809D009480721017020780428E8
:1070100000D304200649087010BDFFF773FC10BDB3
:107020009C07001018020010540800101A020010EB
:107030002C03001080B5FFF745FF80BD80B5082800
:1070400001D9052080BDC1490870FFF7CFFF00209E
:1070500080BDC0469C07001080B50120082100F0CB
:107060000BFF80BD704780B5FFF7FCFF80BD0000BF
:10707000B0B504460025294600F0DCF82046294634
:1070800000F050F8B1494870B0BDC0469C070010F0
:10709000A2480649C1601B21817205490181054949
:1070A0004B221202026041607047C0461400E803A0
:1070B00007050000E803881380B5082826D8820059
:1070C00001A39A589746C046ED700000FD7000007D
:1070D000F57000000D7100000D7100000D710000D1
:1070E0000D7100000D71000005710000084600F0F0
:1070F0003DF880BD084600F027FB80BD084600F043
:107100005DFB80BD0846FFF71BF980BDFFF710FC53
:1071100080BD704780B5FEF771FFFEF76BFFFEF78D
:1071200079FF80BD70B5820843085A400409624067
:107130004240D207520EC50846096E405E40664086
:10714000F343DB019B18FF22D2431A43012906D1E6
:1071500042401106890F04D00020C04303E01043D1
:1071600001E03F210840C0B270BD0000FEB5FFF74E
:10717000B9FB48490870FF2841D002014648815CAC
:10718000851801292ED10095E9680191097802AA94
:107190001170117809014118CD8811780901401842
:1071A000067A00200746B74215D2A9B21F4A515CA1
:1071B000FF290DD0019800781D49401844782046D9
:1071C000FFF790FB334908702046FFF751FF02207C
:1071D0006D1C7F1CE7E7C0B20228009D20D001286B
:1071E00010D00CE0A87801280CD100290ED0D34C87
:1071F0002078002803D0D348007803280BD1FFF76C
:10720000DDFCFEBD6878FFF725FEFEBD00200146CF
:1072100000F010F804E000F087F82078401E20709D
:107220006878FFF70BFFFEBD1B020010B5010010D0
:1072300098010010F0B5174804782001164A12187A
:107240005378BD480370928800290AD00121134C5D
:10725000CDB2AB421CD3455D96B2A555521C491C1C
:10726000F6E70F490D5D01240E4EE7B2DBB2BB42DB
:107270000ED37B1E2946D940C90701D0F35C02E03A
:1072800091B2064B5B5CC355521C641C0378ECE75F
:10729000F0BDC046C203001038C70000C001001096
:1072A00094070010240300107047000070B5A64832
:1072B000C1680088C200885C7E280AD1A1480221EA
:1072C00001709F4800210170A4480170A24801701C
:1072D00070BD89184A78F0231340102B01D0022288
:1072E00000E003228C5C9B4DA97A00260C4AB14237
:1072F0000DD0935DA34201D0761CF8E70949012225
:107300008A5501F057FBF0B2A97A814204D10021DD
:107310001122204600F026F970BDC046600700101B
:107320001CC70000700700101CB56846EA4900241D
:10733000224601F031FE8048082C05D001196A462A
:10734000125D4A70641CF7E71CBDC0469C07001024
:10735000F8B57948437881780A09012A03D0002AD0
:1073600003D1C47802E0047900E0FF245DB27D2DF2
:1073700009DCD24D2D789D4205D0CF4D2D789D4210
:1073800067D1B02C65D16E4E3578022D04D17E2B9D
:1073900017D16C4C247805E06A4C2478042D0BD16D
:1073A0007E2B09D1002C07D1CD4802210170CF4896
:1073B000C089CF490880F8BD022A17D1032C15D106
:1073C000ACE0604D00242C70C34DEC802C60052790
:1073D0002F71BD4DEC802C602C71C04D02272F7099
:1073E0005A4D2C705A4D2F70BE4D2C707E2B01D0F3
:1073F000042300E006233370C378022908D13E2B12
:1074000006D10479802C03D1554800210160F8BDD4
:10741000022A56D0012A20D0002A7FD10F22114003
:1074200006294BD8AE4900220A70484902250D7042
:10743000444901240C70A449CA800A600A71401CA6
:10744000224601F0D6FD4548047043480470307868
:107450006CE0A44800210170F8BD0907090DCF18A0
:10746000072F2BD3A14A9189062461438F4225D24D
:107470009B4902230B7094490025CD800D600D714E
:10748000D2899B4B1A80401C0122009201F0B1FD71
:107490003148009901702B4805707D1FA8B2214624
:1074A000FCF7B6FE4443291B090400D0401C2B49BD
:1074B00008703078062831D0042000E000203070B9
:1074C000F8BDE04C02252570DF4AD289DF4B1A80D7
:1074D0000F221140204A1378994203D10F2909D075
:1074E000491C08E01A480621017018480170002064
:1074F0002070F8BD00211170184F3978491E39707D
:10750000401C71490124224601F073FD30780628A1
:1075100001D0042131703978002900D0F8BD002154
:10752000C84A117009490D70CA490C70062800D06C
:107530003570FFF7BBFEF8BD9C070010230A001052
:10754000770900101B020010EC0100107D090010EB
:107550008209001060070010780900107C090010F3
:1075600098030010F0B585B003AFFF23FB71BB712A
:107570007B713A71F8707F24BC7003257D704E4C8E
:107580002478B028264601D04C4E36783E7001292A
:107590005ED10146B0390B295AD8C04679440979E1
:1075A00049008F4437550D4755554B4F55550505E7
:1075B00003A90B71CB7001224A704030887047E0FC
:1075C00003A8F221817006214170002A62D0E020D8
:1075D000104020283CD10020C04301AC2071019014
:1075E00010462146FEF762FD03A80199C17061783B
:1075F0000171A1784171E17881710299C171042012
:1076000041B2002924D4C1B201AA515CFF294ED154
:10761000401EF5E703A803712A494180012141700A
:1076200004702948C1680088C0000818C07923493F
:1076300008700DE003A80371214906E003A8037157
:10764000224902E003A803712149418001214170D0
:1076500021480121C180057100220260082A08D05A
:1076600003AB9B5CC4680588ED006419A354521CED
:10767000F4E7734A1180764A1170724A1170194A00
:1076800011704088184908806F48C0896F49088088
:1076900005B0F0BD0F48017903AAD171418851713D
:1076A0000088D070090A9171000A1071D0E7801C1F
:1076B00003A94870CCE7C046BF010010B401001018
:1076C000F3FF0000F0FF0000EC010010F6FF0000E7
:1076D000F7FF0000CCC70000FC010010280A0010D2
:1076E00076090010230A0010240A00106007001019
:1076F0007409001070470000F8B500016C49085C7F
:10770000012800D1F8BD0C48007880490978009123
:107710000A4A0B4B0B4C0028F4D015780126AE40DA
:107720001F88E15DB143009EAE400E43E6559B1CB1
:10773000521C401EEFE7C046CAC70000E801001017
:10774000EA010010C0010010F8B500906E48012752
:107750000770584C20780101554A505C51180D7A39
:10776000CE88112806D0002806D100200121FFF77D
:1077700061FD01E000F012F820782F490F5400203D
:107780004D49A84205D2B2B2FF238B54401C761C4F
:10779000F7E7009800F092F8F8BDC04680B50648BB
:1077A0004078002802D0FFF7D3FD80BD5848012162
:1077B0000170FFF73FFC80BD9C070010F8B5044640
:1077C0005148012505703B4E37782046FFF78AF86F
:1077D000307000F043F8307817490D543901344ABD
:1077E0005118C968002909D0144A127809789142C1
:1077F00004D1464900220A70FFF77EFF204600F0C0
:107800005DF83D2C17D10E480188491E01800804FF
:1078100007D00C4805700C48C0890C49088002202C
:1078200007E00B4802210170064A00201070094A47
:10783000117009490870F8BD8D0700105808001034
:10784000260A001076090010600700107409001065
:10785000280A00101B02001077090010B0B50101C2
:107860001348425C112A22D0012A13D11149097808
:1078700009014118C968097809014118087AC988BD
:1078800000220D4B824212D28CB2FF251D55521C94
:10789000491CF7E74118087AC9880022064B824242
:1078A00005D28CB2FF251D55521C491CF7E7B0BD0F
:1078B00038C70000C2030010B501001070B51149AF
:1078C0000B8803241C40104A1578104E367802D0DD
:1078D00034462C43A40034436D0025430C4C2478DB
:1078E000E6002E430B4C2478A40134431C43FF28AC
:1078F00004D00002E3B218181024044300201070D2
:107900000C8070BDAA070010A90700108C0700109A
:107910009B070010A807001008180349884201D3EC
:10792000002070470120704701000100F0B581B0D0
:107930000027FE43002829D114460D46084611466B
:10794000FFF7EAFF002821D07748784EC15D491E35
:10795000F1557F1C382FF9D13620FF213154B177F2
:1079600072B6734F734838600120000672490A6886
:1079700082430A602846214600F00CF8C54838606A
:1079800062B638213046FCF786FC0026304601B04E
:10799000F0BDC046F0B581B0451800F08CF8044643
:1079A000681E00F088F8A54D2968102200929143C6
:1079B0002960401C87B2BC420ED20A4E7F2021466D
:1079C00001402A460C3A1368834358181060306807
:1079D0008047641CA742F1D12868009908432860B9
:1079E00001B0F0BD7C010010F0B581B01D46164617
:1079F0000F4608461946FFF78FFF0024002805D0E0
:107A0000384631462A4600F005F800E0E4432046B7
:107A100001B0F0BDF0B587B017460C46054603200F
:107A2000284010D0291A0A6849680591049204A9CF
:107A300009180822161ABE4200D33E462046324696
:107A4000FCF710FC00E00026B81B072202400828C3
:107A500024D3811A22D000920295721903940196C0
:107A6000A7190023D458D5186D6805950494FC54C3
:107A7000FE18280EF071280CB071280A707135714B
:107A8000200EF070200CB070200A707008338B420A
:107A9000E8D3019EF618039C029D009A002A08D0A4
:107AA00070597119496805910490A01904A9FCF74F
:107AB000D9FB07B0F0BD400A80B27047F0B581B085
:107AC0000025EF4300282BD11C460E4600920846A5
:107AD0001946FFF721FF002822D01348134F415DBC
:107AE000491E79556D1C382DF9D13620FF213954A6
:107AF000B97772B60E4D0F482860012000060E4976
:107B00000A6882430A6030460099224600F016F85F
:107B10006048286062B638213846FCF7BCFB002775
:107B2000384601B0F0BDC046F5C5000000000010A9
:107B3000F800FF0055AA55AA1C00FF00F0B58BB055
:107B4000174605463D4B1868102206929043186070
:107B500003232B400024E243002B05950497039256
:107B60001AD008920992ED1A28686A68099208905A
:107B700008AEF0180822D41ABC4200D33C46224674
:107B80000F46FCF76FFB2E480268284631469047A7
:107B90003946049F059D039A3E1B07203040082E5E
:107BA000234632D3361A30D00090581907900291EC
:107BB0000193CD180027E85DE9194A7812021018E0
:107BC0008A78CB781B029A18120410188A79CB791C
:107BD0000C794979089008020019190289180904DA
:107BE000081809900798C01915490A6808A990470C
:107BF0000837B742DFD3019BDB19104E059D02AF5A
:107C000086CF0098002803D111E00C4E00280ED03A
:107C1000089209920246381A091808AC20461F46F5
:107C2000FCF720FB781906490A682146904730681E
:107C30000699084330600BB0F0BDC0462800FF0035
:107C400094010010B0B50C463D4D062800D20C350D
:107C50000621FCF7DDFA88002958072291432143C9
:107C60002950B0BD08480949016009490A68042340
:107C700013430B600A6802231A430A604A681A43D6
:107C80004A60044901607047FC1000405A5A5A5A31
:107C90002410004078563412F0B581B004460078C4
:107CA000274E062800D20C36FFF7DCFF61787148BA
:107CB000244F02290ED3891E012916D821787A680B
:107CC0007B68574D1D4001238B40134303405919D6
:107CD00079600AE021783A683B68514D1D400123E4
:107CE0008B40134303405919396022790721114011
:107CF000A278012A03D0022A02D1403100E02031CB
:107D0000E278D207D70E0F43617802220A43032A92
:107D100001D1401C0743257806212846FCF778FA54
:107D2000880037506079002807D0294600F00CF809
:107D30000020C04303498860C86101B0F0BDC0465F
:107D40000020004008800040B0B5401E04284ED8F6
:107D5000784400794000874402151B2A3E00012028
:107D60008840EA498143224802680A400368EA4C95
:107D700023409A18026042680A40416821408918ED
:107D80004160B0BD01228A4019480168914313E067
:107D900001228A40164801681143DC4B19400468EF
:107DA000DD4D2C4061180160416891430DE00122D6
:107DB0008A400F4801681143D44B19400468D64DDE
:107DC0002C406118016041681143194042682A4003
:107DD00051184160B0BD0120884005490A6902433D
:107DE000CA4810400A69CC4B134018180861B0BD4E
:107DF0001880004010B50123834008480268C34C36
:107E0000002902D01A43224001E09C43224001682D
:107E1000C14B0B409918016010BDC0460480004062
:107E200000FEFFFF421E012A01D9012070470128F0
:107E300001D0054800E003480068B44A02400A60E7
:107E4000002070472C6000402CB00040421E012AE8
:107E500001D901207047012801D0054800E00348FE
:107E60000068AA4A02400A6000207047146000407F
:107E700014B00040FF010000421E012A01D9012078
:107E80007047012801D0A34800E0A1488269054B52
:107E9000134059188161816810220A4382600020D2
:107EA0007047C04600FCFFFF421E012A01D9012095
:107EB0007047012801D0CF4800E0CD480268012377
:107EC0009A435118016000207047C046421E012AA3
:107ED00001D901207047012803D105480068C0B2CC
:107EE00001E00248006808700020704730B0004090
:107EF0003060004002460120022A0DD8002A0BD033
:107F0000002909D0012A03D105480068C0B201E068
:107F100002480068087000207047C04604B0004066
:107F20000460004010B50121022815D8002813D0A4
:107F3000002A11D0002B0FD0012801D0AD4A00E05B
:107F4000AB4A136802218B431360136804241C435B
:107F5000146000F001FA0021084610BD10B5024679
:107F6000401E012801D9012010BD0020012A08D19E
:107F70000F221203694B1C6894430907090C61180E
:107F8000196010BDF0B581B00E460121022853D80A
:107F9000002851D01446002A4ED01D46002B4BD04D
:107FA000642100BF491EFCD1012801D0DA4F00E056
:107FB000D84F796E890637D4B9680222009291436E
:107FC000B960012100F0C8F930463C38411E8841B3
:107FD0007D3E711E8E410640B001B968402291433A
:107FE0000818B8600F200004B96881432807000B07
:107FF0000818B860B86800990843B860042D00D329
:1080000004250021002D17D00846BA6A5207FCD477
:10801000615C3A68FF239A4351183960401CC1B231
:108020008D42F2D8002107E0F96D20220A43FA655B
:108030000C2100F091F90421084601B0F0BDC046C2
:10804000F0B581B0022801D9012559E00D4604465A
:10805000002820D05848012C00D0143000680006B9
:10806000000F411C2848FCF7D3F806093046294682
:10807000FCF7CEF8074628467843301A0001294617
:10808000FCF7C6F80007000C204939404118012CC4
:1080900011D0EC4810E000F071FF2946FCF7B8F869
:1080A0001F490A681F4B1340401E1F4A0240981880
:1080B0000860002524E0E2484161426A1649114007
:1080C000164E814A95420DD3082211434162002584
:1080D000856320462946FFF741FF306840218843E9
:1080E00030600DE0C8221143416207218163032102
:1080F0002046FFF733FF30684021014331600025FF
:10810000284601B0F0BDC046006CDC02FF01000053
:108110000060004000B0004000FEFFFF2CF0004077
:108120000440004000C0FFFFFF3F000010B5E64ADA
:10813000E64B136002280AD0012821D0002837D14D
:108140001D481038016802230B43036030E01A48D1
:1081500043690124234343614369A3434361436962
:1081600002241C434461436904241C43446149784C
:108170004369F024A3430907090E5918416117E028
:108180000D4803680124234303600368A34303608D
:10819000036802241C430460036804241C43046035
:1081A00049780368F024A3430907090E59180160B0
:1081B000E648106010BDC04620100040B0B5002851
:1081C00015D00C460546032100F0C6F8012D06D057
:1081D0000848012C06D10849022C06D006E00448C4
:1081E000012CF8D00549022C00D107210160B0BD57
:1081F0000860004008B00040ED830860ED81086031
:1082000010B502281BD808D001280DD0002816D19F
:1082100002200121FFF716FD10BD03200524214691
:10822000FFF710FD042007E0022908D107200224EF
:108230002146FFF707FD08202146FFF703FD10BD8B
:1082400070B514460E460546097BFFF7D9FF284650
:108250003146FFF76BFF31692846FFF7F1FE002D2D
:1082600030D0012D01D0774800E07548327BC168DD
:10827000022A07D101221143C160C168042291433F
:10828000C16009E001229143C160317B012903D122
:10829000510372680A437260C16908220A43C261CD
:1082A00030690949884204D3012080037168814301
:1082B0007160317B2846FFF781FF311D2846224639
:1082C00000F004F870BDC046014B0000B0B50128B5
:1082D00001D05C4B00E05A4BDD6D104C2543DD6551
:1082E0004D79002D0DD00D6825401C6EAC431C66E9
:1082F00083000B4C1B191B1F1A60012805D00A2094
:1083000004E0186E20431866B0BD05200979FDF71A
:108310006FFCB0BD0060004000B00040FFFF7F0078
:108320005C080010B0B50C46411E012901D901209E
:10833000B0BD012801D00A2500E005252846FDF73B
:10834000F3FB2846002C03D0FDF72AFC0020B0BD2B
:10835000FDF70CFC0020B0BD00281AD0002918D071
:10836000012803D03748CA0703D107E03448CA07B9
:1083700004D0012252068368134383608A0709D41C
:108380004A070ED4090704D50121090682680A4369
:1083900082607047012292068368134383604A0714
:1083A000F0D50122D2058368134383600907F0D515
:1083B000EAE7C046F0B582B00192012302283AD81C
:1083C0000A46002937D00199002934D000231B4CDC
:1083D0001B4D1C4E0092002806D11FE05B1C01992A
:1083E0008B4227D0002819D001280CD00228F5D1C3
:1083F000B16A4907FCD4D15C3268FF27BA435118EF
:10840000009A3160EAE7A96A4907FCD4D15C2A687E
:10841000FF27BA435118009A2960DFE7A768FF07D2
:10842000FCD10099CA5C2168FF27B9438918009ADA
:108430002160D3E70023184602B0F0BD00400040A1
:108440000060004000B00040064A53680343536098
:10845000002903D0116881431160704711680143FE
:108460001160704728C00040014909680840704702
:1084700030C0004010B5074A1368074C1C40000A82
:108480000001201810601068012398434018106004
:1084900010BDC046040000400F0000F080B5FDF79D
:1084A0004FFB09480949016009490A6801231A4339
:1084B0000A6000BF00BF0A689A430A6000BF00BF9D
:1084C0002249016080BDC046FC1000405A5A5A5AE9
:1084D0000C100040B0B50E4B1C680225AC43C00721
:1084E000800F201818601868F024A0430907090EAF
:1084F0004018186003200002196881439007800D1E
:10850000081818601868012101431960B0BDC04601
:1085100038C0004005490C4A8A610A6801239A4321
:1085200010180860094888617047C04600A00040E4
:10853000044805498160016801220A430260034939
:108540008160704710A000405555AAAA7856341291
:10855000F0B581B00278002A20D002780092002382
:1085600003E05B1C009A934218D244245C43051933
:10857000AC6A002CF5D02E79002EF2D02D1DA41C53
:108580002D780026374603E0A41D7F1CAF42E8D2B9
:1085900026800029F8D100226280F5E701B0F0BD05
:1085A000F0B583B00190007800283CD001980078A5
:1085B0000090002303E05B1C0098834233D24420E8
:1085C0005843019A1518AA69281D0290002A13D051
:1085D00002980478002C0FD0961D0298077800248A
:1085E000224603E00A36521CBA4205D234800029E2
:1085F000F8D100207080F5E7EA69002ADBD0029804
:1086000000780028D7D0951D0298047800221046E3
:1086100003E00A35401CA042CDD22A800029F8D1BF
:1086200000266E80F5E703B0F0BD0000F0B585B020
:108630000F467821795A3E4678360029029010D0AC
:1086400000243481017C00290CD000221446757A64
:10865000384601F010F80298327A017C8A42F5D34C
:1086600001E00024254675723472017C8C4253D29D
:108670003546014610310391284E019718E06A7A79
:10868000297A039C204600F0BDF9F96938468847ED
:10869000287A049941436018808FFDF7FBFB019F06
:1086A000384600F0E8FF2C7A0298017C8C4233D2E5
:1086B0006A7A0C21514344220492544302461432F4
:1086C0001019144642685118076CFA6838469047EA
:1086D0006A7A297A039800F0A6F9287A049948431F
:1086E00020188068002806D0697A0A224A43811837
:1086F0003A6938469047002438462146FDF766F926
:10870000BB6901223846214698477868B442B6D8FA
:10871000641C0028F9D0B2E705B0F0BDFEFF0000F0
:1087200080B50A46012111404B42052119409207AC
:1087300000D50A31FFF710FE80BD10B582B00124CC
:1087400001A92046FFF782FB69462046FFF76AFB36
:1087500000980199441A00D20C1A0E204843642153
:10876000FBF756FD844208D9012400212046FFF77B
:108770009BFB20462146FFF797FB02B010BD00008F
:10878000B0B586B0044601AD00202880FF2004303B
:108790002881481E8141297305920648029020468F
:1087A00029461A46FFF74CFD01212046FFF7BAFD86
:1087B00006B0B0BD2D5F000080B5002903D0114682
:1087C000FFF798FB80BD1146FFF780FB80BD80B5A9
:1087D000FFF7A8FB80BD80B5FFF7ECFD80BD80B53D
:1087E000FFF7D0FB4142484180BD0000F0B587B0A3
:1087F00014460D460746101806A9042200F00CFA8C
:108800000020002C06461CD00190029504970027FA
:108810003E4603940498381805AD012429462246A3
:1088200000F0FAF91748B04329462246039CFDF7A9
:10883000E3FA0646781C87B2A742EBD3029D049F59
:1088400001980699B14205D138462946224600F0E2
:10885000E3F9012007B0F0BD70B582B014460D46B3
:1088600006460848FDF7C8FA0190304629462246D8
:1088700000F028FAA01901A9042200F023FA02B09E
:1088800070BDC046FFFF000080B5FFF74FF84142C2
:10889000484180BD80B5FFF7A7F84142484180BDFF
:1088A00080B5FFF70BF94142484180BDF0B581B07A
:1088B0001C4617460D46803400290AD021784422F0
:1088C0004A43B918C96B002903D062789200895ACB
:1088D00008182178442671437918002D01D13431CC
:1088E00000E030310B68002B04D0617802B21846EA
:1088F000FDF726FA21787143009779188F6B002FC6
:1089000006D06B426B41617802B2384603F034FD09
:1089100021787143009A51184F6A002F06D06B429C
:108920006B41617802B2384603F003FD21784E4373
:1089300000998919002D01D12C3100E028310E68F1
:10894000002E06D06B426B41617802B2304603F0D4
:108950003BFD00B201B0F0BD80B515497F220A7021
:108960008870124800784870FDF7E4FC022803D0B4
:10897000FDF7E0FC042803D103200D49FDF718FCA6
:1089800080BDC04610B5044608480078403008490C
:108990000870FDF7CFFC022803D0FDF7CBFC0428BC
:1089A00003D103492046FDF703FC10BD400300102E
:1089B00054030010014908707047C0463503001089
:1089C000F0B581B00D460646802100206852317C0A
:1089D000002915D0144610362F46803708E000F0E5
:1089E00011F8284600F047FE38783178884207D2DF
:1089F0007A78C1B23046002CF1D000F014F8F0E7DC
:108A000001B0F0BD80B544234B43C018416BD14049
:108A1000C90707D00C2151438268515C406C4369FF
:108A20000022984780BD80B544234B43C018416B5A
:108A3000002907D00C2151438268515C406C436986
:108A40000122984780BDF0B581B00D4606468021D1
:108A500000206852317C002915D0144610362F466C
:108A6000803708E000F011F8284600F004FE38785E
:108A70003178884207D27A78C1B23046002CF1D0E2
:108A800000F014F8F0E701B0F0BD80B544234B438B
:108A9000C018816BD140C90707D00C2151438268AF
:108AA000515C406C43690022984780BD80B54423E7
:108AB0004B43C018816B002907D00C2151438268B9
:108AC000515C406C43690122984780BDF0B585B088
:108AD00078228A5A04910B467833002A0290039335
:108AE00027D000241C81017C00292746024623D080
:108AF000002528462C4607E02C46039B1D7A029A47
:108B0000107C8542384617D20190E8B24421414397
:108B1000104610304018066B5F7A049800F0ABFDE9
:108B2000FE400120304000D0019F0028E4D02546BF
:108B3000E2E70024274602465F721C72E0B2117C15
:108B4000884261D2174616461036304D009607E02F
:108B5000049800F090FD039B1C7A3078844253D235
:108B6000E0B24424604339180A6C597ACA40D207EB
:108B7000EED10C224A4301943C461434201841683B
:108B80008918076CFA6838461E469047727A317A1F
:108B90000098FFF78BFF307A0199484321188968C4
:108BA000002909D0717A0A224A4302990818006AFA
:108BB00081183A6938469047002438462146FCF728
:108BC00005FFBB6901223846214698477868AC42C8
:108BD00002D8641C0028F9D0039C627A217A009E96
:108BE0003046FFF752FFF96938468847207A0199E5
:108BF0004143029F78184C21405AFDF74BF90498E5
:108C000000F039FD2346A7E705B0F0BDFEFF0000E8
:108C100080B500F035F980BDF0B587B016460391F8
:108C200005460724044016D02D1B0020019604AEF3
:108C30000827294632463B46FFF72CFE3119019E94
:108C40003C1BB44236D203982246FBF70BFB02943E
:108C5000361B083501E000200290B7B2002F2DD05E
:108C6000002413E00499059A02710170130EC37178
:108C7000130C8371120A42710A0EC2700A0C8270C0
:108C8000090A4170ACB2BC42354617D22E46611972
:108C9000002004AA0823FFF7FDFD0298201803997D
:108CA000081825460835BD42DCD33A1B04A9FBF75A
:108CB000D9FAE7E703983246FBF7D4FA012007B068
:108CC000F0BD0000F0B593B0099208910B903F20E1
:108CD0008102012007904202002630460E910D923B
:108CE000FFF7D2FD002800D1C3E009980B99401886
:108CF0000A90624808400C9000273D460C984119A4
:108D00000FAA10233846FFF7C5FD002800D1AFE0B9
:108D10000E98291800260FAA10233046FFF7C0FD31
:108D2000002800D1A5E010350D988542E6D3002635
:108D300030460C990D9AFFF7A7FD002800D198E066
:108D40000A980C99471A0B9A891A089803914018A7
:108D500002901F200590C143500A0491484300012E
:108D60000FA908188618002506950E9829180FAA2D
:108D700010230698FFF78EFD00287DD00C9844192B
:108D80000A98A0425AD9204610300B99884255D9EA
:108D90000B998C4208D80A99884205D20398421947
:108DA00010323046089947E00A9988420AD90A9950
:108DB000A14207D90B998C4204D3029841190FA8FC
:108DC0003A4639E00B998C4233D30A99884230D81D
:108DD0000196029E7019017B427B12025118827B20
:108DE000C37B1B029A18120451181291017A427A1D
:108DF00012025118827AC37A1B029A18120451186F
:108E0000119101794279120251188279C3791B02BA
:108E10009A18120451181091715D019E4278120245
:108E200051188278C07800028018000440180F9012
:108E300004E030460899099AFBF714FA21463C46AB
:108E4000374600260FAA10233046FFF729FD0028D9
:108E50000FD0103504980001C01905990901461872
:108E60002746103F0D98854200D27EE7079E00E01E
:108E70003E46304613B0F0BD069EFAE700FEFFFF07
:108E8000B0B51F20C00209490222FFF7C5FE7D20B0
:108E90004002074C032521462A46FFF7BDFE01F09C
:108EA00009FAA078042800D3A570B0BDE80300102B
:108EB000E403001080B58000034B18587D235B024B
:108EC000C018FFF7C9FC80BDE4C70000084841682E
:108ED0000122114341607021C94343680B40436044
:108EE00003681343036002680A4002607047C0468B
:108EF00014C0004080B507490868C00702D07D2033
:108F0000000200E0044809680906090F491CFBF744
:108F10007FF980BD00100040006CDC0210B5F848FD
:108F2000154901601B490A6807239A430A600A68C9
:108F3000082313430B600223DA438C6814408C60CF
:108F4000CC681440CC600C691C430C614B69134025
:108F50004B618B6913408B61CB691340CB618B6A8A
:108F600013408B62CB6A1340CB620B6B13400B63D5
:108F7000E649016010BDC0465A5A5A5A10B5054814
:108F80000068072101404C1CFFF7B4FF2146FBF7A6
:108F90003FF910BD04100040B0B50B79002B24D070
:108FA000052B22D0CB680C88E4001B190024082C68
:108FB00003D01D5D0555641CF9E7C888401EC880B4
:108FC000000403D0002A05D0012004E0002A0DD0BF
:108FD00000200CE00420087108880A89521E824291
:108FE00001D1002000E0401C0880B0BD05200871C0
:108FF000B0BDB0B50C79CB68052C03D0032C22D0C2
:10900000002C03D1002A09D0012208E00C894A88EB
:10901000521CA24200D100224A8001E004220A71BF
:109020000022082A06D0845C4D88ED005D19AC54FE
:10903000521CF6E7C888401CC8800A8980B290425A
:1090400001D303200871B0BDB348016802229143E7
:109050000160AF480168102291430160016801225C
:10906000914301607047C0460E490A6802600A6970
:1090700001239A4342604A6982608A69C260CA6970
:109080000261896B416170470168064A116041685D
:10909000116181685161C16891610169D161406963
:1090A0009063704708700040F0B581B004460068D6
:1090B00097490A6810239A430A602C21465C032EC4
:1090C00001D0012000E002200025114A11492B4661
:1090D00017688D4204D00F252F405D1C8742F6D3C0
:1090E0008B420AD0FCF7C8FD0546032E06D1FCF7DB
:1090F000C3FD281A0849451800E00025FFF7A4FF22
:1091000000212046FCF762FC28B201B0F0BDC04649
:1091100004700040FFFF00009A190000F0B587B00E
:109120000268764801680125294301607448754941
:1091300001600446744F38692843386100BF00BF9E
:10914000E943029138690840386100BF00BF3869BF
:1091500002210691084338613869042104910843CB
:1091600038611646134622367078F021CA430192C0
:10917000396911400007000E081838616348206003
:109180006348014610390022D2430A606A02039202
:1091900001681143016001685E4A0A4302602902C6
:1091A00002688A430260016880220A430260016803
:1091B0004022914301601C460593198C4268DA4BAA
:1091C000134009050909C91841602220205CFBF7FA
:1091D00017FC2846FBF708FC494B4A4818603868DA
:1091E0002843386000BF00BF3868029908403860E3
:1091F00000BF00BF3868069908433860B078396806
:10920000019A11400007000E081838603868049A67
:10921000104338603D4818603F4801683F4B0B40A1
:10922000E90502915918016007210B0307689F4364
:109230002B03FB1803600B0207689F43039BFB187B
:109240000360F3780768C024A7439B071B0EFB1835
:109250000360337904680827BC43DB071B0FE3185E
:1092600003600368069CA3430360036893430360A1
:109270006B0744689C4344602B0744689C434460EC
:109280002B0644689C4344604368029A93434360BE
:109290000A05436893434360090442688A43426075
:1092A000717903229203436893438907090CC91813
:1092B000416041680E220A4311218A434260B1791C
:1092C0007F221204836893434906490AC9188160C2
:1092D000059C618D924A0A408168114B0B40991898
:1092E0008160016820220A43026020463030FFF787
:1092F000BBFE0520FBF7B2FB07B0F0BD48C0004045
:10930000FC1000405A5A5A5A1C1000407856341229
:10931000149000400000F0FF18700040FFFF00FCB8
:1093200000F0FFFFF0B581B08A7805682C202A5440
:109330000A783B4804460C3C23687026B343520726
:10934000520E9A1822604E780822D34300930246A8
:10935000083A17681F40F607360FBE1916608E7858
:10936000176806239F43B3075B0FFB1813602C3568
:10937000CB786B7013681025AB4313604B790725CE
:109380002E032768B7435B075B0CDB1923600B795F
:109390002D022668AE435B075B0D9B1923608B791A
:1093A00014682025AC43DB079B0EE3181360CB79D0
:1093B000FF2425060668AE431B06F31803604B7AAC
:1093C00025040668AE431B04F3180360CB7A24021D
:1093D0000568A5431B02EB1803600B7A0468009D27
:1093E0002C40DB071B0FE31803608B7A046804250D
:1093F000AC43DB075B0FE318036003680224A3435D
:1094000003608C7903680121002C01D00B4300E03C
:109410008B43036010680843106001B0F0BDC04684
:109420001C90004070B50C46056828463030FFF7A8
:109430002BFE22883A493B483B4E002A04D0036861
:1094400033400A40120404E02B8C026832400B4087
:109450001B041A430260A278FF210B03051F2E682C
:109460009E431203B2182A60E2780B0205689D43FE
:109470001202AA180260227903688B4399180160CE
:1094800062790120430629490D689D43D20792095C
:1094900052190A6065790A682023002D01D09A4389
:1094A00000E01A430A60A2790F231B020D689D4356
:1094B0001207120D52190A60E3790A68002B0ED0C8
:1094C000C3061A430A6082060B6813430B600A68DE
:1094D00080239A430A600A6840239A430DE0C3063A
:1094E0009A430A6082060B6893430B600A688023E4
:1094F00013430B600B6840221A430A60227A00076C
:10950000091F0B688343D007C008C0180860607A41
:10951000072252070B68934340071818086070BD74
:10952000FF0F000018900040FFFF00F01C7000408B
:1095300080B508461146FCF777FA80BDF0B581B0DA
:1095400006681E4B1A601E4B18601E4D286880234B
:10955000002A009101D0184300E0984328601A4F78
:109560003868000709D00024FCF786FB3868641CC3
:109570003F2C02D80F210840F6D17869022101431F
:1095800079612D20305C296810229143C007C00EFC
:109590000818286028680099002905D001210902CF
:1095A0000843286001B0F0BD01210A029043286001
:1095B000281F02680A43026001B0F0BD38010010A4
:1095C000380300101490004004700040002906D0B9
:1095D00014300378D218491E44300029F9D190B2D2
:1095E0007047F0B583B001231904802281500380B5
:1095F0000146803100224A608A60CA600A614A617D
:10960000017C002930D0019005E0029A521C01989B
:10961000017C8A4228D24421029251434618307D6F
:109620000028F2D03746143718360024032506E008
:10963000FCF7CEF90C35641C38788442E5D23068EA
:109640004019C01E0078FCF7C3F93068415D00295D
:10965000F0D040194078FE2101400629E8D10120D0
:109660000521FEF7EFFAE5E700F08CFB03B0F0BD53
:109670008021405C704710B5014680314A78531C08
:109680004B708022825C442454430019007DDBB27D
:10969000834203D300204870501C087010BD10B5E1
:1096A0000446FCF7D5F9204600F06CFB10BD000025
:1096B000F0B589B00546052900D16CE10F460429B3
:1096C00000D134E1012F00D076E116462C467034EB
:1096D0000795AD88FBF78AFF01460594E469681E8B
:1096E000FF28089106D8B548405D002802D0FBF756
:1096F00029FC04E07D20C0002946FAF789FD079D7A
:10970000AF498E4206D0002C04D00899091B814233
:1097100000D251E100972C466E34059E1036FBF7BF
:1097200065FFF0600020029030802088FCF7B2FBDB
:109730002846683001903078297C884200D3DFE0E9
:10974000294610310691049624E07A7839780698F3
:10975000FFF758F97A783978079D2846FFF736FFE2
:1097600040009A4E345A296E28468847059F7A7CD5
:10977000397C2846FFF72AFF400034523888FCF72E
:1097800089FB2846FFF777FF387C297C8842049EB6
:1097900000D3B5E071780C220392514344277843FB
:1097A0001435281842685118046CE2682046904726
:1097B000727831780698FFF736F930780897784351
:1097C0003746264628188068002806D079780A226D
:1097D0004A4381183269304690473878089948439F
:1097E00007990818006D0028764C37D07978405CCE
:1097F000002833D0B36901223046029F394698478A
:1098000071480068826BA74202D07F1C002AF9D001
:10981000816B826B8A438263F16930468847059F7A
:109820003888FCF737FB787C03994143387C089AE9
:109830005043281840684118F26830469047387CF9
:1098400008994843281880680028049F06D0797832
:109850000A224A438118326930469047B36900258D
:109860000122304629469847574800682946826BAE
:10987000A54202D04D1C002AF8D0A14200D164E7D5
:10988000816B826B8A438263F16930468847044664
:109890007A7839780698FFF7B5F83878089E7043DB
:1098A000079D2818006B002804D079782246FCF721
:1098B00047FA0446387870432818806B002805D092
:1098C00079780023224602F057FD04463878704329
:1098D0002818406A002805D079780023224602F033
:1098E00028FD044638784643A819806A002805D028
:1098F00079780023224602F067FD0446974E35E74B
:10990000B0880199C989884202D2401CB08009E020
:1099100091480168012902DB491E016002E08F487D
:10992000816988470098052835D0042844D1012250
:109930006A7028462946FFF743F82C460025204642
:1099400021462A46FFF77FF820462146FCF7CEF94C
:10995000002803D020462146FFF7B8F826461036E7
:10996000012730463946FCF79BFA30463946FEF768
:1099700017FE30463946FCF707FA30463946FEF7FF
:10998000E7FD9420255486202552882025506F48D5
:10999000057009B0F0BD012228462946FFF753F8AB
:1099A0002C460025204621462A46FFF709F8932039
:1099B00025548C202550657009B0F0BD10C40000FE
:1099C000A5A5A5A5FFFF000030030010CC0A0010DC
:1099D000F0B583B00446052916D027468037042900
:1099E00024D0012920D11546A688FBF7FFFD019060
:1099F000F8680290701EFF2851D85548805D0028F5
:109A00004DD0FBF79FFA4FE0012220462146FFF799
:109A10001AF80025204621462A46FEF7D1FF93205A
:109A200025548C202550657003B0F0BD9020205C3B
:109A3000002805D0002038740121204600F090F85D
:109A40000122627020462146FEF7BAFF002520461B
:109A500021462A46FEF7F7FF20462146FCF746F945
:109A6000002803D020462146FFF730F810340126A5
:109A700020463146FCF714FA20463146FEF790FDA9
:109A800020463146FCF780F920463146FEF760FD5E
:109A90003D75FD80BD602D48057003B0F0BD7D2093
:109AA000C0003146FAF7B4FB029A002A09D00199A6
:109AB000891A814205D22748854202D0387C002885
:109AC000B2D0387C022815D001281BD0002838D10C
:109AD00026466E36FBF78AFDF86000253D8030880B
:109AE000FCF7D8F92046294600F03AF8002816D0AD
:109AF000022015E07620215AB888884217D2401CEF
:109B0000B8801EE0787C3870B87C787000212046E0
:109B100000F026F8002804D00220387401E001206B
:109B20003874387878747878B87403B0F0BD0A481F
:109B30000168012902DB491E016002E09048816949
:109B400088470020387403B0F0BDC046F20A001008
:109B500010C40000A5A5A5A59C030010CC0A001008
:109B6000F0B589B00546044670340191002904D14E
:109B70007C20285A002800D1F4E0284610300790B5
:109B800000227D4E06950894207C0799097888422A
:109B900000D3E7E00492617C0C22029251432A46F2
