S3150000400053573A312E30322E415F3235313132320A
S30D000040105F333233335F3031B8
S3150000401853573A454849532E312E31312E303120E7
S30D000040282020202020000000EA
S31500004100400D0010C141000095580000B153000059
S315000041100000000000000000000000000000000099
S31500004120000000000000000000000000DD4100006B
S315000041300000000000000000DF4100004500001004
S31500004140E15000006D4A0000E3410000D95C000028
S31500004150E3410000A55A0000954A0000E341000033
S31500004160E3410000355D0000296C0000E3410000DA
S31500004170E3410000E3410000E3410000E3410000A9
S31500004180E3410000E3410000E3410000E341000099
S31500004190E3410000E3410000E3410000E341000089
S315000041A0E3410000E3410000E3410000E341000079
S315000041B0E3410000E3410000E3410000E341000069
S315000041C072B600200749084A0860091D9142FBD3D0
S315000041D00648804706480047FEE7FEE7FEE7FEE79B
S315000041E0FEE7FEE7D0010010400D0010815B0000E5
S315000041F07D5E0000F0B51FB40646002082B005467D
S315000042004024019100901BE0019922460F4630465A
S3150000421000F034FB049A059B801A994110D310468E
S315000042201946224600F01AFB361A8F41019722469C
S3150000423001200021009F00F011FB38184D4100902D
S315000042402046641E0028DFDC019B00982946324682
S3150000425007B0F0BD03460B439B0703D009E008C92E
S31500004260121F08C0042AFAD203E00B780370401C20
S31500004270491C521EF9D27047D2B201E00270401CAE
S31500004280491EFBD270470022F6E710B513460A46D0
S3150000429004461946FFF7F0FF204610BD421C017880
S315000042A0401C0029FBD1801A7047F8B502464A40E7
S315000042B0D40F42004B0052085B089A4202D20246D3
S315000042C0084611464A0023D0C30D4A00DDB2120E3D
S315000042D0AD1A202D35DA49020126490AF6058A1952
S315000042E0002C00D0524220214F1B1146B9402A41D2
S315000042F01018C20D9A4221D0002C17D0012D08DCCF
S31500004300DA05801AD20F8019D207DBB200F0E2FA82
S31500004310F8BDDA05801A012340001B06C018801874
S315000043205A428018CA0F1043490007E04908C207DD
S315000043301143DA05801A80194008801800F0C2FA85
S31500004340F8BD61000122511A001BF7E70122D207CE
S315000043505140AAE70122D2075040A6E7024670B5AF
S315000043604A40D30FDB0740002DD04A002AD0010E69
S31500004370140E000212020919400A520A8418E501B5
S3150000438004465443000A120A2E045043A419421943
S31500004390200CC543AA18120C0125AD03521C521954
S315000043A012047F39240400D0521C104301D440006B
S315000043B0491EC2B20C06C0092018401C4008802ABB
S315000043C002D003E0002070BD40084000002900DA5A
S315000043D00020184370BD70B502464A40D50F400014
S315000043E04A00ED0740085208002814D0002A12D0CF
S315000043F0C40DD30D41020120C0055202490A520ADA
S31500004400E41A091812187D34914201D3641C00E0A5
S315000044104900002C01DA002070BD0023914201D32F
S31500004420891A0343400849000028F7D100290AD019
S31500004430914202D10121C90705E0914201D2012131
S3150000444001E00121C943E005C018401900F03AFA1D
S3150000445070BD0000F0B507460846584087B0C00F4B
S31500004460049048000E46590040084908BC1A884185
S3150000447005D2384631461E4617460B4602465800B8
S31500004480400810434CD0300D039040055900400DB4
S31500004490490D0590401A0290402872DA180301214E
S315000044A0000B09050843019004980092002805D0E6
S315000044B001995242002088410092019002984021C1
S315000044C00A1A0199009800F0C9F905460C466B4690
S315000044D007CB00F0E4F9C0197141039A0E0D0023D1
S315000044E0D71756401A467A40164344D0049A002AF3
S315000044F02DD0029A012A039A15DC1205C01A9141A1
S3150000450001263605001C7141D20F059ED207009385
S31500004510019202962A46234600F022FA07B0F0BD21
S3150000452038463146FAE71605224A0F46B218C01A2F
S31500004530B74101210905001C4F4100187F41114672
S3150000454018187941E20F10436D19644113E0E20730
S315000045506D0815436408C2071443039A0126120521
S31500004560C01A91413605001C7141CE074008304300
S315000045704908C01851412A46234600F0E4F9CDE720
S31500004580FFE7049801224000C117121A00238B414D
S3150000459004983146C417381AA141EEE730B4012415
S315000045A0E407634030BC55E730B40124E4076140BA
S315000045B030BC4FE70000E0FFF0B51FB488B00B99A0
S315000045C00998002448400999C00F490049080991F3
S315000045D0C0070B990090490049080B910999089862
S315000045E0A64608431CD00B990A98084318D0099888
S315000045F001244000420D4800410D0998240500039E
S31500004600000B204309900B980003000B20430B90EE
S3150000461050181C494018002201901446104605E027
S31500004620002001460DB0F0BD032801DA034600E084
S3150000463003239C46C11A0AAE0AE05F0008ADED5B93
S315000046404F00F75B7D430027AA187C41491C5B1E7F
S315000046506145F2DD410004AB5A522104120C0A43B3
S31500004660240C401C0828DFDB019802900099704654
S3150000467001910090059B049A0799069800F070F93D
S31500004680D0E700000DFCFFFFF0B50C465C4085B09E
S31500004690E40FE40703944C0000266408590094468E
S315000046A0490802460296224321D062460A431ED09A
S315000046B06200570D4A000E032303550D01240246DE
S315000046C02C492405781B1B0B360B40182343264325
S315000046D0614600901C46501AB44103D30098401C12
S315000046E0009002E0921800985B41002803DA00204F
S315000046F0014605B0F0BD00200121090507468646A2
S3150000470011E064461D46141BB54106D36546521B8F
S31500004710B341744607430C43A646CD0740084908F3
S31500004720284392185B4105460D43EAD110461843CB
S3150000473013D06046194650407140084306D0604683
S31500004740101AB34106D20122002306E000220123FB
S31500004750DB0702E00122D24353100098744601059C
S31500004760381C6141029C039D0019694100F0EBF879
S31500004770BFE70000FD030000C217C10F504010B58F
S315000047804018CA079623002100F0A4F810BD10B502
S3150000479000229623114600F09DF810BDC20F41007D
S315000047A040020123400ADB05D207090EC0187F2903
S315000047B001DA00207047962903DC9623591AC8406F
S315000047C001E096398840002AF4D04042704770B51F
S315000047D00446002903D000202022012310E00028EF
S315000047E001D00020C043C046C0460DE02546D54056
S315000047F08D4205D30D469540641B1D4695404019D4
S315000048001546521E002DF1DC214670BD70B50025FF
S3150000481004462E46002911D0002C01DA0125444217
S31500004820002901DA012649422046FFF7D0FFB542AA
S3150000483000D04042002D00D0494270BD002C02DA63
S315000048400121C90702E0002C00DD03490846C046E5
S31500004850C046214670BD0000FFFFFF7F10B5202A2D
S3150000486004DB0146203A9140002010BD91402023F0
S315000048709C1A0346E3401943904010BD10B5202A08
S3150000488004DB0846203AD040002110BD0B46D34039
S31500004890D0402024A21A91400843194610BD10B5F5
S315000048A0202A06DBCB170846203A1041C1170B43D6
S315000048B006E00B461341D0402024A21A914008433B
S315000048C0194610BD002904DA401C490001D14008F0
S315000048D04000704770B40024050C05D11024000474
S315000048E002D1002921D01124050E01D1000208347D
S315000048F0050F01D10001241D850F01D18000A41CE4
S31500004900002801DB4000641C002908D020252E1B4E
S315000049100D46F540A14000D0012129430843010678
S315000049201B1B000ADB1D02D5002070BC7047DB058F
S31500004930181880180029F8DA401C4900F5D170BC17
S3150000494040084000704710B5002B08DA0024401CD0
S31500004950614192185B411A4301D14008400010BDE5
S31500004960F0B51FB482B005460C0003D0084608F027
S3150000497063FE02E008F060FE203002460090214609
S315000049802846FFF76BFF049B059A04460F4618431B
S315000049901143084314D0184610431BD000984021F9
S315000049A00A1A18460599FFF769FF05460E46009A4A
S315000049B005990498FFF752FF084305D0012004E04B
S315000049C02046394607B0F0BD0020C11705430E4307
S315000049D02C43374300990E986305401A7905E40A7B
S315000049E000220C43FD0A0A3002D500200146E9E701
S315000049F00105101969410C9C0D9D00196941FFF7CD
S31500004A00A2FFDFE74A0009030123090B1B0519432F
S31500004A100A4B10B5520D9A4202DA0020014610BD2B
S31500004A20064B34339A4203DC9A1AFFF727FF10BD70
S31500004A30034BD218FFF712FF10BD0000FF03000062
S31500004A40CDFBFFFF10B5002904DB0124E40740423B
S31500004A508C412146002B04DB1C460123DB07524216
S31500004A60A341994200D1904210BD0000B0B5074D58
S31500004A7068681F24044008D005480168002901D051
S31500004A8020468847286820432860B0BD0C70004047
S31500004A909003001070B5074D6E680124204604F09F
S31500004AA013FE002801D004480470286830432860AB
S31500004AB070BDC0462CC0004064060010B0B50B4C5B
S31500004AC021780B4D287881420FD0002903D0012987
S31500004AD009D114A000E007A0B34A11701D4A117055
S31500004AE0474901F0AFF920782870B0BDC001001029
S31500004AF0C10100105F4C4F47492025733A20506F83
S31500004B00776572205374617465206368616E6765AA
S31500004B106420746F20494E5F504F5745525F410ADB
S31500004B20000000005F4C4F47492025733A20506F24
S31500004B30776572205374617465206368616E67657A
S31500004B406420746F20494E5F504F5745525F420AAA
S31500004B5000000000390A001010B582B0042831D0D8
S31500004B60044601281CD0002C34D11B4803680022BF
S31500004B7000920120022101F077FA18490860002806
S31500004B8002D001F0C7FA03E015A01D4901F05AF959
S31500004B9000F0A4FF00F084FA042C13D0012C19D1E4
S31500004BA004F0F6FD00F030F800F0DAFC00F0BEFB91
S31500004BB000F092FE00F0A6FF02F04CF8FFF77EFF31
S31500004BC0042C07D10F480021016041608160C1605B
S31500004BD000F066FA02B010BDA0030010D00100106C
S31500004BE05F4C4F47452025733A2061707054696DBC
S31500004BF0657220637265617465206661696C0A007E
S31500004C007FE600005007001080B500F003F800F0C2
S31500004C1047F880BD10B56348417800293AD0002195
S31500004C2041701D480078472819D0462832D15F497F
S31500004C300A7A03231340194803705306DB0F837067
S31500004C409206120F42704A7A1F231340897A09028C
S31500004C508918FF2252010A40D118818010BD534A9B
S31500004C60517A0F230B400D484370CB06DB0F837040
S31500004C70937ADC00D27AD20212190724A4021440D5
S31500004C801A0251184909C9B25A06920F1202891816
S31500004C900919818010BDC0465B0400101004001085
S31500004CA0F0B582B03F480078002879D0FB490878F3
S31500004CB00A46411E88413D4D29790726B143081809
S31500004CC051788907490F0B18394A1371394F3878CB
S31500004CD0102404433C70687950713A7820241443B8
S31500004CE03C7035490C78F12222400A7000222D4989
S31500004CF00A7003210191C94300910840ED49897862
S31500004D004A06920F801868713340C900C918297184
S31500004D103978CF230B403B70E1212140264F397073
S31500004D20C3263040E34BD9780907890E0818687105
S31500004D30C120204038708818197989014018687197
S31500004D40812020403870A879F021014098790F22FF
S31500004D5002405018A871012020403870587900018F
S31500004D608018A871E97900980140187A1C46019AC2
S31500004D7010404218EA717978FE230B407B70FC23C1
S31500004D800B407B703240E3791B079B0E9A18EA7141
S31500004D90F8220A407A701818617A89014018E87179
S31500004DA002B0F0BD95060010180400108F01001027
S31500004DB094030010990600108B010010274800216B
S31500004DC00160234801220270254801607047C046F1
S31500004DD0B0B51F4C2178012918D000292BD11D49C7
S31500004DE04018C7301F49884228D31D4D286800281F
S31500004DF02AD000F087F97D21890088421DD91748FD
S31500004E0000210160012020702960B0BD11494018C1
S31500004E101149884214D8114D2868002814D000F092
S31500004E2071F97D218900884207D900202860207009
S31500004E300B490860B0BDFFF7C1FFB0BD084800E0F0
S31500004E40064800210160B0BD00F0F6FF2860B0BD45
S31500004E50C001001044E4FFFFD827000070070010CF
S31500004E6074070010CB290000B0B5002A0CD0074B00
S31500004E700C78C5B265406C001C5B80B2000A6040CD
S31500004E80521E491C002AF3D180B2B0BD3AE200009E
S31500004E90411E884103490A6801239A431018086095
S31500004EA07047C04614900040F0B581B00246032119
S31500004EB008460092514307231C468C4010490D6852
S31500004EC0A5430D6000242546064666431F46B740A7
S31500004ED00A68BA430A60F2B294400A6822430A603A
S31500004EE06D1CECB2009A9442EED91B060A689A43EE
S31500004EF00098400740091018086001B0F0BDC04690
S31500004F002090004002490A6882430A607047C04602
S31500004F10009000400C286CD8800001A108588746F4
S31500004F20554F00005F4F0000694F0000734F0000AF
S31500004F307D4F0000874F0000914F00009B4F0000FF
S31500004F40A54F0000AF4F0000B94F0000C34F00004F
S31500004F50CD4F0000304800682649486070472E480B
S31500004F6040682449086070472B48806821490861D9
S31500004F7070472948C0681F49C863704726480069BA
S31500004F801C4908637047244840691A4948617047BC
S31500004F90214880691749086470471F48C069154948
S31500004FA0886070471C48006A1249886370471A482F
S31500004FB0406A1049886170471748806A0D49C86180
S31500004FC070471548C06A0B494864704709480A4942
S31500004FD041670A4981670A49C1670A480A49016067
S31500004FE00A4941600A4981600A49C160792109027A
S31500004FF0016170470CF000401D1F37747C00FA00F9
S315000050007701EF028CF00040F804040B040B011644
S31500005010FF2080100021403F0800800080B5054A2F
S31500005020900805D00320824303480449FFF712F98C
S3150000503080BDC046D00100000000001010EA00004C
S3150000504080B5002801D0044800E00248034900F07A
S31500005050F9FE80BDA7E6000083E6000019E800001F
S31500005060B0B582B0012400252046294603F0BCFFD6
S31500005070684604710480294603F008FF2046294645
S3150000508003F0B2FF02B0B0BD10B5012420462146A0
S3150000509003F0AAFF0748447010BDC046180400106C
S315000050A080B50120002103F09FFF024802214170D4
S315000050B080BDC0461804001070B515460E4644B2B1
S315000050C0204601F03BFE204601F01CFE20463146FC
S315000050D001F064FE002D02D0204601F04BFE70BDAB
S315000050E004488168044A054B136001600448106057
S315000050F07047C0463400FF00F800FF0055AA55AAC5
S315000051007856341210B5044600F096FE001B10BD0A
S3150000511070470000F0B585B004460020032C00D986
S31500005120BDE0012900DABAE001915E48071F39683F
S315000051305D4A1140396007214B0702943C689C4345
S315000051403C603B68594C1C403C600B033C689C43EC
S315000051503C600B023C689C4301267302E3183B60EB
S315000051603B68C024A3433B603C6820231C433C604F
S315000051703C68082525433D603C680425AC433C60FB
S315000051803C68022500952C4304973C60740705682B
S31500005190A5430560046814400460720604689443DD
S315000051A0046002681A430260414A1346FF330468EA
S315000051B01C400460F30604689C430460B30604685C
S315000051C09C430460036880241C43046003684024F5
S315000051D01C430460330604681C430460F30504683A
S315000051E09C4304600B0504689C430460029C09040C
S315000051F003688B4303600321890303688B43A10380
S3150000520089B2591801600168039631431E239943F8
S3150000521001607F21090443688B430F210904591853
S315000052204160416811401F31416011210546183D1A
S315000052302A68120704D002461C3A1268491EF5D1A4
S31500005240019E012E1ADB0024274605E003F052FCDE
S315000052503F18641CB4420DD004990868039A1043A1
S315000052600860144829680907F0D1411E002808463D
S31500005270F8D1EBE714237B43029C00E00023049A59
S315000052801068009DA8431060A0000BA21058584358
S315000052903146FFF7BBFAC117C90C4018401305B0D9
S315000052A0F0BDC0461C700040FFFFFFEFFFFF00FC93
S315000052B000F0FFFFFEFF0000C4090000D007000059
S315000052C0DC05000006490A78022A02D90020C043FC
S315000052D07047531C0B709200891848600120704774
S315000052E02404001006490A78012A02D90020C04386
S315000052F07047531C0B709200891848600120704754
S315000053005C04001080B506480068002802D000F052
S31500005310A5FE80BD0348044900F094FD80BDC0464B
S315000053206C04001047E800006CE8000010B51D4C46
S31500005330A078022818D0012821D000281ED1607834
S3150000534000281BD0002060702078002826D017483F
S315000053508F214900A160E060FFF796FE0120A07052
S3150000536011480068606010BD60680F490968081A36
S31500005370E16888420DD2607800280AD110BD6068C5
S31500005380A168094A1268101A8842F7D30220A07051
S3150000539010BDFFF785FE0020A07010BDFFF780FE50
S315000053A010BDC04650070010940000100D07000005
S315000053B001F020FD80B5007800210A4602F014F9BC
S315000053C080BD000010B582B012490A68521C0A60FE
S315000053D011495143114A89180123D941914201D9F2
S315000053E002B010BD406A0078C007F9D000200C4911
S315000053F00C4A0B5A145AE31A6C462352801C062890
S31500005400F7D1072008A16A46062300F015FC02B072
S3150000541010BDC046D4010010CDCCCCCC98999919BA
S315000054206C050010DC05001064696666000000006B
S3150000543070B50C46234D2E78234909684978002912
S315000054400AD0052C13D0042C23D1012181403143ED
S315000054502970421C27A019E0052C10D0042C18D165
S315000054600121814031432970421C30A00EE0012108
S31500005470814032468A432A70421C14A006E001216C
S31500005480814032468A432A70421C22A0184900F005
S31500005490D9FC714271412878421E034693414B4024
S315000054A00FD1002803D027A0114900F0CBFC052C12
S315000054B003D12A480E4900F0C5FC0020214601F020
S315000054C01DF970BDD80100102C0A00105F4C4F4723
S315000054D0492025733A206B2025642072656C65612E
S315000054E0736520696E20736C6565700A00000000A4
S315000054F019E800005F4C4F47492025733A206B207E
S31500005500256420707265737320696E20736C6565FF
S31500005510700A00005F4C4F47492025733A206B20E4
S3150000552025642072656C656173650A005F4C4F47A0
S31500005530492025733A206B202564207072657373A9
S315000055400A0000005F4C4F47492025733A20646FDC
S315000055506F72206F70656E0A00000000CAE60000D8
S3150000556010B51448017802290DD313490A68521C54
S315000055700A60124B9A4209D3012202700020086089
S315000055800F49087002E00C48002101600D4881783F
S3150000559003290ED30C4A13885B1C13809BB20B4C59
S315000055A0A34206D300231380094A01231370491E20
S315000055B0817010BDC901001008040010C509000063
S315000055C04807001058040010AE06001089130000AA
S315000055D0380A001016480068002802D09B48007858
S315000055E0704700207047C04680B511480068002803
S315000055F006D002F00FFD0A2802D09448012101705E
S3150000560080BDC04680B508A008490022012300F0ED
S31500005610A3FC07490860002801D0074800E00548B8
S31500005620CF4900F00FFC80BD6C696E003D5600004E
S3150000563060060010C5E80000A8E80000F0B581B0DB
S31500005640052800D9A7E005460124800001A10858D5
S315000056508746C0466D560000E75600009757000083
S31500005660975700003F570000675700004B480368F4
S31500005670002200920120014600F0F6FC484908602D
S31500005680002802D000F046FD03E046A04D4900F098
S31500005690D9FB01F087FD01F081FD01F08FFD01F0DE
S315000056A079FF4948FFF70EFE002803DC47A045496D
S315000056B000F0C8FB5348FFF715FE002803DC52A094
S315000056C0404900F0BFFB5C4804709A4800685B499B
S315000056D0086002F0B3FC5A490880052D43D0042D1A
S315000056E02DD0012D57D101F0B9FF03F0EBF800F0F2
S315000056F0AFF802F0CBFC02F0A1FC514E3188884293
S3150000570001D0504804704C4F3878012813D102F06C
S3150000571095FC318888420CD1484E3068854F3968EF
S31500005720081A4949884206D302F06CFD3868306091
S3150000573001E000203870052D15D0042D2BD13E49EF
S3150000574000200870414908700421022203F0F2FF8C
S315000057500120214603F0A8FF062003212246FFF779
S31500005760ABFC052D17D101200025294603F09CFF2F
S31500005770062003212A46FFF79FFC02F0ADF902F04E
S3150000578041FD2D4804706B4800682C49086002F002
S3150000579055FC2B49088001B0F0BDC046A00300109F
S315000057A0DC0100105F4C4F47452025733A2061709D
S315000057B07054696D657220637265617465206661F7
S315000057C0696C0A007FE60000D55500005F4C4F4724
S315000057D0452025733A204C696E48616C7446696CA5
S315000057E074657257616B65757043616C6C62616359
S315000057F06B207265676973746572206661696C0AED
S3150000580000000000E95500005F4C4F474520257316
S315000058103A204C696E48616C744D6F6E69746F7294
S3150000582043616C6C6261636B207265676973746552
S3150000583072206661696C0A00E8010010E40100103C
S31500005840E00100105D060010E90300006406001088
S31500005850B0B59CB00E4D2878002817D001A800F0EE
S31500005860E3F904460020287002A8E0210170642CA8
S315000058700ADC019902AD681C2246FEF7EBFC601CAF
S3150000588080B2294601F064FD00F0CAF91CB0B0BD33
S315000058904104001001F0AEFA80B50A480168491CBF
S315000058A0016009484843094940180122D04188420D
S315000058B000D980BD072006A1064A022300F0BCF9E4
S315000058C080BDC046EC010010CDCCCCCC989999197E
S315000058D06E760000E806001080B5154801780029AC
S315000058E013D0406813490968081A134988421DD322
S315000058F012480178002919D1114901220A70027053
S3150000590010A0174900F09EFA80BD0C4801780129C5
S315000059100CD114490978002902D1094900220A70DC
S315000059200021017010A00E4900F08CFA80BDC0461F
S31500005930500700109400001078E60000F0010010F7
S31500005940180400105F4C4F47492025733A207072A7
S315000059506573732074696D656F75740A00000000C5
S315000059607FE60000390A00105F4C4F474920257337
S315000059703A2070726573732074696D656F75742053
S3150000598072656C656173650A0000000070B51D4C98
S315000059902568A80623D4280727D468072BD4E80748
S315000059A003D030A0224900F04DFA3F26A80703D5C0
S315000059B034481F4900F046FA2E40E80603D532481F
S315000059C01B4900F03FFA002E03D130A0184900F021
S315000059D039FA0120000321680143216070BD0AA045
S315000059E0134900F02FFA2807D7D512A0104900F066
S315000059F029FA6807D3D515A00D4900F023FAE80760
S31500005A00CFD1D2E70CC000405F4C4F4749202573E9
S31500005A103A2072657365743A636D302072657365FA
S31500005A2074206F72206C6F636B75700A0000000043
S31500005A30A3E800005F4C4F47492025733A202072A7
S31500005A40657365743A6F74700A0000005F4C4F47C7
S31500005A50492025733A2072657365743A69776467DD
S31500005A600A0000005F4C4F47492025733A202072F8
S31500005A70657365743A737720706F72207265710A68
S31500005A800000000071E800008AE800005F4C4F4704
S31500005A90492025733A2072657365743A756E6B6E8C
S31500005AA06F6E0A00B0B50A4DE86D0A4C04400ED080
S31500005AB0C00503D528680221884328600648016886
S31500005AC0002901D020468847686D20436865B0BD2F
S31500005AD008600040FFFF7F006807001005480121AD
S31500005AE081718170C170002242710172017142722E
S31500005AF0C1717047180400107D21C900C1400846D5
S31500005B007047000080B504480178012903D10021BF
S31500005B10017001F0EFFA80BD380A001010B5401E82
S31500005B20010E07D1044C606001F058F90020A06016
S31500005B300720206010BDC04610E000E0B0B5074861
S31500005B4000680748074901600025ECB22046FFF7C8
S31500005B50E1F96D1C0C2CF8D3B0BDC04604008000E2
S31500005B60FCF000401032547680B500F005F801498B
S31500005B70086080BD9000001080B504F05BFB80BD1E
S31500005B8080B5FFF74BFA0020014600F01DF8FFF73D
S31500005B90EBFFFFF7D3FF04F061FB04F037FB06F0E1
S31500005BA0E5F806480649016006490A6801231343D9
S31500005BB0022293430B601949016080BDF800FF0083
S31500005BC055AA55AA0400FF0010B5114A114B1360DF
S31500005BD0114B01280CD0002812D118680124A043CB
S31500005BE018601868F024A0430907090E401806E05B
S31500005BF018680121014319601968082008431860D4
S31500005C0018680821014319600448106010BDC04699
S31500005C10FC1000405A5A5A5A001000407856341266
S31500005C208348002101607047002801D08149016046
S31500005C307F4800687047C046F0B589B01D461646D5
S31500005C40044605910846FEF729FB002187B2FF2F7F
S31500005C5001D9CC433BE0049608AE7470A52232709D
S31500005C6007AA02921070C9432A46039506AD2980F9
S31500005C708018401CB0701748032201923146FFF786
S31500005C80F3F82880012402992246FFF7EDF82880D0
S31500005C9005993A46FFF7E8F8288003998AB20499ED
S31500005CA0FFF7E2F828803046019900F091F8029853
S31500005CB0214600F08DF80598394600F089F80498D9
S31500005CC0039900F085F80221284600F081F8204665
S31500005CD009B0F0BDFFFF000010B511494868C007C4
S31500005CE01CD00A68012002430A600E4A10700C3963
S31500005CF00A680D490B689A180A600C4B9A420DDB2C
S31500005D004B22D2004E4B1C68A4181C60084B5870DE
S31500005D1000200860D34801688918016010BDC0469C
S31500005D2018300040320A001068040010CC4C000005
S31500005D305C04001010B5164C6068400707D5206853
S31500005D4004210143216013A01D4900F07BF860681F
S31500005D50C0071BD021680120014321601A490C6845
S31500005D606178002903D017490978002904D017491A
S31500005D7009684A6802434A60616E204688474421A2
S31500005D8041436018406D012100F0F8FE10BDC04689
S31500005D90049000405F4C4F47452025733A206361CD
S31500005DA070746F7563682073616D702077616974B4
S31500005DB02074696D65206F766572666C6F770A0070
S31500005DC056E90000340400102C0A0010340A0010B2
S31500005DD0F0B581B04A1E0B46934100930122144B45
S31500005DE003E0009E0022002E20D1D2071ED00029FB
S31500005DF0F7D01D68632DF4DC0E4A5719002423469C
S31500005E0006E001268A420BD2EB18632B134607DA0B
S31500005E10C25CFA545A1C8A42F3D326468A42F3D30A
S31500005E20AB18034C236023468018DBE701B0F0BDB6
S31500005E3058020010F1010010014800687047C04682
S31500005E403C04001083B0B0B581B0044605A80EC06E
S31500005E5005AB0093084D3F212846224607F0D4FBA8
S31500005E602846FEF71BFA01462846FFF7B1FF01B0A8
S31500005E70B0BC01BC03B000475C0200104120000228
S31500005E80012103F027FCFFF7EBF800F003FF00F019
S31500005E903DF862B600F0CAFB04F050F8FFF7B2FB1B
S31500005EA0FFF774FD0AA0144C2146FFF7CBFF13A0A1
S31500005EB013490022022300F04FF8002801D01248AF
S31500005EC000E010482146FFF7BDFF00F067F8FCE749
S31500005ED05F4C4F47492025733A20687561646520F9
S31500005EE066303320646F6F72206374726C20707238
S31500005EF06F6A6563740A00007FE6000061707000D7
S31500005F00594B000060E6000043E6000080B500F053
S31500005F100FF90E480021016041600248012100F09E
S31500005F2003F880BD2161000010B50023074A1478EC
S31500005F30002C01D0D84310BD517011198B70611C13
S31500005F401170A300D2185060C8B210BD78070010B7
S31500005F500021017201207047F0B581B0002909D0F7
S31500005F600026354FB85D002806D04036C02EF9D140
S31500005F70002410E000240EE00120B855BC190025CD
S31500005F806560E16325722046294600F057F800282F
S31500005F9001D5BD552C46204601B0F0BDF0B583B005
S31500005FA0624C2068234D2968814203D000F072F8C4
S31500005FB020682860204D2E461036002703E0403624
S31500005FC07F1C032F34D0B801295C0029F7D029188B
S31500005FD0087A00281FD0009702960C4608344C48D1
S31500005FE001910160207800280DD0019D3C350026E6
S31500005FF0029F39682A68381F006890470837761C60
S3150000600020788642F5D300204149086020700A4D69
S31500006010029E009F019948680028D0D03C48016044
S31500006020CA6B022000242146904739480460C6E71F
S3150000603003B0F0BD9C0200108007001010B5037A73
S31500006040052B02D90020C04310BD5C1C0472DB0086
S31500006050C018C1600261012010BD00003349096803
S315000060600161704794000010B0B50022274CA55C72
S31500006070002D05D01432642AF9D100221046B0BD95
S315000060800125A554A2180024948050809360D16005
S315000060901046B0BDF0B581B07D20C000009000264E
S315000060A01A4F04E00220A8801436642E2CD0B85D66
S315000060B00028F9D0BD19A8880128F5D1E868296912
S315000060C01A4A1268541A00994843FEF780FB844224
S315000060D0EAD3A86800280BD00178002908D00C491B
S315000060E00860C26B012000242146904708480460DE
S315000060F068880128D6D1E86800994843FEF767FB0F
S31500006100296940182861CFE701B0F0BD40080010AA
S31500006110A0030010012181800449096801617047CC
S3150000612002480168491C01607047C046940000108F
S3150000613080B5044800687D21C900FEF748FBFFF7DB
S31500006140EDFC80BD90000010F0B599B0074607AE93
S3150000615048213046FEF797F801253570774878498B
S31500006160784A00F027FC0421317118900F20159011
S31500006170149075480E9075480D9075480B907548AB
S315000061800A90754809907548119008201390744834
S315000061900C907448744A314600F038FC7349086024
S315000061A07348744906F094FE002806D006F09AFD5E
S315000061B0024671A07A49FFF745FE7A48009501909C
S315000061C0794C7A497A4B20462A4606F043FF002846
S315000061D006D006F087FD024676A07149FFF732FE2B
S315000061E08048A061009480480121804A804B07F0D6
S315000061F0DFF8002806D006F075FD02467DA0684946
S31500006200FFF720FE78490697384607F0E5F800289C
S3150000621006D006F067FD024682486149FFF712FE86
S31500006220C8480090804F0026804A032438463146ED
S31500006230234606F085FD002806D006F053FD0246EB
S315000062407B485749FFF7FEFDB84800940190794D09
S3150000625079497A4B2846224606F0ACFB002806D040
S3150000626006F040FD024676484D49FFF7EBFD7548BE
S315000062700090754C75490322754B204606F0DAF8F6
S31500006280002806D006F02EFD024672484449FFF764
S31500006290D9FD7148E06005960494039502976F480E
S315000062A001906F480090E04803233146324607F0DC
S315000062B0ABF8002806D006F015FD024669483849B5
S315000062C0FFF7C0FDD849069807F0C9F8002806D0A0
S315000062D006F008FD024664483149FFF7B3FD634CFA
S315000062E06349204607F016F92435624852491427B7
S315000062F02A463B4607F04AF95F4E604930462A4631
S315000063003B4607F043F920465A4907F0F1F8204684
S31500006310314607F0EDF8C448214607F0D8F8224880
S31500006320574906F0C9FD002806D006F0DBFC0246F8
S3150000633054481B49FFF786FD19B0F0BD4003001015
S31500006340E4E400003CE40000F0000010C800001087
S31500006350BCE4000094E4000064E40000B000001017
S3150000636098000010A002001044E400002C0A00105F
S315000063702007001034E600005F4C4F474520257388
S315000063803A204E6F697365204578697420446966C2
S315000063906620696E6974206661696C3A25730A0025
S315000063A019E80000E8060010B40600102AE600000E
S315000063B0080700105F4C4F47452025733A204E6F63
S315000063C069736520646574656374205661726961DA
S315000063D06E636520696E6974206661696C3A25731F
S315000063E00A00000099580000EC06001028E600009C
S315000063F0040700105F4C4F47452025733A204E6F27
S31500006400697365204F626A656374205661726961BB
S315000064106E636520696E6974206661696C3A2573DE
S315000064200A000000E0E60000E4050010B0E5000008
S3150000643075E700002C05001088E50000B80500107F
S31500006440A1E7000031540000740400103AE5000092
S31500006450F0040010CAE70000C5530000140600103F
S31500006460B5E50000F2E700004AE7000074050010F9
S3150000647001980000A0050010880500109CE50000AA
S315000064802001001012E70000554908707047C04609
S3150000649010B50B480124214606F0B4FF09482146F1
S315000064A007F017F80848214607F092F8002806D0AA
S315000064B006F018FC024605A00F49FFF7C3FC10BD05
S315000064C0EC0600101C060010FC0900105F4C4F473C
S315000064D0452025733A20546F7563684C70207365A8
S315000064E074207363686564756C6572206661696C97
S315000064F03A25730A0000000019E80000032906D1B6
S315000065000A498A8882804A884280098801807047C1
S31500006510B0B5032909D10021044A0A4B545A5D5AE1
S315000065202C1B4452891C0629F8D1B0BD6C050010FD
S31500006530032906D103498A8882804A8842800988CD
S3150000654001807047DC050010014800687047C046AE
S315000065509400001080B5F8480078002805D0094856
S315000065600078002807D0012080BD642000BF401EAF
S31500006570FCD1002080BDF1480068C16D8847411EEE
S31500006580884180BD350400107047000010B52648CC
S315000065900124214606F09DFFF848214606F032FF09
S315000065A010BDC046B0B503F0F3F80D4800780028DA
S315000065B014D00C4C2088401C208080B204280DD3B7
S315000065C0094D2868416E8847024608A0C849FFF76A
S315000065D039FC002020802868016E8847B0BDC0467F
S315000065E058010010300A00102C0A00105F4C4F476B
S315000065F0572025733A20746F756368206E6F646543
S3150000660025642074696D656F75740A007047000013
S3150000661010B5DB480024214606F05BFFD74821462B
S3150000662006F0F0FE10BDC0461C060010F0B581B0A5
S315000066301C481D4901601D4C204605F071FE204690
S31500006640FFF782FD0920032101242246FEF734FDCF
S3150000665005F081FE64252946FEF7B9F8064605F0E1
S315000066607AFE2946FEF7B3F80F4605F04BFE00907A
S315000066700FA01C4D294632463B46FFF7E3FB1AA006
S315000066801B4900222346FFF767FCAF490860002834
S3150000669001D0194800E017482946FFF7D3FB01B09F
S315000066A0F0BDC0468C00001049650000FC090010D2
S315000066B05F4C4F47492025733A20546F7563682015
S315000066C0416C676F2056657273696F6E3A25642E4A
S315000066D02564202C20436F6D702054696D653A2522
S315000066E0730A000056E90000746F756368000000C5
S315000066F0E567000003E90000E4E800000B4A1378B0
S31500006700052908D004290FD101218140C8B21843B8
S31500006710984209D005E001218140184688439842F5
S3150000672002D00121517010707047C046500700100A
S31500006730F0B581B00C46054602F0E0FF2449254835
S315000067400860254A1368022003431360136808266D
S315000067501E431660FF231B0116689E4316601368CE
S3150000676004261E4316601D4A0A601D4F39688022A2
S315000067709143396039684022914339603968202253
S31500006780914339603968814339600126F00329460F
S31500006790FEF71DF8F860002C0DD00020C043B8614C
S315000067A07869B0437861032001463246FEF784FCDF
S315000067B03868304309E07869304378610320002265
S315000067C00146FEF779FC3868B043386001B0F0BD89
S315000067D0FC1000405A5A5A5A0C100040785634128F
S315000067E000300040B0B582B00C460546002824D1E2
S315000067F0344803680022009201200146FFF734FC6A
S3150000680031490860002802D0FFF784FC03E02FA07E
S315000068103749FFF717FB3748FEF754FD002803DC1E
S3150000682035A03349FFF70EFB4148FEF75BFD002814
S3150000683003DC40482E49FFF705FB681E012809D8EE
S315000068403D48007800283AD03C480068836D2946C8
S3150000685022469847052D1AD0042D30D138480021FC
S31500006860018038480170FFF713FE3348007800288E
S3150000687005D032480068836D0421224698472F4888
S315000068800068007B0121FFF753FF052D17D1FEF7A6
S3150000689039FD2D480068FFF75BFB00F057F82648E6
S315000068A00078002805D025480068836D052122461A
S315000068B0984722480068007B0021FFF739FF02B0A5
S315000068C0B0BDC046A0030010880300105F4C4F47C0
S315000068D0452025733A20746F75636854696D657237
S315000068E020637265617465206661696C0A00000048
S315000068F056E90000556500005F4C4F47452025735B
S315000069003A20546F75636848616C7446696C7465A7
S315000069107257616B65757043616C6C6261636B2065
S315000069207265676973746572206661696C0A000036
S31500006930A565000024E90000580100102C0A00108B
S31500006940300A001035040010340A001010B50B4848
S315000069500024214606F056FD0948214606F0B9FDF9
S315000069600848214606F034FE002806D006F0BAF99B
S31500006970024605A00E49FFF765FA10BDEC060010A9
S315000069801C060010FC0900105F4C4F47452025737C
S315000069903A20546F75636820736574207363686565
S315000069A064756C6572206661696C3A25730A00002D
S315000069B019E80000B0B50B8849880904C9180162B6
S315000069C09188D388148852880A4D85600A4DC5601F
S315000069D00A4D05610A4D45610A4D85610A4DC5613D
S315000069E0002545601204121942621A045118816288
S315000069F00060B0BD99A40000A1A600009DA70000FC
S31500006A00A9A80000B5A80000EDA30000F0B583B06A
S31500006A1016460C4605461088002805D070880028C2
S31500006A2002D0B088002803D130A03749FFF70AFA10
S31500006A3002960195683500952078002814D02646E0
S31500006A400C360027304D08E030A02946FFF7FAF94A
S31500006A5044367F1C2078874206D230680028F3D05F
S31500006A6070680028F4D1EFE700252046294600F09B
S31500006A70E9FA2046294602F013FF2046294600F08F
S31500006A8057FA2046294602F093FE019E3046103002
S31500006A9048222146FDF7DEFB009F384602993CC995
S31500006AA03CC03CC93CC0FFF74FFD39687160029994
S31500006AB0B060B888B081488A012809D12348B065FA
S31500006AC0888A002806D122A00F49FFF7BBF901E00A
S31500006AD01D48B06526482749274AF2653166706623
S31500006AE0304603F03EFF304603B0F0BD5F4C4F47E3
S31500006AF0452025733A20696C6C6567616C20667267
S31500006B00657120300A000000C3E900005F4C4F4762
S31500006B10452025733A206761696E65725F7461620C
S31500006B206C6520616E6420736C6565705F67616972
S31500006B306E65725F7461626C65206E6F74203D3D98
S31500006B40204E554C4C0A000031AA000071AD0000E1
S31500006B505F4C4F47452025733A207363616E5F6D26
S31500006B60616E795F6E756D20213D20300A00000050
S31500006B70F3A9000021AA000099B100004160704706
S31500006B80B0B504281FD804460320062102F054F9A4
S31500006B9060000D490C5C08184178204602F04CF95B
S31500006BA00121A140094842680A43094B1A4044683A
S31500006BB0084D2C40A218426002688A431A400168B8
S31500006BC0294089180160B0BDE8E400000480004057
S31500006BD0FF01000000FEFFFF80B504280CD8032249
S31500006BE0424306488318002901D0591C00E0991C2D
S31500006BF00978805C02F020F980BDC046F2E400000E
S31500006C0038483949016007490A6801231A430A606E
S31500006C1000BF00BF0A689A430A6000BF00BF34493C
S31500006C20016070472C100040B0B5074DA868074CAE
S31500006C30044008D006484168002901D0204688470C
S31500006C40286820432860B0BD5CB00040FFFF7F008D
S31500006C506807001010B50D48017849B2002902DD19
S31500006C60491E017010BD3221017000240421204606
S31500006C70FEF750FA012801DBFEF7AAF8044801687E
S31500006C80491C092900D80C46046010BD18010010E3
S31500006C908C030010B0B51349134808601348026806
S31500006CA002231A430260124808601249124A8A6196
S31500006CB0012214020D6825430D600C681C430C600C
S31500006CC04B680E4C1C400E4BE3184B600B6913438C
S31500006CD00B614B6913434B610B6813430B6088616F
S31500006CE0B0BDC046FC1000405A5A5A5A1410004013
S31500006CF07856341200A000405555AAAA0000F0FFAD
S31500006D00FFFF0300002805D41F2108400121814010
S31500006D10054801607047C0461F2101400120884098
S31500006D20014908607047C04680E200E0104808212B
S31500006D300160BFF34F8FBFF36F8F7047002809D4F0
S31500006D401F2108400121814009480160BFF34F8F90
S31500006D50BFF36F8F7047C0461F2101400120884056
S31500006D6003490860BFF34F8FBFF36F8F7047C0466C
S31500006D7080E100E0002805D41F2108400121814060
S31500006D80054801607047C0461F2101400120884028
S31500006D90014908607047C04600E100E0002805D4BC
S31500006DA00322034693430C4A9A1806E00F22024038
S31500006DB0083A03239A43074BD2188007C00E89016D
S31500006DC0C9B28140FF23834010689843084310608E
S31500006DD07047C0461CED00E000E400E0FF2000061E
S31500006DE003490A6882430320800710180860704729
S31500006DF020ED00E0BFF34F8F084809490160BFF35B
S31500006E004F8F00BFFDE7C046BFF34F8F03480449CD
S31500006E100160BFF34F8F00BFFDE7C0460CED00E0F9
S31500006E200400FA0502480068800480147047C046D2
S31500006E3000700040F0B583B001910B46083B182B5B
S31500006E4024D801210C469C40114B1C421ED0002523
S31500006E500295019A002A14D000900368029C2E46DF
S31500006E600198EF433F180A46BA401F46EF400F40CD
S31500006E707D4215402C43761CF5B28542F1D302942F
S31500006E8000980199CA0802A9FDF7E4F903B0F0BD1C
S31500006E900101000110B574228A5A0021002A15D07A
S31500006EA0027C002A12D0027C40300023194604E0FE
S31500006EB0012144305B1C934208D20468002CF7D1B0
S31500006EC00446243C2468002CF2D1F2E7084610BDA3
S31500006ED07421415A002905D07430C069884201D214
S31500006EE0002070470120704710B50A234B43C15C50
S31500006EF000291BD0C018C178002908D1C11C032362
S31500006F000B70011D0023CA529B1C062BFBD10121CD
S31500006F10C94343181C89DC80891CFAD00281837816
S31500006F204278011D032004F035FF0246104610BDCD
S31500006F30F0B50278002A2FD00278002302E05B1C0D
S31500006F40934229D2002913D044245C4305196C6A64
S31500006F50002CF4D02E79002EF1D02D1DE41C2D78B6
S31500006F600026374626700A347F1CAF42FAD3E6E77E
S31500006F7044245C4305192C6A002CE5D02E79002E9A
S31500006F80E2D02D1DE41C2D780026374626700A34E3
S31500006F907F1CAF42FAD3D7E7F0BD000070B582B0D0
S31500006FA015460E46044601A80D4901801021FFF73B
S31500006FB041FF002D10D001A8008831784C406D1E8D
S31500006FC00821012222405242024064085440491ED0
S31500006FD0F7D1761C2904F0D16E48A04302B070BDEB
S31500006FE021100000F0B581B00446104D10486860CD
S31500006FF00027AF602868052101432960002C0ED0C8
S315000070000C4EAF607D20C1003068FDF7E0FB0849FB
S31500007010081A401CA9688142FCD8641EF1D1286870
S3150000702001218843286001B0F0BDC04610E000E0B1
S31500007030FFFFFF0090000010002802D000BF401E96
S31500007040FCD17047F0B581B00278002A20D00278D2
S315000070500092002303E05B1C009A934218D244245A
S315000070605C4305196C69002CF5D02E79002EF2D000
S315000070702D1DA41C2D780026374603E0A41D7F1C79
S31500007080AF42E8D226800029F8D100226280F5E7D7
S3150000709001B0F0BD10B500242046214601F0CCFE1B
S315000070A00120214601F0C8FE2046FFF7EDF910BD8C
S315000070B070B582B005467B20440200206E46082348
S315000070C02146324602F07AFDB21E0121491E501CAD
S315000070D09278FF2A0246F9D1002902D00178A94206
S315000070E006D0457000206A460823214602F06CFD52
S315000070F002B070BD70B582B00024E04301900090EC
S315000071002448114E03223146FFF748FF6D46AC7105
S315000071106C71E870000A2871B078A87030787178C0
S315000071200902081828807D204602012042022046D6
S31500007130314602F03DFD0823204631462A4602F03C
S3150000714043FD02B070BDC04658040010F0B583B0D0
S315000071500024E043019000900E480F4F0126394667
S315000071603246FFF71BFF6D462C71EC706870000A03
S31500007170A870387828701F20C70272022046394648
S3150000718002F016FD0823204639462A4602F01CFD69
S3150000719003B0F0BDFFFF00005B04001080B500F0F7
S315000071A0F9FD80BD80B501F034F8002080BD0000F7
S315000071B080B51A49012203F091F880BDBA49002032
S315000071C0C88005220A7108601449C88008600871E1
S315000071D05D4A02211170124A1080124A10805B4AE1
S315000071E01070BB4A1170B34A1080B14A10800E4A23
S315000071F010700E4A10700E4A10700E4A1070AB4A8C
S3150000720010700D4A1070AD4A10700C4A1070AA48E2
S315000072100170AB48C089AB4908807047A0010010D7
S31500007220AE080010B0080010AA080010A908001047
S31500007230AB080010A8080010AC080010A708001042
S3150000724080B59949002203F076F898480178491CE0
S31500007250017080BD20280BD1252008712420C8701C
S3150000726023208870222048702120087054207047FF
S3150000727053207047FEB50C460546334A0127177062
S3150000728032480078411F02295CD3022802D0032825
S3150000729058D0FEE701AE3046FFF78AFF7078010945
S315000072A0022911D0012912D0002946D10F21084008
S315000072B0288001A98978217087423ED201A9C9197F
S315000072C08978E1557F1CF7E700252E4621E001A9C4
S315000072D08A780007000D80182880CA782270091D58
S315000072E0621C0023042B03D0CD5CD5545B1CF9E74C
S315000072F0461F05250DE001A8FFF75AFF02200828C2
S3150000730006D001A9095CAAB2A154401C6D1CF6E77F
S31500007310BE1FB7B2072FEED2002F0ED001A8FFF77F
S3150000732047FFF0B20021814207D201AA8A1892785B
S31500007330ABB2E254491C6D1CF5E700200349087006
S315000073400220014A1070FEBDB2080010AD08001000
S31500007350F0B585B00C46034653490025CD80534809
S31500007360057005270F710D60594A1078012843D022
S31500007370072B01D201260DE00193581F80B206218A
S31500007380FDF725FA002901D0861C00E0461C019B6A
S315000073904F4A4549F0B2098981422DD344490880B4
S315000073A044480580104601220270434805706C4827
S315000073B0007803A90870D8B2062B1FD803A94B7012
S315000073C022788A70012181420AD203AA8A18635C54
S315000073D09370491CF7E703A90918CC228A70401C50
S315000073E00528F8D903A8FFF72BFF344801210170BF
S315000073F0F748C0893349088005B0F0BD029203A959
S3150000740088702078C8701805000F10304870601C0E
S31500007410042D05D003A94919425D0A716D1CF7E7D1
S3150000742003AD28460193FFF70BFF4D4800782870FF
S31500007430AD1C0198431F029A761E3006D5D00F2048
S315000074401040203003A94870521C90B20F2800D972
S315000074500022029298B20628019609D229460028EF
S3150000746010D0BAB2A25C0A70491C401E7F1CF6E717
S31500007470022008280DD0B9B2615C03AA1154401C41
S315000074807F1CF6E7D8B2052805D8CC212954401C24
S31500007490F9E79E1F00E01E4603A8FFF7D1FE029AF9
S315000074A03346019EC8E7C046B001001053090010DC
S315000074B05609001054090010CB010010A608001050
S315000074C068060010A4080010014800787047C046FE
S315000074D05809001080B501F0D9FA00F081FE80BD90
S315000074E000223C2902D07D2900D00A46411C0078A2
S315000074F0030608D00B78D21893B2FF2B00D9FF3AB7
S31500007500491C401EF4E7FF209043704710B504461F
S315000075104078002800D010BDA278501E0428FAD862
S315000075202179E078022A04D8EC4B1B88D200083A6D
S3150000753005E0042A06D8E94B5B88D200183AD34006
S31500007540DAB201E0E54A12794A400242E3D12078F4
S3150000755000210A4600F048F860790149087010BD1C
S315000075608A010010014800787047C046A503001044
S3150000757080B5054802700548FCF76CFE04480021FA
S31500007580016000F00BFB80BDAC030010B0030010DF
S315000075900804001010B50B484178012911D10024C8
S315000075A04470FFF7A7FD0849C82048710C71F42004
S315000075B0C870012088704870502008700620FFF7B8
S315000075C0C7FE10BD58040010C403001080B59EB05D
S315000075D06A46917050707F20107003201146FFF7A5
S315000075E0B7FE1EB080BD000070B59EB014460D46B5
S315000075F00646782A03D30BA014A1FEF723FC4036D7
S3150000760068460670002C05D06846401C294622466E
S31500007610FCF720FE601C80B26946FFF799FE1EB09B
S3150000762070BDC0465F4C4F47452025733A206C69B4
S315000076306E20706F736974697665206E6F74696603
S3150000764079206F766572666C6F770A004449414708
S315000076504E4F53544943494949000000F0B59FB085
S315000076600024374D374E384F05E000202855641C5E
S315000076701B2C00D15FE0285D0028F8D01EA86946C3
S31500007680FFF7F8FD305D0146A03917291AD8C04624
S315000076907944097949008F44110B0B0B0B0B0B0B2B
S315000076A00B0B0B0B0B0B0B0B1F272D33390B3C4214
S315000076B01EA90A886946FFF75BFFD6E70120234922
S315000076C00870D2E72F2830D03228F1D11EA80188C1
S315000076D06846FDF71DFDC8E71EA80288A248007887
S315000076E0694600F001F9C0E71EA80188684600F067
S315000076F071F8BAE71EA80188684600F03BF9B4E7BE
S315000077001EA801886846FFF701FFAEE70120387022
S31500007710ABE71EA80188684600F098FEA5E71EA8FC
S315000077200188684600F018F89FE71EA80188684699
S31500007730FDF740FE99E700F00BF81FB0F0BDC0461C
S3150000774078060010B8E5000040040010410400105F
S3150000775080B5FFF7B9FE80BDF0B581B004460629B5
S3150000776016D16578A8083E2818D8E348407A291D1E
S31500007770052204E0521E491ECBB2AB420ED9D3B24B
S31500007780E35CFF2BF6D0CBB28342F3D901B0F0BD58
S3150000779020781021FFF71AFF01B0F0BD0226CD4F69
S315000077A005E0FF20E9B27854761C062E09D0A05DCC
S315000077B06D1C0028F5D0FF28F6D0012100F07EFDD3
S315000077C0F0E7207800210A46FFF70EFF01B0F0BD72
S315000077D068060010F0B583B00446C0782179090226
S315000077E00F186079614D402807D13B484188A9426E
S315000077F067D0B9423ED1012145E06178A2781202F4
S31500007800511801910126314600F058FD0290324888
S315000078104388AB4210D0AF49324605E0521CD6B27F
S315000078207300C35AAB4207D0BB42F7D08B5D029EB2
S315000078309E42F3D1FF2102919349019B591A4A1E98
S315000078409141904A12889A1A531E9A41029BFF2B25
S3150000785008D0114006D14188A94232D0B9421CD184
S31500007860012123E0CC4802210170C94800210170A2
S3150000787003B0F0BD0222D1B24B00C35AAB4220D0B6
S31500007880521CBB42F7D19348FF2242542078002174
S315000078900A46FFF7A9FE03B0F0BD0222D1B24B00A3
S315000078A0C35AAB420DD0521CBB42F7D18948029D48
S315000078B045542078002421462246FFF795FE002DE8
S315000078C001D003B0F0BD0648BB214172AA21017266
S315000078D00448447003B0F0BD7E0100103CE6000091
S315000078E08F01001095060010F0B581B00C461D4EB4
S315000078F03178091A4B424B411B4909780F1A7D42D0
S315000079007D417F3847424741062A0DD12F431F4309
S315000079100AD06078A278120212185A4803889A424E
S3150000792004D0594B9A4201D001B0F0BDE2782379D8
S315000079301B029A184088824202D00C488242F3D138
S3150000794031702078002529462A46FFF74DFE084962
S31500007950CD708D704D70607908703070FFF7A8FBA0
S3150000796001B0F0BD8A0100108E010010FFFF00007B
S3150000797060010010F0B583B004468178C57828020E
S315000079804218404803889A420ED03F4882420BD0A4
S315000079903E48022101703E48002101703DA0444945
S315000079A0FEF750FA03B0F0BD6078F32829D1FF2D19
S315000079B047D13F2945D12079022842D16079FE215D
S315000079C0014046293DD17D2047023A4D01223846E5
S315000079D0294602F09FF860792978814246D1661CD3
S315000079E001223846294602F095F80220207100202F
S315000079F0E070A070607028786071207805223146AA
S31500007A003CE0E021014020291ED10025EA4301A9DE
S31500007A100A710192FFF71EFC532815D0542805D091
S31500007A2003B0F0BD681C042D0546F9D201A8405DDF
S31500007A30FF280FD1042DF5D120781221FFF7C6FDBE
S31500007A40F0E72078312101E020781221FFF7BEFD12
S31500007A5003B0F0BD0020C1B201AA521A1279FF2A62
S31500007A6007D1401C0429F6D3002104E020787221B6
S31500007A70ECE70521091A2078CAB201A9FFF7B4FD7F
S31500007A8003B0F0BD3CE60000FF7F0000CB01001014
S31500007A90530900105F4C4F47492025733A206E6FFB
S31500007AA0207265706C792025782D25780A0A0000E9
S31500007AB040E800005B0400100F49097A054A0B06EE
S31500007AC005D0CBB2D35C491E8342F8D100E0FF213A
S31500007AD0C8B27047780100100648002101700648B8
S31500007AE0C0880649088006480178FB220A400270D1
S31500007AF07047C046CA0100106806001070040010E6
S31500007B005C060010B0B50C4605460846FFF7D4FFE4
S31500007B1017490870FC212940042922D10101154A80
S31500007B20515C012902D0144901220A703D2C0CD067
S31500007B303C2C13D1134903220A7013490A701349C6
S31500007B4002220A711249002204E00C4906220A7137
S31500007B500B4903220A700F4900220A700E490322BC
S31500007B600A7000F0B1FE204600F090FFB0BDC0469E
S31500007B7036040010D4E5000094060010B001001091
S31500007B8058090010B2080010AD080010A00100103E
S31500007B9053090010A7080010CB010010F0B581B002
S31500007BA0714800260670714F3C78714D287801287F
S31500007BB027D1FFF7D7FC6F490978884221D1387859
S31500007BC03E2808D010280BD1797880220A43822AD1
S31500007BD015D03E2804D1797880220A43802A0ED017
S31500007BE07978852801D1822909D0282800D0B8E0E3
S31500007BF0832900D0B5E0B878032800D0B1E0012091
S31500007C00287020461038752800D97DE04000C0460F
S31500007C1078448088400087447F0083007D007D0093
S31500007C2087007D007D007D007D007D007D007D005C
S31500007C307D007D007D007D007D007D008B007D0048
S31500007C407D007D007D008F0094007D007D007D001D
S31500007C507D007D0075007D007D0098007D007D0023
S31500007C6075007D00750075007D007D007D007D003E
S31500007C707D007D009C007D007D007D007D007D00F7
S31500007C807D007D007D007D007D007D007D007D0006
S31500007C907D007D007D007D007D007D007D007D00F6
S31500007CA07D007D007D007D007D007D007D007D00E6
S31500007CB07D007D007D007D007D007D007D007D00D6
S31500007CC07D007D007D007D007D007D007D007D00C6
S31500007CD07D007D007D007D007D007D007D007D00B6
S31500007CE07D007D007D007D007D007D007D007D00A6
S31500007CF07D007D007D007D007D007D007D007D0096
S31500007D007D00A0007F2018E0B52C03D103F0B8FC5D
S31500007D1001B0F0BD112010E003F06EFE01B0F0BD21
S31500007D2003F0BCFD01B0F0BD03F008FD01B0F0BDED
S31500007D3003F07AFD01B0F0BD122001F0A1FF01B001
S31500007D40F0BD03F0FFFB01B0F0BD03F0F3FD01B0A1
S31500007D50F0BD03F0ADFE01B0F0BD03F027FD01B0AC
S31500007D60F0BD2E704DE7C046B0060010B0030010FF
S31500007D70480700108A01001080B54B200002024916
S31500007D8001F088FE80BDC046A57D000080B500F0EC
S31500007D9045F980BD10B50024204600F043F9204681
S31500007DA010BD0000F0B581B00446400516D5A548C3
S31500007DB00188491C018000F080FA8F4880898F492C
S31500007DC00880B14801780A2903D1FFF785FE01B082
S31500007DD0F0BD032101708A4804210170A00615D563
S31500007DE0EA4902200870E74909788A1F022A0DD855
S31500007DF0062902D0072902D1012001F01BFEE54821
S31500007E000178042000F02CFAFFF766FE200504D561
S31500007E1001F01EFEDB4804210170DA4E60071FD513
S31500007E20307804281CD100206D46294601F04AFE10
S31500007E302878012100F042FA0146D6480170E4484C
S31500007E40009A0270FF293FD0002000F009FADF48AF
S31500007E500078400068494018801E0088CA4908809A
S31500007E60E00765D001256946284601F02BFE3078EB
S31500007E700A2839D006285BD17D4801684A1C026071
S31500007E8000984870DE480078D44F397881424CD14A
S31500007E90022001F0CFFDCE480178CE480068FFF7FA
S31500007EA01FFB69460978884230D109203070B848EE
S31500007EB0017829430170B7480178022000F0D0F913
S31500007EC030780A282FD130E0B04903200870B04935
S31500007ED00A78402313430B70FF2100F0C1F9FFF726
S31500007EE0FBFDE007BED123E0802000994840000654
S31500007EF0000F09010818C0B2082819D88540FF20CC
S31500007F00D230054214D0FFF7E7FD11E09F48042167
S31500007F1001709F48017812220A4302709D48017839
S31500007F20052000F09DF9FFF7D7FD3878401C387022
S31500007F30E00511D5307807280ED109203070944914
S31500007F400A78012002430A709249097800F088F9FC
S31500007F5000F09AFAFFF7C0FD60040FD530780728C5
S31500007F600CD18A4808210170012001F063FD89487F
S31500007F700178062000F074F9FFF7AEFD600317D50F
S31500007F803078072814D195480178AB4A1278914287
S31500007F900ED87E4A1378082B02D11278022A07D00F
S31500007FA0491C01708B480068C9B2405C01F09DFD18
S31500007FB0E0040ED4200713D4600616D4200602D59A
S31500007FC0724806210170714800780E49086001B0B8
S31500007FD0F0BD6E4801210170FFF77EFD2007EBD54D
S31500007FE06A48032101706006E8D5684805210170DA
S31500007FF02006E8D5E4E7C04614E600003804001081
S315000080005C060010F4C0004080B500F01DF80020AA
S3150000801080BD0000704800787047C04680B5FFF705
S315000080205BFD80BD80B56B488349016000F006F9B1
S31500008030FFF7A2FEFFF750FD80BDC046014800884D
S315000080407047C046A806001080B502466348002166
S315000080500170794802705F480168054801605C4814
S315000080600078491C01F039FD5B480621017080BD8E
S315000080704C07001003480121017057480A2101707E
S315000080807047C0469D060010CA010010B0B53748BB
S315000080900178022911D136490A88521E0A80110434
S315000080A00BD1344905220A70C94903230B703249A2
S315000080B00A7000210170314A1170017801290FD12F
S315000080C02B490A88521E0A80110409D12C49042220
S315000080D00A70BF4903220A70002101702748017007
S315000080E03D4C2078082816D801218140672292004D
S315000080F0114206D02848018800290DD0491E01806A
S31500008100B0BD00280BD0062805D11F4801880029DC
S315000081100CD0491E0180B0BDFFF7DEFCB0BD1F4D7F
S315000081202888002818D0401E2880B0BD2B4800782B
S3150000813000280BD015490720087015490A78022334
S3150000814013430B701349097800F08AF8022001F0F6
S3150000815071FCFFF7C1FCB0BD0820FF2100F080F8DC
S315000081600A202070E048C0882880B0BDA60800100C
S31500008170A4080010AD080010B2080010A7080010EF
S3150000818058090010CA01001060070010930600107D
S315000081905C060010A40300103804001070040010E0
S315000081A080B5DD4802780A4800780A490968491C02
S315000081B001F0A5FC002806D00748072101700748F2
S315000081C00121017080BDFFF787FC80BD9E0600106F
S315000081D0C801001064070010CA0100109C030010BB
S315000081E080B5FFF747FF80BD80B5082801D9052077
S315000081F080BDC9490870FFF7D3FF002080BDC04687
S315000082009E06001080B50120082100F02DFF80BDDC
S31500008210704780B5FFF7FCFF80BD0000B0B504468F
S315000082200025294600F0D8F82046294600F046F8F1
S31500008230B9494870B0BDC0469E060010AA48064916
S31500008240C1601B21817205498122920002814B2265
S3150000825012020260416070471400E803E8038813C5
S3150000826080B5082822D8820001A39A589746C046AE
S31500008270958200009D820000A5820000AD8200006C
S31500008280AD820000AD820000AD820000AD8200002C
S31500008290B3820000084600F035F880BD084600F0BD
S315000082A075FB80BD084600F037FB80BDFFF72AFC52
S315000082B080BD0846FFF70EF980BD704770B582088D
S315000082C043085A40040962404240D207520EC5088C
S315000082D046096E405E406640F343DB019B18FF2271
S315000082E0D2431A43012906D142401106890F04D010
S315000082F00020C04303E0104301E03F210840C0B224
S3150000830070BD0000FEB5FFF7D7FB05464A4805706D
S31500008310FF2D50D02801494E305C012829D1009507
S3150000832028013018C0680190007802A90870087802
S3150000833000013018C488087800013018077A002038
S315000083400646BE422AD2A1B2224A515CFF290DD06E
S31500008350019800784B49401845782846FFF7ACFB52
S31500008360354908702846FFF759FF0220641C761C21
S31500008370E7E7290171188978012916D100281DD04F
S31500008380E24C2078002816D0E2480078032812D064
S3150000839000F0B0F82078401E207013E0C0B202282A
S315000083A0009D264E0ED0012805D1280130184078B0
S315000083B0FFF72AFEFEBDFFF7E9FCFEBD00200146E1
S315000083C000F00AF8280130184078FFF70DFFFEBDCF
S315000083D0CB0100108B010010F0B51748047820017E
S315000083E0164A12185378C7480370928800290AD093
S315000083F00121134CCDB2AB421CD3455D96B2A555B7
S31500008400521C491CF6E70F490D5D01240E4EE7B2DA
S31500008410DBB2BB420ED37B1E2946D940C90701D029
S31500008420F35C02E091B2064B5B5CC355521C641CC4
S315000084300378ECE7F0BDC04636040010D4E5000032
S315000084408F0100109906001094030010B0B5054680
S315000084500B490024CC708C704C70AB4800780870C7
S315000084601422204601F0C6FE01200649062201F02C
S31500008470C1FE287821462246FFF7B6F8B0BDC046B1
S3150000848060010010780100107047000070B5A24925
S31500008490C8680988CA0081184B78F0241C40102C43
S315000084A001D0891C00E0C91C805C7E2800D17F2099
S315000084B00C789C4DA97A00260C4AB1420DD0935DEA
S315000084C0A34201D0761CF8E7094901228A5501F03A
S315000084D005FCF0B2A97A814204D10021112220467E
S315000084E000F028F970BDC04668060010B8E5000027
S315000084F0780600101CB56846EB490024224601F0B8
S31500008500EDFE8048082C05D001196A46125D4A70B6
S31500008510641CF7E71CBDC0469E060010F8B57948F6
S31500008520437881780A09012A03D0002A03D1C47846
S3150000853002E0047900E0FF245DB27D2D09DCD34D15
S315000085402D789D4205D0D04D2D789D4267D1B02C17
S3150000855065D16F4E3578022D04D17E2B17D16D4C27
S31500008560247805E06B4C2478042D0BD17E2B09D1A1
S31500008570002C07D1CE4802210170D048C089D049CD
S315000085800880F8BD032C17D1022A15D1ACE0614D45
S3150000859000242C70C44DEC802C6005272F71BE4D35
S315000085A0EC802C602C71C14D02272F705B4D2C7016
S315000085B05B4D2F70BF4D2C707E2B01D0042300E045
S315000085C006233370C378022908D13E2B06D10479DD
S315000085D0802C03D1564800210160F8BD022A22D022
S315000085E0012A31D0002A7FD10F22114006295CD8FA
S315000085F0AF4900220A70494902250D7045490124F8
S315000086000C70A549CA800A600A71401C224601F016
S3150000861092FE464804704448047030786CE0A548E1
S3150000862000210170F8BDA24C02252570A34AD2890B
S31500008630A34B1A800F2211403B4A1378994237D137
S315000086400F293DD0491C3CE00907090DCF18072F1B
S315000086502BD39A4A9189062461438F4225D2ED494C
S3150000866002230B708C490025CD800D600D71D289D7
S31500008670EA4B1A80401C0122009201F05CFE2A4857
S3150000868000990170E74805707D1FA8B22146FCF7E6
S315000086909EF84443291B090400D0401C2349087056
S315000086A03078062820D0042000E000203070F8BD85
S315000086B01B48062101701948017000202070F8BD82
S315000086C000211170194F3978491E3970401C7249C2
S315000086D00124224601F02FFE3078062801D004211D
S315000086E031703978002900D0F8BD0021C94A1170CF
S315000086F00A490D70CB490C70062800D03570FFF77B
S31500008700C5FEF8BD9E0600108A0100105309001030
S31500008710A7080010CB010010A0010010AD08001042
S31500008720B208001068060010A8080010AC08001077
S3150000873008040010F0B585B003AFFF23FB71BB71D1
S315000087407B713A71F8707F24BC7003257D704E4CA6
S315000087502478B028264601D04C4E36783E70012942
S315000087605ED10146B0390B295AD8C04679440979F9
S3150000877049008F440D551D4755554B4F5555050519
S3150000878003A90B71CB7001224A704030887047E014
S3150000879003A803713F4941800121417004703E489E
S315000087A0C1680088C0000818C0793849087037E0E9
S315000087B003A8F221817006214170002A52D0E020E0
S315000087C0104020282CD10020C04301AC207101901C
S315000087D010462146FEF73EFD03A80199C170617857
S315000087E00171A1784171E17881710299C17104200A
S315000087F041B2002914D4C1B201AA515CFF293ED16D
S31500008800401EF5E703A80371214906E003A803719A
S31500008810224902E003A803712149418001214170E8
S3150000882021480121C180057100220260082A08D072
S3150000883003AB9B5CC4680588ED006419A354521C05
S31500008840F4E7734A1180764A1170724A1170194A18
S3150000885011704088184908806F48C0896F490880A0
S3150000886005B0F0BD0F48017903AAD1714188517155
S315000088700088D070090A9171000A1071D0E7801C37
S3150000888003A94870CCE7C0468E0100108A0100108B
S31500008890F3FF0000F0FF0000A0010010F6FF00004B
S315000088A0F7FF00003CE60000B00100105809001078
S315000088B0A60800105309001054090010680600109D
S315000088C0A408001070470000F8B500016C49085C68
S315000088D0012800D1F8BD0C48007883490978009139
S315000088E00A4A0B4B0B4C0028F4D015780126AE40F3
S315000088F01F88E15DB143009EAE400E43E6559B1CCA
S31500008900521C401EEFE7C0463AE6000024E600008F
S3150000891026E600008F010010F8B5044671480125CF
S315000089200570584E30780101554A505C5718112889
S3150000893006D0002806D100200121FFF74DFD01E0F9
S3150000894000F014F8387AF98832782F4B9D540022BB
S315000089504D4B824205D28DB2FF265E55521C491CF4
S31500008960F7E7204600F092F8F8BDC04680B5064805
S315000089704078002802D0FFF7D1FD80BD5B48012179
S315000089800170FFF72DFC80BD9E060010F8B5044669
S315000089905448012505703B4E37782046FFF78CF882
S315000089A0307000F043F8307817490D543901344AD5
S315000089B05118C968002909D0144A127809789142D9
S315000089C004D1494900220A70FFF77EFF204600F0D5
S315000089D05DF83D2C17D10E480188491E0180080418
S315000089E007D00C4805700C48C0890C490880022045
S315000089F007E00B4802210170064A00201070094A60
S31500008A00117009490870F8BD9506001042E600008D
S31500008A1056090010A608001068060010A4080010E9
S31500008A2058090010CB010010A7080010B0B50101CD
S31500008A301348425C112A22D0012A13D11149097820
S31500008A4009014118C968097809014118087AC988D5
S31500008A5000220D4B824212D28CB2FF251D55521CAC
S31500008A60491CF7E74118087AC9880022064B82425A
S31500008A7005D28CB2FF251D55521C491CF7E7B0BD27
S31500008A80D4E50000360400108B010010B0B514497F
S31500008A900A88930707D0134B1B78134C2478254676
S31500008AA01D43AD0004E00F4B1B780F4C24780025C6
S31500008AB02C435B0023430D4C2478E4001C430C4BF1
S31500008AC01B789B0123431343FF2804D00002DAB22C
S31500008AD01018102303430348002202700B80B0BD18
S31500008AE0AC060010AB060010940600109D060010A0
S31500008AF0AA06001002480068800480147047C04629
S31500008B000070004008180349884201D300207047CE
S31500008B100120704701000100F0B581B00027FE4337
S31500008B20002829D114460D4608461146FFF7EAFFEC
S31500008B30002821D079487A4EC15D491EF1557F1C27
S31500008B40382FF9D13620FF213154B17772B6754FDF
S31500008B50754838600120000674490A6882430A6035
S31500008B602846214600F00CF8C748386062B638211E
S31500008B703046FBF788FB0026304601B0F0BDC04604
S31500008B80F0B581B0451800F08FF80446681E00F075
S31500008B908BF8A74D29681022009291432960401C4A
S31500008BA087B2BC420ED20A4E7F20214601402A4699
S31500008BB00C3A136883435818106030688047641C69
S31500008BC0A742F1D1286800990843286001B0F0BD9A
S31500008BD05C010010F0B581B01D4616460F460846EA
S31500008BE01946FFF78FFF0024002805D03846314686
S31500008BF02A4600F005F800E0E443204601B0F0BD47
S31500008C00F0B587B017460C4605460321084011D03B
S31500008C102A468A43116852680592049104A90918E4
S31500008C200822161ABE4200D33E4620463246FBF7BD
S31500008C3011FB00E00026B81B072103460B4008285D
S31500008C4024D3024600938A430394A1190295019600
S31500008C5077190023FC186468FD58CD54CE1834717A
S31500008C60280EF070280CB070280A7070200EF07173
S31500008C70200CB071200A7071059404950833934254
S31500008C80E8D3019EF618039C029D009B002B09D099
S31500008C9070597119496805910490A01904A91A46DA
S31500008CA0FBF7D8FA07B0F0BD400A80B27047000063
S31500008CB0F0B581B00025EF4300282BD11C460E46A7
S31500008CC0009208461946FFF71DFF002822D01348D8
S31500008CD0134F415D491E79556D1C382DF9D136204B
S31500008CE0FF213954B97772B60E4D0F48286001201E
S31500008CF000060E490A6882430A60304600992246F9
S31500008D0000F016F86048286062B638213846FBF74E
S31500008D10BAFA0027384601B0F0BDC04601E50000AA
S31500008D2000000010F800FF0055AA55AA1C00FF001D
S31500008D30F0B58BB0079105463D49086810230393AB
S31500008D409843086003202B4603400026F743002B78
S31500008D500695059204971AD00897099785432868BF
S31500008D60696809910890164608ACE0180822D21ADC
S31500008D70B24200D3324607991646FBF76BFA2D48E6
S31500008D800268284621469047059A069D049F10468C
S31500008D90941B072122460A400292082C33462ED302
S31500008DA08C435E1901930798C71800257819017935
S31500008DB04279120251188279C3791B029A18120459
S31500008DC051180991795D4278120251188278C0785B
S31500008DD000028018000440180890701915490A68A6
S31500008DE008A990470835A542E0D3019B5B19069D6B
S31500008DF007990598049F029A002A04D111E0029A65
S31500008E000799002A0DD008970997801A091808AC07
S31500008E1020461E46FBF71EFA701906490A682146C7
S31500008E20904703490868039A104308600BB0F0BDE9
S31500008E302800FF0074010010B0B50C463D4D062811
S31500008E4000D20C350621FBF7C2FC88002958072200
S31500008E50914321432950B0BD084809490160094999
S31500008E600A68042313430B600A6802231A430A6044
S31500008E704A681A434A60044901607047FC10004082
S31500008E805A5A5A5A2410004078563412F0B581B016
S31500008E9004460078274E062800D20C36FFF7DCFF82
S31500008EA061787048244F02290ED3891E012916D8ED
S31500008EB021787A687B68574D1D4001238B40134308
S31500008EC00340591979600AE021783A683B68514DA8
S31500008ED01D4001238B401343034059193960227901
S31500008EE007211140A278012A03D0022A02D140317B
S31500008EF000E02031E278D207D70E0F4361780222D4
S31500008F000A43032A01D1401C074325780621284637
S31500008F10FBF75DFC880037506079002807D02946AA
S31500008F2000F00CF80020C04303498860C86101B016
S31500008F30F0BDC0460020004008800040B0B5401E8D
S31500008F4004284ED8784400794000874402151B2A2D
S31500008F503E000120884043498143224802680A4076
S31500008F6003682C4C23409A18026042680A40416804
S31500008F70214089184160B0BD01228A401948016824
S31500008F80914313E001228A40164801681143354B8C
S31500008F90194004681F4D2C406118016041689143D7
S31500008FA00DE001228A400F48016811432D4B1940FC
S31500008FB00468184D2C40611801604168114319403E
S31500008FC042682A4051184160B0BD012088400549D9
S31500008FD00A690243F34810400A69F34B1340181814
S31500008FE00861B0BD1880004010B5012383400848D1
S31500008FF00268EC4C002902D01A43224001E09C434F
S3150000900022400168E84B0B409918016010BDC0462C
S315000090100480004000FEFFFF421E012A01D9012004
S315000090207047012801D0054800E003480068DD4A82
S3150000903002400A60002070472C6000402CB00040BF
S31500009040421E012A01D901207047012801D0D448C7
S3150000905000E003480068D34A02400A6000207047D7
S3150000906014600040FF010000421E012A01D90120C0
S315000090707047012801D0124800E010480269054BEC
S31500009080134059180161016810220A43026000204A
S315000090907047C04600FCFFFF421E012A01D901208D
S315000090A07047012801D0F14800E0EF48026801232B
S315000090B09A435118016000207047C046086000407E
S315000090C008B00040421E012A01D90120704701283C
S315000090D003D105480068C0B201E002480068087084
S315000090E00020704730B0004030600040421E012A28
S315000090F001D901207047012803D105480068C0B294
S3150000910001E00248006808700020704704B0004083
S315000091100460004010B504460120022C0AD8002C39
S3150000912008D0002A06D0002B04D00221204600F0E9
S3150000913049FA002010BD000010B50246401E012865
S3150000914001D9012010BD0020012A08D10F221203E7
S31500009150964B1C6894430907090C6118196010BDE9
S31500009160F0B581B004460120022C56D8002C54D00C
S315000091701546002A51D01E46002B4ED00F466420BD
S3150000918000BF401EFCD1264A2649012C104600D0BD
S315000091900846406E800613D40121204600F012FADC
S315000091A0012C1F4800D01F48826802218A43826032
S315000091B03A467D3A531E9A413C2F0FD100220EE0CB
S315000091C0012C00D00A46D06D20210143D1650C2127
S315000091D0204600F0F7F9042001B0F0BD9201836843
S315000091E04027BB439A18826082680F231B049A4368
S315000091F033071B0BD218826082680A438260816A39
S315000092004907FCD4012C064B00D0064B2878196878
S31500009210FF22914308181860002001B0F0BDC04637
S315000092200060004000B0004025490A68042313434B
S315000092300B60421E904140000A6802239A43024393
S315000092400A6030BF7047C04680B5032825D8800025
S3150000925001A210588746C046699200007792000026
S315000092607D9200008B9200000C48002202600846A6
S3150000927000F016F880BD0948012201E007480222E5
S3150000928002600846FFF7D0FF80BD0448026803234A
S31500009290134303600846FFF7C7FF80BD00C00040C8
S315000092A007490A6804239A430A60421E9041400017
S315000092B00A6802239A4302430A6030BF7047C046D9
S315000092C010ED00E0F0B581B0022801D9012560E07B
S315000092D00D460446002819D0574800680006000FBE
S315000092E0411C2D48FBF773FA070938462946FBF758
S315000092F06EFA064628467043381A00012946FBF7DF
S3150000930066FA2649012C11D0254A11E000F0D8FF53
S315000093102946FBF75CFA26490A68264B1340401E8D
S31500009320254A024098180860002532E00A46103A9D
S315000093300007000C1B4B1E40801910607D488542BB
S3150000934012D3012C24D10868174A024008320A6059
S3150000935000254D6120462946FFF7EEFE13480168B9
S3150000936040229143016014E00025012C11D10868C8
S315000093700D4A0240C8320A60072048610321204690
S31500009380FFF7DAFE0948016840220A43026000E05E
S315000093900025284601B0F0BD006CDC0224600040C8
S315000093A014B00040FF01000000FEFFFF2CF000405B
S315000093B00440004000C0FFFFFF3F000010B5DA4A3E
S315000093C0DA4B136002280AD001281AD0002830D1BF
S315000093D019481038016802230B43036029E0164838
S315000093E0436902241C434461436904241C434461C9
S315000093F049784369F024A3430907090E59184161C6
S3150000940017E00D4803680124234303600368A34360
S315000094100360036802241C430460036804241C439D
S31500009420046049780368F024A3430907090E591814
S315000094300160DE48106010BD20100040B0B5002865
S3150000944010D00C460546032100F0BCF8012D04D0CF
S315000094507848012C04D1072103E07548012CFAD085
S3150000946003490160B0BDC0460860004008B0004036
S31500009470ED81086010B5022800D910BD08D001287A
S315000094800FD00028F9D102200121FFF7D5FC10BD2D
S3150000949003200521FFF7D0FC04200146FFF7CCFC92
S315000094A010BD0129E9D1072002242146FFF7C4FC9B
S315000094B008202146FFF7C0FC10BD000070B5144619
S315000094C00E460546097BFFF7D5FF28463146FFF7CE
S315000094D075FF31692846FFF7F5FE012D27D1327B4E
S315000094E00120024012490B6883439A180A60327BB6
S315000094F0012A03D10A6804239A430A600A690823E9
S3150000950013430B610203CB681343CB603169094AED
S31500009510914203D38003716881437160317B284691
S31500009520FFF78CFF311D2846224600F005F870BD76
S315000095300C600040014B0000F0B5114B114D0128A5
S315000095401C4600D02C46261F37680F4C2743376031
S315000095504E79002E0DD0012800D02B4609681D68D3
S3150000956021408D431D60800008494018001F02609D
S31500009570F0BD012800D02B46186820431860F0BDC6
S315000095806060004060B00040FFFF7F006807001089
S31500009590B0B50C46411E012901D90120B0BD0128F4
S315000095A001D00A2500E005252846FDF7B5FB28462B
S315000095B0002C03D0FDF7E8FB0020B0BDFDF7CCFB87
S315000095C00020B0BD70B5CA07194A1A4B06D18C07E0
S315000095D00FD44C0718D4090721D470BD01281446AE
