S3150000400053573A312E30312E425F32363033313308
S30D000040105F333139375F3034AC
S3150000401853573A45484953464C2E312E33432E3092
S30D000040283520202020000000D5
S31500004100D00F0010C1410000B5580000D154000086
S315000041100000000000000000000000000000000099
S31500004120000000000000000000000000E94100005F
S315000041300000000000000000EB410000F5590000FF
S315000041407D520000154A0000EF410000B55B0000FB
S31500004150EF4100000D5900003D4A0000EF4100000C
S31500004160EF410000115C0000ED670000EF41000028
S31500004170EF410000EF410000EF410000EF41000079
S31500004180EF410000EF410000EF410000EF41000069
S31500004190EF410000EF410000EF410000EF41000059
S315000041A0EF410000EF410000EF410000EF41000049
S315000041B0EF410000EF410000EF410000EF41000039
S315000041C072B60B480B4901600B480C490160002090
S315000041D00B490C4A0860091D9142FBD30A488047E7
S315000041E00A480047FEE7FEE7FEE7FEE7FEE7FEE7D2
S315000041F000F0004098BADCFEF800FF007856341252
S31500004200D8010010D00F0010455A0000755C000060
S3150000421030B50B46014600202022012409E00D4658
S31500004220D5409D4205D31D469540491B25469540E0
S3150000423040191546521E002DF1DC30BD70B5002424
S315000042402546002801DA01244042002901DA012529
S315000042504942FFF7DDFFAC4200D04042002C00D0BF
S31500004260494270BD03460B439B0703D009E008C9CA
S31500004270121F08C0042AFAD203E00B780370401C10
S31500004280491C521EF9D27047D2B201E00270401C9E
S31500004290491EFBD270470022F6E710B513460A46C0
S315000042A004461946FFF7F0FF204610BDF8B5024652
S315000042B04A40D40F42004B0052085B089A4202D291
S315000042C00246084611464A0023D0C30D4A00DDB215
S315000042D0120EAD1A202D35DA49020126490AF605D5
S315000042E08A19002C00D0524220214F1B1146B9409A
S315000042F02A411018C20D9A4221D0002C17D0012D48
S3150000430008DCDA05801AD20F8019D207DBB200F07A
S31500004310E9FAF8BDDA05801A012340001B06C01829
S3150000432080185A428018CA0F1043490007E049080E
S31500004330C2071143DA05801A80194008801800F078
S31500004340C9FAF8BD61000122511A001BF7E70122E4
S31500004350D2075140AAE70122D2075040A6E70246FB
S3150000436070B54A40D30FDB0740002DD04A002AD053
S31500004370010E140E000212020919400A520A84188C
S31500004380E50104465443000A120A2E045043A419B8
S315000043904219200CC543AA18120C0125AD03521C64
S315000043A0521912047F39240400D0521C104301D440
S315000043B04000491EC2B20C06C0092018401C400825
S315000043C0802A02D003E0002070BD4008400000298A
S315000043D000DA0020184370BD70B502464A40D50F7A
S315000043E040004A00ED0740085208002814D0002A71
S315000043F012D0C40DD30D41020120C0055202490A54
S31500004400520AE41A091812187D34914201D3641C29
S3150000441000E04900002C01DA002070BD0023914223
S3150000442001D3891A0343400849000028F7D100291F
S315000044300AD0914202D10121C90705E0914201D279
S31500004440012101E00121C943E005C018401900F02F
S3150000445041FA70BDF0B507460846584087B0C00F10
S31500004460049048000E46590040084908BC1A884185
S3150000447005D2384631461E4617460B4602465800B8
S31500004480400810434CD0300D039040055900400DB4
S31500004490490D0590401A0290402872DA180301214E
S315000044A0000B09050843019004980092002805D0E6
S315000044B001995242002088410092019002984021C1
S315000044C00A1A0199009800F0D1F905460C466B4688
S315000044D007CB00F0ECF9C0197141039A0E0D0023C9
S315000044E0D71756401A467A40164344D0049A002AF3
S315000044F02DD0029A012A039A15DC1205C01A9141A1
S3150000450001263605001C7141D20F059ED207009385
S31500004510019202962A46234600F02AFA07B0F0BD19
S3150000452038463146FAE71605224A0F46B218C01A2F
S31500004530B74101210905001C4F4100187F41114672
S3150000454018187941E20F10436D19644113E0E20730
S315000045506D0815436408C2071443039A0126120521
S31500004560C01A91413605001C7141CE074008304300
S315000045704908C01851412A46234600F0ECF9CDE718
S31500004580FFE7049801224000C117121A00238B414D
S3150000459004983146C417381AA141EEE730B4012415
S315000045A0E407634030BC55E730B40124E4076140BA
S315000045B030BC4FE70000E0FFF0B51FB488B00B99A0
S315000045C00998002448400999C00F490049080991F3
S315000045D0C0070B990090490049080B910999089862
S315000045E0A64608431CD00B990A98084318D0099888
S315000045F001244000420D4800410D0998240500039E
S31500004600000B204309900B980003000B20430B90EE
S3150000461050181C494018002201901446104605E027
S31500004620002001460DB0F0BD032801DA034600E084
S3150000463003239C46C11A0AAE0AE05F0008ADED5B93
S315000046404F00F75B7D430027AA187C41491C5B1E7F
S315000046506145F2DD410004AB5A522104120C0A43B3
S31500004660240C401C0828DFDB019802900099704654
S3150000467001910090059B049A0799069800F078F935
S31500004680D0E700000DFCFFFFF0B50C465C4085B09E
S31500004690E40FE40703944C0000266408590094468E
S315000046A0490802460296224321D062460A431ED09A
S315000046B06200570D4A000E032303550D01240246DE
S315000046C02C492405781B1B0B360B40182343264325
S315000046D0614600901C46501AB44103D30098401C12
S315000046E0009002E0921800985B41002803DA00204F
S315000046F0014605B0F0BD00200121090507468646A2
S3150000470011E064461D46141BB54106D36546521B8F
S31500004710B341744607430C43A646CD0740084908F3
S31500004720284392185B4105460D43EAD110461843CB
S3150000473013D06046194650407140084306D0604683
S31500004740101AB34106D20122002306E000220123FB
S31500004750DB0702E00122D24353100098744601059C
S31500004760381C6141029C039D0019694100F0F3F871
S31500004770BFE70000FD030000C217C10F504010B58F
S315000047804018CA079623002100F0ACF810BD10B5FA
S3150000479000229623114600F0A5F810BD0EB5C217EB
S315000047A0C10F5040CA0740180021054B02930192E1
S315000047B000910A460B4600F0DBF803B000BD00008E
S315000047C033040000C20F410040020123400ADB050A
S315000047D0D207090EC0187F2901DA002070479629F2
S315000047E003DC9623591AC84001E096398840002A0E
S315000047F0F4D040427047C20FD207400040080BD0A9
S31500004800C10D0723DB01C91840020905400A1143FF
S31500004810C208400711437047002001467047CB0F7E
S31500004820DB07490010B5490802460A4307D00A0DBE
S3150000483007240903E401090B121B002A01DC0020EE
S3150000484010BDC900440F0C43C100E018D205801802
S3150000485000F040F810BD00000122D207002800DB5E
S31500004860101A002900DB511A8842704710B5202A19
S3150000487004DB0146203A9140002010BD91402023E0
S315000048809C1A0346E3401943904010BD10B5202AF8
S3150000489004DB0846203AD040002110BD0B46D34029
S315000048A0D0402024A21A91400843194610BD10B5E5
S315000048B0202A06DBCB170846203A1041C1170B43C6
S315000048C006E00B461341D0402024A21A914008432B
S315000048D0194610BD002904DA401C490001D14008E0
S315000048E04000704770B40024050C05D11024000464
S315000048F002D1002921D01124050E01D1000208346D
S31500004900050F01D10001241D850F01D18000A41CD3
S31500004910002801DB4000641C002908D020252E1B3E
S315000049200D46F540A14000D0012129430843010668
S315000049301B1B000ADB1D02D5002070BC7047DB057F
S31500004940181880180029F8DA401C4900F5D170BC07
S3150000495040084000704710B5002B08DA0024401CC0
S31500004960614192185B411A4301D14008400010BDD5
S31500004970F0B51FB482B005460C0003D0084609F016
S3150000498005F802E009F002F82030024600902146C0
S315000049902846FFF76BFF049B059A04460F4618430B
S315000049A01143084314D0184610431BD000984021E9
S315000049B00A1A18460599FFF769FF05460E46009A3A
S315000049C005990498FFF752FF084305D0012004E03B
S315000049D02046394607B0F0BD0020C11705430E43F7
S315000049E02C43374300990E986305401A7905E40A6B
S315000049F000220C43FD0A0A3002D500200146E9E7F1
S31500004A000105101969410C9C0D9D00196941FFF7BC
S31500004A10A2FFDFE7B0B5074D68681F24044008D041
S31500004A2005480168002901D02046884728682043A8
S31500004A302860B0BD0C7000403C03001070B50A4DF4
S31500004A406E680124204604F05FFA002801D007486A
S31500004A500470022004F058FA002801D000F028FF64
S31500004A6028683043286070BD2CC00040FC08001048
S31500004A70B0B593490C78032C21D8924BDA1C104917
S31500004A807C4424796400A7440D0105090C49091DDD
S31500004A90133306E00A49891C0B3302E00849891DD5
S31500004AA01B331A461378002802D08020034301E006
S31500004AB07F20034013700878FE2202400A70B0BDC2
S31500004AC06F010010F0B581B0052852D878440079FE
S31500004AD04000874402154E4E3D4647480368002273
S31500004AE000920120022101F0E9F9444908600028FA
S31500004AF001D001F0FBF900F01FFF00F03DFB38E0AC
S31500004B0004F06CFA00F07CF800F0ACFD00F066FFF3
S31500004B10334D287802282ED0012844D0002828D1E9
S31500004B2032480178012924D10021017031480078EA
S31500004B30012843D12748016802220A43026008205F
S31500004B400124214603F0ACFE294844702C703CE059
S31500004B502248012101701F48016802229143016029
S31500004B6007E01C48016802220A4302601A4800F066
S31500004B709BFC01B0F0BD1B4E30681B4F3968081A0C
S31500004B8000097C2803D8194800780128F1D10820AB
S31500004B900024214603F084FE1548022141702C7042
S31500004BA038683060E5E70F4800680F490968081A59
S31500004BB080090528DDD302202870DAE708200021C5
S31500004BC003F06EFE0A480221417007480068054955
S31500004BD00860CEE73850004088130000D501001069
S31500004BE0020A0010040A00104C000010000A00100F
S31500004BF0C0030010FC0900104C030010D80100107F
S31500004C0080B500F063F800F001F880BDB0B5F24859
S31500004C100179002953D000210171F5480078811EE1
S31500004C2002291BD3012833D0002848D12020EB4984
S31500004C300A5C5006C30F244843709206120F027096
S31500004C4021228A5C2223C95C09028918FF235B01A1
S31500004C500B401F21114059184180B0BD2120DF4A69
S31500004C60105C0F23034018490B70C306DB0F4B7013
S31500004C702223D35C5C0924022325525D02251540BC
S31500004C80EA0212191B0218184009C0B2101815E0E2
S31500004C902121D248425C5107CB0F0B494B70930040
S31500004CA02024045DA409E3180F241C400C7092060E
S31500004CB0520F2223C05C4009800280184880B0BD94
S31500004CC0040400107A010010BC030010F0B581B096
S31500004CD0C0480078411E8841FFF7CAFEBE4C2078C6
S31500004CE000285AD0BD48037907260122BC490C7812
S31500004CF0002C009201D0134300E0B3430624A343E3
S31500004D004C78A407640FE418B64B1C71B64F3D7877
S31500004D1010222A433A7042795A713A782023134373
S31500004D203B700023AC4803708A785506AD0FC878EF
S31500004D300007800E40190D79AD014019A74D687125
S31500004D402640D000801928713878CF2202403A7068
S31500004D5088790F220240487900018018A34C2278F6
S31500004D60A871009802402270087A03220240C8798E
S31500004D700007800E8018497A890140186178E87129
S31500004D8094480370F82008406070934C9848017866
S31500004D90002902D0037006F01BF9A07800285BD02A
S31500004DA08E490C7D072301208D4A1578002D009031
S31500004DB001D0044300E09C430625AC435578AD077B
S31500004DC06D0F2C19874D2C71874FBE7810203043FC
S31500004DD0B870487D6871B87820250543BD700026F7
S31500004DE07D48867090784506AD0FD1780907890E03
S31500004DF049191579AD014919784D69752340764CE5
S31500004E00C000C0182875B878CF210140B9709079D4
S31500004E100F210140507900014018744B1979A8758B
S31500004E202F46009D29401971107A03210140D0793F
S31500004E300007800E4018517A890140185979F87593
S31500004E4064480670F82008405871694908780128B6
S31500004E5002D00D7006F0BCF8607800285BD05F4881
S31500004E60047B072301225E490D78002D009201D0B4
S31500004E70144300E09C430625AC434D78AD076D0F07
S31500004E802C19584D2C71584F7E78102232437A7067
S31500004E90427B6A717A78202515437D7000264E483C
S31500004EA046708A785506AD0FC8780007800E4019FF
S31500004EB00D79AD014019494D68732340464CD00029
S31500004EC0C01828737878CF2202407A7088790F222A
S31500004ED00240487900018018444B9A78A8730098DC
S31500004EE002409A70087A03220240C8790007800EB1
S31500004EF08018497A89014018D978E87335480670D0
S31500004F00F8200840D8703A480178022903D00221D7
S31500004F10017006F05DF8E078002859D02F48047F2C
S31500004F20072301222E490D78002D009201D014434B
S31500004F3000E09C430625AC434D78AD076D0F2C1958
S31500004F40284D2C71284FFE7810223243FA70427F8A
S31500004F506A71FA7820251543FD7000261E48C67032
S31500004F608A785506AD0FC8780007800E40190D796E
S31500004F70AD014019194D68772340D000C018287735
S31500004F80F878CF220240FA7088790F2202404879D9
S31500004F9000018018154B9A79A877009802409A71FB
S31500004FA0087A03221040CC792407A40E2018497AE7
S31500004FB089014018D979E87706480670F820084034
S31500004FC0D8710B480178032902D0027006F000F868
S31500004FD001B0F0BD2B0900102D0900107A01001058
S31500004FE0C003001040030010340900106F010010C8
S31500004FF004040010411E884103490A6801239A43AC
S31500005000101808607047C04614900040F0B581B093
S315000050100246032108460092514307231C468C4052
S3150000502010490D68A5430D600024254606466643D3
S315000050301F46B7400A68BA430A60F2B294400A684B
S3150000504022430A606D1CECB2009A9442EED91B060C
S315000050500A689A430098400740091018086001B092
S31500005060F0BDC0462090004002490A6882430A60AB
S315000050707047C046009000400C2859D87844007903
S3150000508040008744060B10151A1F24292E33383D7D
S315000050904200314800682749486070472E484068FA
S315000050A02449086070472C48806822490861704787
S315000050B02948C0681F49C8637047274800691D49C9
S315000050C008637047244840691A4948617047224876
S315000050D080691849086470471F48C0691549886087
S315000050E070471D48006A1349886370471A48406A2A
S315000050F01049886170471848806A0E49C861704730
S315000051001548C06A0B49486470470A480A4941670E
S315000051100A4981670A49C1670A480B4901600B4978
S3150000512041600B4981600B49C16079210902016127
S315000051307047C0460CF000401D1F37747C00FA0013
S315000051407701EF028CF00040F804040B040B011603
S31500005150FF2080100021403F0800800080B5002815
S3150000516001D0044800E0024800F09EF980BDC04628
S315000051708813000010270000B0B582B01748184900
S31500005180016018490A6802231A430A60434901600C
S315000051901548016819430160082400252046294660
S315000051A003F07EFB114908794A7912021218684603
S315000051B082800A784B781B029A188B78C978090284
S315000051C0C918090489180091294603F0A5FA204652
S315000051D0294603F065FB02B0B0BDC046FC10004096
S315000051E05A5A5A5A1810004038500040B5DB000091
S315000051F0F0B581B044B2002C23D400921F2505409F
S315000052000123AB40194D2B60BFF34F8FBFF36F8F58
S31500005210174D2B608007C20EFF25954003262746B3
S31500005220B743144EB859A8438907090E9140014364
S31500005230B951002C16D40098002813D00E480360EC
S3150000524010E08207D20EFF2494400F230340083B50
S315000052500320834304481D58A5438901C9B29140E0
S315000052602943195001B0F0BD1CED00E080E100E0DB
S3150000527080E200E000E400E000E100E0044881682C
S31500005280044A054B13600160044810607047C0462D
S315000052903400FF00F800FF0055AA55AA78563412CC
S315000052A07E4800887047C046B0B50C46054600F0FB
S315000052B043FD280402197A480068032100F0E4FD42
S315000052C0B0BDC04673490A78022A02D90020C043FD
S315000052D07047531C0B709200891848600120704774
S315000052E080B504A005490022134600F035FD6C493F
S315000052F0086080BD68616C74000000001D530000EA
S3150000530065490A78012A02D90020C0437047531C18
S315000053100B7092008918486001207047F0B585B07F
S31500005320032833D0012800D1A0E0002800D0A7E050
S315000053301F22100455490B688343012084041B195E
S315000053400B6012020B6893430B600A680F239A43A3
S315000053500A607022D2434B6913404B614B69034389
S315000053604B610B6913400B610A6902430A614D499F
S315000053700B68002200927D21890000F09FFD5349B1
S31500005380086000287CD000F0B1FD79E00C463D486D
S31500005390012606704D48006800F0AEFD002528463F
S315000053A000F046FB0420214600F0B2FC36480560BA
S315000053B0364A506CB043506404963005516C014334
S315000053C051640294200CC0B20390324F04984005F9
S315000053D02E4D696C0143696468694024204330217D
S315000053E0884368612A4D2868A043286000260398F0
S315000053F0314603F053FB286820432860234A50694E
S3150000540070218843506138780028049D08D03C1DDF
S31500005410354601CC80470543761C38788642F8D35A
S315000054201D49487800280CD00878002809D00024A7
S315000054304C700E1D01CE8047641C174800788442CC
S31500005440F8D3002DC2D000240F480460052002992D
S3150000545000F05EFC012000F0EBFA1C48006800F04A
S3150000546045FD084804700C48447009E00B48048860
S3150000547000F062FC0A4800682204032100F004FDE3
S3150000548005B0F0BD220400101404001004C0004052
S3150000549000300040CC03001008040010500100103A
S315000054A0180400104C03001080B501460748006838
S315000054B0002801D000F0F8FC80BDC04680B5034846
S315000054C00068002801D000F0F5FC80BD1C04001027
S315000054D0BFF34F8F034804490160BFF34F8F00BFEE
S315000054E0FDE7C0460CED00E00400FA05F0B581B01A
S315000054F006F00BFC002801D1FFF7E0FF00262B4C3D
S31500005500104DA05FA95F081A3C2801DB00F0C6FE1B
S31500005510B61C042EF5D10320C0430121C903474A16
S3150000552013182618B68837464F401F812F18BF8894
S31500005530BE1B4F409F804E409E81801CF0D101B023
S31500005540F0BDC04614070010F0B581B006F0DDFBD3
S31500005550002801D1FFF7B2FF0026124C124DA05FC2
S31500005560A95F081A3C2801DB00F098FEB61C042E41
S31500005570F5D10320C0430121C9030C4BE24A16189A
S315000055802F18BA8817464F4037821F18BF884F40DA
S31500005590B7822718BF88D21B4A403283801CEDD1C0
S315000055A001B0F0BD58060010180700105406001090
S315000055B0B0B50D4B1A78052907D00429144609D130
S315000055C001248440E4B2144303E0012585401446D7
S315000055D0AC431C70601E8441501E8241A24202D020
S315000055E0002000F0EFFEB0BDDC01001080B50529FB
S315000055F006D004290AD1C448827E0120104303E064
S31500005600C148807E01229043BF4A90760020FFF772
S31500005610CFFF80BD80B5052906D004290AD1BA4836
S31500005620827E0220104303E0B748807E0222904328
S31500005630B54A90760120FFF7BBFF80BDB00C001085
S3150000564070470000054800688E490968081A044931
S31500005650884201D80020704701207047040A0010D4
S315000056608713000010B51448017802290DD3134999
S315000056700A68521C0A60124B9A4209D30122027030
S31500005680002008600F49087002E00C480021016004
S315000056900D48817803290ED30C4A13885B1C1380AE
S315000056A09BB20B4CA34206D300231380D04A01239E
S315000056B01370491E817010BDD5010010B40300108F
S315000056C0C5090000F4090010000400104C09001080
S315000056D08913000012480068002802D06C48007840
S315000056E0704700207047C04680B50D480068002806
S315000056F006D002F0F9F80A2802D0654801210170A7
S3150000570080BDC04680B504A004490022012300F0F4
S3150000571023FB0349086080BD6C696E0025570000B5
S31500005720F8080010B0B59CB0052800D97CE0C0464A
S315000057307844007940008744021C777748605848CF
S3150000574003680022009201242046214600F0B6FBA1
S3150000575054490860002801D000F0C8FB02F056FA50
S3150000576001F08CFB5048FFF7ADFD5048FFF7C8FD30
S3150000577050E001F0D9FC02F03DFD474D28780028A5
S3150000578017D001A800F00AFA04460020287002A8E3
S31500005790E0210170642C0ADC019902AD681C2246E6
S315000057A0FEF760FD601C80B2294601F069FA00F040
S315000057B0F1F934480468324D2878012836D10120A1
S315000057C002F008F90020287036E030490020087001
S315000057D02F4908700421022203F0D2FB2D480168EC
S315000057E00124214301602046214603F07DFB06206B
S315000057F003212246FFF7FCFC16E001240025204683
S31500005800294603F071FB062003212A46FFF7F0FC28
S3150000581001F0F6FD02F0AAF818490880184804704D
S3150000582018480068184908601CB0B0BD16480068E2
S31500005830201A80B202F0CEF81348046002F054F841
S315000058400A2801D0FFF73AFE104D287800280AD022
S31500005850FFF7F8FE002806D000242C70FFF720FD85
S315000058602146FFF721FD02F081F8044909888842A4
S31500005870DAD00A4801210170D6E7C046E8010010D7
S31500005880DE0100104C000010E00100103B09001082
S31500005890FC0800102CC00040E9030010F5080010B9
S315000058A04C030010E4010010D5560000E956000034
S315000058B070470000BFF34F8F034804490160BFF3F0
S315000058C04F8F00BFFDE7C0460CED00E00400FA056F
S315000058D080B50A488078002801D0FFF7EFFD084818
S315000058E08078002801D0FFF7E9FD0120C0030549B3
S315000058F0098841400448018380BDC04694080010D1
S31500005900C4080010A8090010B00C0010B0B5074D6F
S31500005910A868074C044008D006480168002901D051
S3150000592020468847286820432860B0BD5C60004058
S31500005930FFFF7F00140A001070B582B000240194A6
S31500005940009422496D46082320462A4602F0BEFDF1
S315000059501F4A917A30391F48C1701F49CB780F26EC
S315000059601E40C6710B7A1E46413EF6B2032E01D387
S31500005970234600E0403B0372D37B0A265E43127C3B
S31500005980B21870327F23134083706A79303A82717D
S31500005990EA79303A4271EA781346413BDBB2032B8F
S315000059A001D3224600E0403A02714A7C332A0AD1EA
S315000059B08A7C312A07D1CA7C392A04D1097D372944
S315000059C001D10021417202B070BDC0460839000005
S315000059D018400000C00300100040000080B50448D5
S315000059E00178012903D10021017001F01DF880BD65
S315000059F0CC0C001070B584480168491C0160C24C8B
S31500005A002078002812D00025042661198A78521CB5
S31500005A108A704B78D2B29A4204D300208870A0597B
S31500005A2080472078361D6D1C8542EED370BDC0467A
S31500005A30B3490A680123002801D01A4300E09A43BB
S31500005A400A607047F0B581B0414A900805D003203E
S31500005A50824340484049FEF705FC404A40481060F2
S31500005A60404F38680124A04338603868F0218843E5
S31500005A70386038680825284338603B481060386825
S31500005A80C00702D07D20000200E0384839680906C8
S31500005A90090F491CFEF7BCFB9749086034480068AB
S31500005AA03448354901600026F0B2FFF7E5FA761C66
S31500005AB0F0B20D28F8D3294B2948186078680721D9
S31500005AC0884378607868284378600221C843FA687A
S31500005AD00240FA603A6902403A617A690A437A6199
S31500005AE0B9690140B961F9690140F961396A014052
S31500005AF03962F96A0140F962396B01403963796BA1
S31500005B0001407963184D1D601C494A6822434A606A
S31500005B107022D2434B6813404B600B6823430B60E3
S31500005B200B6813400B601649164A8A610A68A2433D
S31500005B300A600A6802400A608D611349134A0A60C6
S31500005B40134A13682343034013600D6001B0F0BD90
S31500005B50D801000000000010E8DE0000FC10004044
S31500005B605A5A5A5A0010004078563412006CDC0219
S31500005B7004008000FCF000401032547614C000404F
S31500005B8000A000405555AAAAF800FF0055AA55AA3C
S31500005B900400FF000648002101607047002801D07C
S31500005BA002490160024800687047C046EA010010D9
S31500005BB05002001010B510490869C0071BD0CA680A
S31500005BC001200243CA600D4A10700A680C490B682E
S31500005BD09A180A600B4B9A420DDB4B22D2000A4BF5
S31500005BE01C68A4181C60094B587000200860C74840
S31500005BF001688918016010BD0C300040AA0C001025
S31500005C0014040010CC4C0000E4030010080400103B
S31500005C1010B514484168490703D5016804220A43B0
S31500005C2002604168C9071BD0026801210A4302606D
S31500005C300E4804686078002803D00B4800780028D6
S31500005C4004D00B480068026A0A430262616E20466D
S31500005C508847442141436018406D012100F06AFDE8
S31500005C6010BDC04604900040DC030010A40C0010D8
S31500005C70AC0C001041200002012103F04BF9FFF7A4
S31500005C807BFA00F0C9FD00F017F862B6FFF728FBB3
S31500005C9000F072FB03F0E6FCFFF734FD04A00549B3
S31500005CA00022022300F058F800F06EF8FCE7C04628
S31500005CB061707000C54A000080B50F4800687D21FC
S31500005CC0C900FEF7A5FA401E010E0DD10B490C4A7C
S31500005CD050600C4803680B4003218907591801607E
S31500005CE0002090600720106007480849FF22023212
S31500005CF00260416080BDC04648000010FFFFFF0003
S31500005D0010E000E020ED00E0200A0010015F000036
S31500005D10F0B581B00C46054600265A4FB85D0028FE
S31500005D2004D0B819C2692846214690472436B42EB5
S31500005D30F4D101B0F0BDC046002052490A5C002AE9
S31500005D4002D00A18002353702430B428F6D17047C5
S31500005D50002141700120704710B5002907D00020AE
S31500005D60484B1C5C002C04D02430B428F9D1002008
S31500005D7010BDFF2402341C52181800230362C161AF
S31500005D804360826010BDC046F0B583B05F480168CD
S31500005D903A4802688A4239D05C49096801607D2028
S31500005DA0C00002900027504EF05D00282BD0F51958
S31500005DB0A878012827D155480168A868EA688C1A8E
S31500005DC002994843FEF724FA84421CD368680028E7
S31500005DD00BD00178002908D029490860C269012042
S31500005DE0002421469047264804606878012808D197
S31500005DF0A86802994843FEF70BFAE9684018E8607C
S31500005E0001E00220A8701037502FCDD11D4D2F462E
S31500005E100837002624207043295C002928D02C1836
S31500005E206078002818D00196651C15480460009417
S31500005E301C340026029739682268381F006890478C
S31500005E400837761C28788642F5D3002028700C493E
S31500005E5008600C4D00AFD0CF206A002808D0084853
S31500005E600460E26902200024214690470448046049
S31500005E702437761C052ECDD103B0F0BD5402001098
S31500005E804C030010280A001010B54378022B02D9E3
S31500005E900020C04310BDDC0004196160A260591CDB
S31500005EA04170012010BD0000184A12688160C2606E
S31500005EB07047C04615490968C1607047B0B50022F1
S31500005EC0094CA55C002D04D01032502AF9D10022CD
S31500005ED007E00125A554A218002494705070536061
S31500005EE091601046B0BDC046DC0A0010EF49096853
S31500005EF001228270C16070470221817070470000E4
S31500005F00EA480168491C01607047C0464C00001011
S31500005F10F0B59BB00546089009AC44212046FEF733
S31500005F20BAF90126267086488649874A00F03EFB64
S31500005F30052121711A901F20179016908348109002
S31500005F4083480F9083480D9083480C9083480B90AC
S31500005F50834813901A20159082480E908248834AEF
S31500005F60214600F04FFBDE4908608148814907F071
S31500005F7079F8814800960190804C8149814B2046F2
S31500005F803246079607F028FA7F48A0610094E04C55
S31500005F907E4A7F4B2046314607F064FB2846214661
S31500005FA007F074FB7B487C4902277C4B3A4606F097
S31500005FB091FE7B48009701907A4D7B497B4B2846A2
S31500005FC03A4606F011FB7A4C7A497B4A204605F0A0
S31500005FD0FFFE7A48E06000260596049403956D4816
S31500005FE002907748019077480090E14C2046314670
S31500005FF032463B4607F062FB0898214607F087FBCE
S315000060007148724907F0D0FB243571482024069464
S3150000601065492A46234607F003FC6E486E492A4620
S31500006020234607F0FDFB684C2046694907F0AAFBAA
S315000060302046684907F0A6FBCD48214607F091FBAC
S3150000604066486749674B3A4606F044FE664800973D
S315000060500190664D6649674B28463A4606F0C4FAF3
S31500006060654C6649664A204605F0B2FE6548E06022
S315000060700596049403955948029063480190634835
S315000060800090BC4C2046314632463B4607F016FB94
S315000060900898214607F03BFB5D484C4907F084FB16
S315000060A024355C4852492A46069C234607F0B8FB2D
S315000060B059485A492A46234607F0B2FB544C204613
S315000060C0544907F05FFB2046534907F05BFBA9489C
S315000060D0214607F046FB5248524A394606F046FF2B
S315000060E0514800970190514D5149524B28463A4626
S315000060F006F03CFC504C5149204606F0E3F9504866
S31500006100E060059604940395454802904D48019039
S315000061104D4800908D4C2046314632463B4607F0AE
S31500006120CDFA0898214607F0F2FA2046079907F0BB
S315000061301AFB4649114806F080FF1BB0F0BDC04669
S31500006140F00200107CDC0000BCDB0000BE0000108A
S315000061508C0000104ADC000018DC0000DCDB0000CC
S315000061606E0000105000001058020010C4DB000042
S31500006170C8090010CCDE00008C0900105009001080
S31500006180BADE0000AC090010D1580000B8DE0000ED
S31500006190A80900101C070010ECDD00001407001011
S315000061A054060010BC0500106CDD0000E40600106B
S315000061B024040010D4DC0000ED550000ED5400006E
S315000061C0B407001000DE00005C06001041900000DD
S315000061D0B4060010840600108CDD0000680700106D
S315000061E0F6DD00001807001058060010080600101B
S315000061F0ACDD0000FC060010F004001020DD0000FD
S315000062001556000049550000B807001002DE0000D0
S3150000621070060010CC0600109C060010CCDD0000B5
S31500006220380800105C0800101C080010E807001071
S315000062300EDE000020080010BC07001004DE00007F
S31500006240415600006008001018DE0000F40000103F
S31500006250BC4908707047C046B0B5CF4801242146F6
S3150000626007F02AFACD48214607F07DFACC482146A8
S3150000627007F079FACB4D0021284607F074FA284634
S3150000628006F0AFFE284606F0AAFC284606F086F978
S31500006290C548214607F05EFBB0BDC046AD480121AA
S315000062A001707047014800687047C0464C000010F6
S315000062B080B5A4480078002805D0A64800780028B4
S315000062C007D0012080BD642000BF401EFCD1002005
S315000062D080BD9D480068C16D8847411E884180BDCC
S315000062E0A40C001080B5AF48012107F03CFA80BD30
S315000062F010B5AA480124214607F035FAA8482146D8
S3150000630007F031FAA448214607F0D6F910BDC04679
S315000063109009001080B502F061FE8A4800780028D6
S315000063200CD08B480188491C018089B2042905D309
S315000063300021018084480068016E884780BDC04600
S3150000634080B59848002107F00EFA80BD6408001059
S3150000635010B592480024214607F005FA90482146D8
S3150000636007F001FA8C48214607F0A6F910BDC04691
S3150000637094080010C408001010B50C480C490160C0
S315000063800C4C204605F0AFFC2046FFF7C1FD092066
S31500006390032101242246FEF72BFF07A0084900220D
S315000063A02346FFF7D9FC6949086010BD4400001078
S315000063B0A5620000840C0010746F7563680000000D
S315000063C08D64000001200429024602D0052904D16B
S315000063D0002202490870024802707047000A001045
S315000063E0FC090010F0B581B00C46054602F0A6FD8A
S315000063F0FA49FB480860234A1368022003431360E6
S31500006400136808261E431660FF231B0116689E4369
S315000064101660136804261E431660F34A0A601A4F74
S315000064203968802291433960396840229143396046
S3150000643039682022914339603968814339600126E1
S31500006440F0032946FDF7E4FEF860002C0DD000208D
S31500006450C043B8617869B04378610320014632468B
S31500006460FEF7C6FE3868304309E078693043786144
S31500006470032000220146FEF7BBFE3868B0433860B1
S3150000648001B0F0BD0C10004000300040B0B582B045
S31500006490002828D00C460546401E012809D8294860
S315000064A0007800284CD028480068836D294622468B
S315000064B09847052D2CD0042D42D125480021018076
S315000064C024480170FFF7C8FE1E480078002805D052
S315000064D01D480068836D0421224698471A480068C3
S315000064E0007B01212AE01C4803680022009201205B
S315000064F00146FFF7E3FC19490860002801D0FFF7C1
S31500006500F5FC1748FEF7DEFE1648FEF7F9FE17E023
S31500006510FEF7D4FF0D480068FFF71AFC00F024F8D8
S3150000652008480078002805D007480068836D0521D3
S315000065302246984704480068007B0021FFF752FF77
S3150000654002B0B0BD30010010A40C0010AC0C00105D
S31500006550A80C0010DD0300104C03001038030010D7
S31500006560B16200001563000010B50B4800242146F7
S3150000657007F0A2F80948214607F0F5F80848214631
S3150000658007F0F1F80748012107F0EDF80648214623
S3150000659007F0E0F910BDC0469009001094080010FD
S315000065A0C408001064080010840C0010B0B50B88F5
S315000065B049880904C91801629188D38814885288C9
S315000065C00A4D85600A4DC5600A4D05610A4D456153
S315000065D00A4D85610A4DC5610025456012041219F0
S315000065E042621A04511881620060B0BD299A000007
S315000065F0459C0000359D0000519E00005D9E0000F8
S31500006600A1990000F0B585B004920F460546002416
S315000066100846214600F0E6F93846214602F018FD04
S315000066203846214600F060F938460394214602F0C8
S31500006630E5FC2E461036482230463946FDF712FE56
S31500006640284668301827049C21463A46FDF70AFE7C
S31500006650FFF728FEA96E6960A8606C20285AA881F9
S31500006660608A2F492F4A304BEB652A6669660124FA
S3150000667002952C80012801D02D4800E02B48029D70
S31500006680A865284680303946FDF705FE82202C5441
S31500006690287C002841D00321CF43039B0196442147
S315000066A05943029A5518297D002926D00393284676
S315000066B01430049018350026042428680019C05D9B
S315000066C000F03AF8286801197918C97800290BD022
S315000066D0005DFE210140062904D10120052102F0BA
S315000066E00BF801E000F028F80C34761C04980078CA
S315000066F08642E2D3019E3078039B5B1C8342CED355
S3150000670000280AD0029C54340025206881688847F6
S3150000671044346D1C30788542F7D3029805B0F0BD3D
S31500006720DD9E0000E39E0000E5A700002DA300000B
S31500006730099F000041607047B0B504281FD8044681
S315000067400320062101F0D8FF60000D490C5C0818F3
S315000067504178204601F0D0FF0121A1400948426856
S315000067600A43094B1A404468084D2C40A21842605F
S3150000677002688A431A400168294089180160B0BD41
S3150000678080DC000004800040FF01000000FEFFFFE7
S3150000679080B504280CD803224243064883180029F2
S315000067A001D0591C00E0991C0978805C01F0A4FF17
S315000067B080BDC0468ADC00002B482C49016009498F
S315000067C00A6801231A430A6000BF00BF0A689A4399
S315000067D00A6000BF00BF274901607047FC100040F7
S315000067E05A5A5A5A2C10004078563412B0B5074DF2
S315000067F0A868074C044008D006484168002901D023
S3150000680020468847286820432860B0BD5CB0004019
S31500006810FFFF7F00140A0010B0B513491348086043
S315000068201348026802231A4302601248086012499C
S31500006830124A8A61012214020D6825430D600C6814
S315000068401C430C604B680E4C1C400E4BE3184B600F
S315000068500B6913430B614B6913434B610B6813437D
S315000068600B608861B0BDC046FC1000405A5A5A5AA7
S31500006870141000407856341200A000405555AAAABC
S315000068800000F0FFFFFF0300F0B583B002460027CB
S315000068900297019708460838182821D80D46012482
S315000068A0214681400F4801421AD0EE0802A8009204
S315000068B011463246FDF7D6FC029839460246FA40A2
S315000068C0D20703D06A1E2346934019436D1E7F1CD0
S315000068D0002DF3D1019101A900983246FDF7C2FCC3
S315000068E003B0F0BD01010001F0B50278002A29D0FD
S315000068F00023002914D044245C430419656A002D42
S315000069000AD02479002C07D0ED1C002637462E70BD
S315000069100A357F1CA742FAD35B1C9342E9D311E0E8
S3150000692044245C430419256A002DE4D02479002C04
S31500006930E1D0ED1C002637462E700A357F1CA74293
S31500006940FAD3D8E7F0BD000070B582B015460E4602
S31500006950044601A80D4901801021FFF795FF002D7F
S3150000696010D001A8008831784C406D1E0821012204
S3150000697022405242024064085440491EF7D1761C18
S315000069802904F0D14F48A04302B070BD2110000089
S31500006990F0B581B00446104D104868600027AF601E
S315000069A02868052101432960002C0ED00C4EAF60EB
S315000069B07D20C1003068FDF72BFC0849081A401CF1
S315000069C0A9688142FCD8641EF1D128680121884358
S315000069D0286001B0F0BDC04610E000E0FFFFFF00F8
S315000069E048000010F0B581B000900078002819D05A
S315000069F0002344245C43009A14196569002D0ED0C7
S31500006A002479002C0BD0AD1C002637462E80002999
S31500006A1001D100226A80AD1D7F1CA742F6D35B1C04
S31500006A208342E6D301B0F0BD70B582B00024E043E6
S31500006A30019000902348114E03223146FFF784FF50
S31500006A406D46AC716C71E870000A2871B078A87058
S31500006A50307871780902081828807D2046020120C6
S31500006A6042022046314602F0E1FB08232046314629
S31500006A702A4602F0E7FB02B070BDC04600040010D3
S31500006A8070B582B00024E043019000900D480E4E90
S31500006A9002223146FFF758FF6D46AC806880308889
S31500006AA028801F20C602012042022046314602F0FD
S31500006AB0BDFB0823204631462A4602F0C3FB02B03E
S31500006AC070BDC046FFFF00000404001080B500F052
S31500006AD081FD80BD80B501F056F8002080BD000024
S31500006AE080B51A49012202F003FF80BDBE4900208D
S31500006AF0C88005220A7108601449C88008600871B8
S31500006B005D4A02211170124A1080124A10805B4AB7
S31500006B101070BF4A1170B74A1080B54A10800E4AED
S31500006B2010700E4A10700E4A10700E4A1070AF4A5E
S31500006B3010700D4A1070B14A10700C4A1070AE48B1
S31500006B400170AF48C089AF4908807047A80100109E
S31500006B50360B0010380B0010320B0010310B0010F2
S31500006B60330B0010300B0010340B00102F0B0010ED
S31500006B7080B59D49002202F0E8FE9C480178491C38
S31500006B80017080BD20280BD1252008712420C870F3
S31500006B9023208870222048702120087054207047D6
S31500006BA053207047FEB50C460546334A0127177039
S31500006BB032480078411F02295CD3022802D00328FC
S31500006BC058D0FEE701AE3046FFF78AFF707801091C
S31500006BD0022911D0012912D0002946D10F210840DF
S31500006BE0288001A98978217087423ED201A9C91956
S31500006BF08978E1557F1CF7E70025284621E001A9A1
S31500006C008A780007000D80182880CA782270091D2E
S31500006C10621C0023042B03D0CD5CD5545B1CF9E722
S31500006C20401F05250DE001A8FFF75AFF022008289E
S31500006C3006D001A9095CAAB2A154401C6D1CF6E756
S31500006C40B01F86B2072EEED2002E0ED001A8FFF797
S31500006C5047FF0020C1B28E4207D901AA8918897858
S31500006C60AAB2A154401C6D1CF4E700200349087029
S31500006C700220014A1070FEBD3A0B0010350B0010C1
S31500006C80F0B585B00C46584B0025DD80EB490D70FC
S31500006C9005261E711D605E4A1178012900D1A1E00A
S31500006CA00728029001D201270EE0401F0190062717
S31500006CB03946FDF7C3FA47430199C91B01D0871C22
S31500006CC000E0471C524A484BF8B219898142029BA0
S31500006CD000D287E0464908804648058010460122D2
S31500006CE00270D5480570EB48007803A90870062B9A
S31500006CF00ED803A843702178817001201D46C1B2C9
S31500006D00A94218D2625C03ABC9188A70401CF6E728
S31500006D100092019703A98B701F461805000F1030CB
S31500006D2048702078C870601C091D042D0CD0425D87
S31500006D304A556D1CF9E703A8801CE9B2052947D816
S31500006D40CC224254491CF9E703AD2846FFF710FF51
S31500006D50F34800782870AD1C781F0290019F009AB6
S31500006D607F1E380637D00F201040203003A9487008
S31500006D70521C90B20F2800D9002200920197029867
S31500006D8080B206280BD20021CAB2904211D9B3B202
S31500006D90E35C03AFD2199370491C761CF4E702201A
S31500006DA008280ED0B1B2615C03AA1154401C761CAF
S31500006DB0F6E70298C0B2052806D8CC212954401C13
S31500006DC0F9E70298801F029003A8FFF7D1FEC5E7F6
S31500006DD003A8FFF7CDFE0948012101705248C0897A
S31500006DE00849088005B0F0BDB8010010DB0B0010A3
S31500006DF0DE0B0010DC0B0010D70100102E0B00106C
S31500006E00000900102C0B0010014800787047C0469E
S31500006E10E00B001080B501F0D1FA00F0A3FE80BDB2
S31500006E2000223C2902D07D2900D00A46411C007868
S31500006E30030608D00B78D21893B2FF2B00D9FF3A7D
S31500006E40491C401EF4E7FF20904370470148007834
S31500006E507047C0465103001080B5054802700548CA
S31500006E60FDF700FA04480021016000F02BFB80BD0D
S31500006E70580300105C030010B403001010B50B4853
S31500006E804178012911D100244470FFF7CDFD08494E
S31500006E90C82048710C71F420C870012088704870B1
S31500006EA0502008700620FFF7EBFE10BD000400100E
S31500006EB070030010F0B581B0044606292DD165781F
S31500006EC0A8083E280FD81848407A291D0522D3B2B3
S31500006ED0E35CFF2B02D0CBB2834222D8521E491E5E
S31500006EE0CBB2AB42F3D802268E4FA05D6D1C0028B4
S31500006EF007D0FF2808D0012100F090FEFF2801D11D
S31500006F000BE0FF20E9B27854761C062EEDD12078EE
S31500006F1000210A4600F0D5F803E02078102100F0A1
S31500006F20C3F801B0F0BDC04600090010F0B583B04B
S31500006F300446C078217909020F186079E54D40288A
S31500006F4007D13A484188A9426DD0B9423ED10121C4
S31500006F5045E06178A2781202511801910126314666
S31500006F6000F05CFE029031484188A942009110D0A1
S31500006F706C4A3346B94203D0915D029E8E4206D0DA
S31500006F805B1CDEB27100415AA942F3D101E0FF2138
S31500006F900291CF49019B5A1A511E8A41CB49098851
S31500006FA0591A4B1E9941029BFF2B08D00A4006D165
S31500006FB00099A94237D0B9421AD1012121E01E48D1
S31500006FC0022101701D48002101702CE00222D1B27D
S31500006FD04B00C35AAB4226D0521CBB42F7D1514894
S31500006FE0FF224254207800210A4600F06AF81AE08F
S31500006FF00222D1B24B00C35AAB4214D0521CBB4240
S31500007000F7D14848029D455420780024214622465F
S3150000701000F057F8002D06D10548BB214172AA2180
S3150000702001720448447003B0F0BDC0465C01001014
S315000070307A0100102D090010D7010010DB0B00109B
S3150000704010B50446407800281AD1A278501E0428AC
S3150000705016D82179E078022A04D8DE4B1B88D200A4
S31500007060083A05E0042A06D8DA4B5B88D200183ABB
S31500007070D340DAB201E0D74A12794A40024200D040
S3150000708010BD207800210A4600F01BF860798D4972
S31500007090087010BD6E010010704780B500780021A1
S315000070A00A4600F00EF880BD80B59EB06A46917023
S315000070B050707F20107003201146FFF7E1FD1EB0CF
S315000070C080BD10B59EB0144640306A461070002C44
S315000070D004D06846401C2246FDF7C4F8601C80B206
S315000070E06946FFF7CDFD1EB010BD0000B0B50546E0
S315000070F079490024CC708C704C7072480078087006
S315000071001422204602F0CEFB0120BC49092202F0DF
S31500007110C9FB287821462246FFF7D3FFB0BDC046FB
S315000071206E01001052010010F0B59FB00024334DDF
S31500007130334E344F285D002858D01EA86946FFF705
S3150000714031FD305DAF2813DD0146B039072946D839
S315000071507944097949008F4403151B2127422A30B7
S315000071601EA8028858480078694600F053F83BE0AC
S315000071702F2828D032282CD0A02830D1012022490F
S31500007180087031E01EA801886846FFF7CFFE2BE0A5
S315000071901EA80188684600F0A1F825E01EA801880F
S315000071A06846FFF74DFF1FE0012038701CE01EA85F
S315000071B001886846FFF79AFF16E01EA80188684610
S315000071C0FFF778FE10E01EA801886846FFF765FF06
S315000071D00AE01EA801886846FFF75EFF04E01EA9C4
S315000071E00A886946FFF738FE00202855641C1B2CC8
S315000071F0A0D100F00BF81FB0F0BDC046100900107A
S315000072001ADE0000E8030010E903001080B5FFF75E
S31500007210FBFD80BDF0B583B00C46EB4E3178091A04
S315000072204B424B41284909780F1A7D427D417F38F0
S3150000723047424741062A42D12F431F433FD0607839
S31500007240A27812021218634803889A4202D0624B4F
S315000072509A4234D1E27823791B029A1840888242F6
S3150000726002D01C4882422AD1317020780025294656
S315000072702A46FFF726FF67791748C570857045705F
S31500007280077037707B20440201AE0823284621464A
S31500007290324601F0D1FFB21E0121491E501C9278E0
S315000072A0FF2A0246F9D1002902D00178B94206D058
S315000072B04770002001AA0823214601F0C3FF03B04E
S315000072C0F0BDC0466E01001079010010D4DE00004A
S315000072D0FF7F0000FFFF000038010010F0B583B00B
S315000072E004468178C278100240183A4B1B889842AF
S315000072F009D0394B984206D07148022101706E4878
S315000073000021017059E06078F32828D1FF2A4DD179
S315000073103F294BD12079022848D16079032845D8E6
S315000073207D2047022D4D022638462946324601F079
S315000073302FFF60792978814241D1601C0090384640
S315000073402946324601F024FF26710020E070A07025
S3150000735060702878607120780522009936E0E02177
S315000073600140202925D10025EA4301A90A7101928D
S31500007370FFF708FC53281CD054281ED101A800781A
S31500007380FF2809D101A8401C0021042911D04A1C5C
S31500007390415CFF291146F8D001A8001D415DFF2977
S315000073A010D16D1E691DF9D100220DE02078312122
S315000073B001E020781221FFF777FE03B0F0BD2078B8
S315000073C07221F8E7681DC2B2207801A9FFF779FE9D
S315000073D0F3E7C046D4DE0000FF7F0000040400107F
S315000073E00F49097A054A0B0605D0CBB2D35C491E74
S315000073F08342F8D100E0FF21C8B270475201001065
S315000074000648002101700648C088064908800648DB
S315000074100178FB220A4002707047C046D601001070
S315000074200009001020040010F4080010B0B50C4646
S3150000743005460846FFF7D4FF17490870FC21294086
S31500007440042922D10101154A515C012902D01449AF
S3150000745001220A703D2C0CD03C2C13D11349032277
S315000074600A7013490A70134902220A71124900224E
S3150000747004E00C4906220A710B4903220A700F49DF
S3150000748000220A700E4903220A7000F0B5FE20465B
S3150000749000F094FFB0BDC046DE03001038DE0000E9
S315000074A02C090010B8010010E00B00103A0B001078
S315000074B0350B0010A8010010DB0B00102F0B00107D
S315000074C0D7010010F0B581B03C48002606703C4F4D
S315000074D03C783C4D2878012826D1FFF7B7FC3A497D
S315000074E00978884220D138783E2807D010280BD159
S315000074F0787880210143822912D014E0787880219F
S31500007500014380290CD00EE07978852801D18229A3
S3150000751006D0282807D1832905D1B878032802D1B7
S315000075200120287000E02E70262C14DD3D2C1BDC7B
S31500007530273C102C3CD8C0467C4424796400A744E0
S315000075400823373737373726373728373708370886
S3150000755008007F202DE0132C0FDC102C1CD0112CE2
S3150000756026D103F037FE26E03E2C18D0852C19D004
S31500007570B52C1DD103F0D2FC1DE0142C15D0222C05
S3150000758016D103F097FD16E003F03EFC13E033201E
S315000075900FE003F08DFE0EE003F0EAFE0BE003F0D1
S315000075A051FF08E003F05EFD05E003F0F9FC02E0A0
S315000075B0122001F0C5FE01B0F0BDC0464E09001014
S315000075C05C030010F40900106E01001080B500F095
S315000075D08FF980BD10B50024204600F097F92046AB
S315000075E010BD0000F0B581B0044640051ED5E14847
S315000075F00188491C018000F008FBB3488089B34923
S315000076000880ED4801780A290BD100210170D04885
S31500007610C088D4490880D4480178FB220A40027009
S315000076204FE103210170D04804210170A0061FD547
S31500007630A74802210170E64D2878821F022A17D832
S31500007640062802D0072803D10121012001F03AFDC6
S31500007650A0480178042000F0ABFA00202870BC484E
S31500007660C088C0490880C0480178FB220A400270E1
S31500007670200502D4D648007805E0012001F02FFD50
S31500007680D34904200870610737D5042835D101266F
S3150000769000256F46304629463A4601F05FFD3878A8
S315000076A0314600F0BBFA01468A480170C148009A8B
S315000076B00270FF290CD0002000F07AFABA48007850
S315000076C0400081494018801E00888349088014E0E4
S315000076D07F4903200870A44E317840220A43327055
S315000076E0FF2100F065FABA4805709948C0889D499F
S315000076F008803078FB2101403170E00702D1B448A0
S31500007700007837E001256A462846294601F026FD1D
S31500007710AF4E30780A285ED006282BD1A4480168DF
S315000077204A1C0260009848709F4800789D4F39783F
S31500007730814200D0A2E001250221284601F0C2FCC8
S315000077409C48017899480068FFF76AFB6946097802
S3150000775088427CD109203070E549087828430D46D7
S315000077600870E4480178022000F022FA30780A28EE
S315000077707AD183E0E1051AD5072818D1D94E092018
S315000077803070DB4D2978012001432970D9490978E9
S3150000779000F00EFA00F00CFB00203070D648C088CE
S315000077A0D64908802878FB210140297069E06104E8
S315000077B02CD507282AD1CD48082101700120014681
S315000077C001F080FCCB480178062000F0F1F9E4488E
S315000077D00021017010E06846007801010009401898
S315000077E008214140C8B208284BD88540FF20D23036
S315000077F0054246D000203070D548C088D54908805B
S31500007800D5480178FB220A4002703AE0A10538D536
S31500007810072836D1E5480078D04D2A78824230D8FC
S31500007820B2490B78082B02D10978022929D0C74919
S3150000783009685118491C861A052E00DB0426F2B287
S31500007840012001F09AFC28788019287019E0A748D1
S3150000785004210170C04D2878122101432970A548E2
S315000078600178052000F0A4F900203070B848C088DF
S31500007870B84908802878FB21014029703878401CD7
S315000078803870E0040ED5994801210170B4480021F2
S315000078900170AF48C088AF490880AF480178FB2225
S315000078A00A400270200702D5904803210170600645
S315000078B002D58E4805210170200602D58B48062187
S315000078C0017001B0F0BDC046A8DE0000E003001064
S315000078D02B09001050030010080A001080B500F0B4
S315000078E04BF8002080BD00009D4800787047C046D8
S315000078F09B48002101709648C088964908809648A2
S315000079000178FB220A4002707047C046B0B5904D20
S315000079101048E8601B20A8720F4828810F488B4941
S31500007920A24A0A604B210A022A60686001200024EC
S315000079300B4B214601F0F6FB89480470E88885491F
S31500007940088085480178FB220A400270B0BDC04617
S31500007950000900101400E80307050000E803881377
S31500007960E575000020040010F408001001480088A6
S315000079707047C0464609001080B503467748002187
S3150000798001708A48037071480068094908606E49A9
S315000079900978421C012001F0ECFB714806210170B8
S315000079A080BDC046480300103C0900100C0A0010B8
S315000079B0F8090010D4010010D60100100348012177
S315000079C0017067480A2101707047C0463B090010E4
S315000079D0D6010010B0B53D490A78012A0DD0022A19
S315000079E021D13B4A1388002B0BD13C4A0523137047
S315000079F0CF4A032414703A4A10E0354A1388002B04
S31500007A0007D001041B04591A00D20021090C118069
S31500007A1009E0304A04231370C54A03231370002279
S31500007A200A702D490A704E4C2178082910D8012277
S31500007A308A4067239B001A420BD031490A88002AE4
S31500007A4023D000041204101A00D20020000C088073
S31500007A50B0BD002925D00629FAD123490A88002A73
S31500007A60EFD13E48007800280BD020490720087047
S31500007A7039490A78022313430B701E49097800F02E
S31500007A8097F80120022101F01DFB00202070E0483C
S31500007A90C0883049088030480178FB220A400270CD
S31500007AA0B0BD2C4D2988002906D000040904081A07
S31500007AB000D20020000C07E00820FF2100F078F833
S31500007AC00A202070D248C0882880B0BD2E0B001036
S31500007AD02C0B0010E00B00102F0B0010350B0010C4
S31500007AE03A0B0010D6010010080A00102B090010EE
S31500007AF0F4080010500300100009001020040010C4
S31500007B00E003001010B5CE4C23780F4801780F48DB
S31500007B100068421C012001F034FB002807D02078C1
S31500007B20042800D304200D490870072009E0B8484E
S31500007B30C0880849088008480178FB220A4002707C
S31500007B4000200749087010BDD40100100C0A00106F
S31500007B500009001020040010F4080010480300106B
S31500007B60D601001080B5FFF729FF80BD80B5082833
S31500007B7001D9052080BDB2490870FFF7C3FF002078
S31500007B8080BDC046704780B5FFF7FCFF80BD000092
S31500007B90B0B504460025294600F0D0F8204629460F
S31500007BA000F03CF8A6494870B0BDC0463C0900103C
S31500007BB080B5082822D8820001A39A589746C04665
S31500007BC0E57B0000ED7B0000F57B0000FD7B0000FF
S31500007BD0FD7B0000FD7B0000FD7B0000FD7B0000BF
S31500007BE0037C0000084600F03DF880BD084600F022
S31500007BF065FB80BD084600F027FB80BDFFF716FC3D
S31500007C0080BD0846FFF706F980BD704780B5FEF7D0
S31500007C1061FFFEF75BFFFEF769FF80BD10B5420806
S31500007C2003095340C2085A4044095440E201434004
S31500007C3084085C40E3075B0ED3187F22D2435A4088
S31500007C40012907D1C0210140D2B2914205D00020BE
S31500007C50C04304E00243D0B210BD3F210840C0B289
S31500007C6010BD0000FEB5FFF7BBFB05464B4805708F
S31500007C70FF2D50D028014A4E305C012829D10095AD
S31500007C8028013018C0680190007802A908700878A9
S31500007C9000013018C488087800013018077A0020DF
S31500007CA00646BE422AD2A1B2224A515CFF290DD015
S31500007CB0019800782049401845782846FFF790FB40
S31500007CC0364908702846FFF763FF0220641C761CBD
S31500007CD0E7E7290171188978012916D100281DD0F6
S31500007CE0D54C2078002816D0D5480078032812D025
S31500007CF000F094F82078401E207013E0C0B20228ED
S31500007D00009D274E0ED0012805D128013018407855
S31500007D10FFF7E4FDFEBDFFF759FCFEBD002001465E
S31500007D2000F00CF8280130184078FFF71FFFFEBD61
S31500007D30D70100106F01001052010010F0B517486E
S31500007D4004782001164A12185378BA4803709288AC
S31500007D5000290AD00121134CCDB2AB421CD3455D9C
S31500007D6096B2A555521C491CF6E70F490D5D012434
S31500007D700E4EE7B2DBB2BB420ED37B1E2946D9407C
S31500007D80C90701D0F35C02E091B2064B5B5CC355B8
S31500007D90521C641C0378ECE7F0BDC046DE030010FD
S31500007DA038DE00007A01001034090010400300108C
S31500007DB07047000070B5A449C8680988C900421810
S31500007DC05378F0241C40102C01D0921C00E0D21CE9
S31500007DD01478405C7E2800D17F209A4DA97A00262F
S31500007DE00C4AB1420DD0935DA34201D0761CF8E750
S31500007DF0094901228A5501F0D1FAF0B2A97A8142E5
S31500007E0004D100211122204600F02AF970BDC04697
S31500007E10000900101ADE0000100900101CB56846A3
S31500007E20ED490024224601F063FD8248082C05D066
S31500007E3001196A46125D4A70641CF7E71CBDC0460C
S31500007E403C090010F8B57B48437881780A09012A75
S31500007E5003D0002A03D1C47802E0047900E0FF24AD
S31500007E60FE251D407E2D09D0D44D2D789D4205D08E
S31500007E70B02C34D1D04C24789C4230D16F4E34781B
S31500007E80042C01D0022C0DD17E2B0BD16C4D2D78FC
S31500007E90002D07D1D24802210170D448C089D449A7
S31500007EA00880F8BD7E2B1ED0022C1CD1644D002408
S31500007EB02C70C94DEC802C6005272F71C14DEC80CC
S31500007EC02C602C71C54D02272F70604D2C70604DB3
S31500007ED02F70C44D2C707E2B0CD004230BE0C148B0
S31500007EE000210170F8BD022AF5D1554C2478032CE7
S31500007EF0F1D19DE006233370C378022908D13E2BC9
S31500007F0006D10479802C03D1544800210160F8BDC4
S31500007F10022A1FD0012A2ED0002A00D088E00F2284
S31500007F201140062957D8AE4900220A704749022552
S31500007F300D70434901240C70A249CA800A600A7177
S31500007F40401C224601F001FD43480470414804707C
S31500007F50307868E0A24C02252570A44AD289A44B49
S31500007F601A800F2211403B4A1378994236D10F29C5
S31500007F703CD0491C3BE00907090DCF18072F2AD32F
S31500007F809A4A9189062461438F4224D29449022356
S31500007F900B708C490025CD800D600D71D289EB4B9D
S31500007FA01A80401C0122009201F0CFFC294800995A
S31500007FB00170E84805707D1F28462146FCF73EF90A
S31500007FC04443291B00D0401C2349087030780628FA
S31500007FD02ED0042000E000203070F8BD1C48062199
S31500007FE001701A48017000202070F8BD0021117040
S31500007FF0194F3978491E3970401C724901242246AE
S3150000800001F0A3FC3078062801D1062001E0042007
S315000080103070397800290BD10021CA4A11700B49FA
S315000080200D70CC490C70062800D03570FFF7C2FEE3
S31500008030F8BDC0463C090010DB0B00102F0B0010EA
S31500008040D701001000090010A8010010350B001020
S315000080503A0B0010300B0010340B0010B403001064
S31500008060F0B585B003AECC23F371B3717371327181
S31500008070F0707F23B370032575704F4B1B784F4C00
S31500008080B0281F4600D027783770012960D10146F5
S31500008090B0390B295CD8C0467944097949008F4428
S315000080A00E571E4657574B505757050503A9FF2233
S315000080B00A71CA7001224A704030887048E041480F
S315000080C0C1680088C0000818C079207003A8FF2185
S315000080D001713D49418001214170037038E003A8D8
S315000080E0F221817006214170002A53D0E020104011
S315000080F020282DD10020C04301AC207101901046EC
S315000081002146FEF73FFD03A80199C1706178017110
S31500008110A1784171E17881710299C171042000282A
S3150000812016D401A9095CFF2941D1401EF7E703A82F
S31500008130FF210171224908E003A8FF2101712349AB
S3150000814003E003A8FF21017121494180012141700B
S3150000815021480121C180057100220260082A08D049
S3150000816003AB9B5CC4680588ED006419A354521CDC
S31500008170F4E7734A1180764A1170724A1170194AEF
S3150000818011704088184908806F48C0896F49088077
S3150000819005B0F0BD0F48017903AAD171418851712C
S315000081A00088D070090A9171000A1071D0E7801C0E
S315000081B003A94870CCE7C046790100106E01001093
S315000081C0F3FF0000A8010010F0FF0000F6FF00001A
S315000081D0F7FF0000D4DE0000B8010010E00B00102D
S315000081E02E0B0010DB0B0010DC0B0010000900103A
S315000081F02C0B001070470000F8B500016C49085CB4
S31500008200012817D00C4800788349097800910B4A59
S315000082100B4B0C4C00280DD015780126AE401F885C
S31500008220E15DB143009EAE400E43E6559B1C521CD9
S31500008230401EEFE7F8BDC046D2DE0000A2010010E6
S31500008240A40100107A010010F8B504467148012512
S315000082500570584E30780101554A505C5718112860
S3150000826006D0002806D100200121FFF767FD01E0B6
S3150000827000F014F8387AF98832782F4B9D54002292
S315000082804D4B824205D28DB2FF265E55521C491CCB
S31500008290F7E7204600F092F8F8BDC04680B50648DC
S315000082A04078002802D0FFF7CDFD80BD5B48012154
S315000082B00170FFF757FC80BD3C090010F8B5044675
S315000082C05448012505703B4E37782046FFF788F85D
S315000082D0307000F043F8307817490D543901344AAC
S315000082E05118C968002909D0144A127809789142B0
S315000082F004D1494900220A70FFF77EFF204600F0AC
S315000083005DF83D2C17D10E480188491E01800804EE
S3150000831007D00C4805700C48C0890C49088002201B
S3150000832007E00B4802210170064A00201070094A36
S31500008330117009490870F8BD2D090010100A0010C7
S31500008340DE0B00102E0B0010000900102C0B001085
S31500008350E00B0010D70100102F0B0010B0B5010183
S315000083601348425C112A22D0012A13D111490978F7
S3150000837009014118C968097809014118087AC988AC
S3150000838000220D4B824212D28CB2FF251D55521C83
S31500008390491CF7E74118087AC9880022064B824231
S315000083A005D28CB2FF251D55521C491CF7E7B0BDFE
S315000083B038DE0000DE0300106F010010B0B514496E
S315000083C00A88930707D0134B1B78134C247825464D
S315000083D01D43AD0004E00F4B1B780F4C247800259D
S315000083E0154325435A002A430C4B1B78DB001343E5
S315000083F00B4A127892011A43FF2804D0D2B2000227
S315000084008018102202430348002303700A80B0BD7F
S315000084104A090010490900102C0900103B090010F8
S315000084204809001070B503460025E843002B25D106
S31500008430541801231E04B44220D86848684C465D8F
S31500008440761E66556D1C382DF9D13620FF2525542C
S31500008450A57772B6634D644828601806634B1E689C
S3150000846086431E600846114600F00AF860482860F8
S3150000847062B638212046FBF70EFF002070BDC046CD
S31500008480F0B581B0594CE268102300939A43E2603C
S315000084904118491E490A491C8EB2400A87B2B742A2
S315000084A00CD2094D7F20394601402268824350187C
S315000084B02060286880477F1CBE42F3D1E06800999F
S315000084C00843E06001B0F0BD34010010F0B587B09C
S315000084D00D465818002601210904884201D9F043A7
S315000084E04AE01F461446032028400FD0291A0A687E
S315000084F049680591049204A909180822161ABE4271
S3150000850000D33E4620463246FBF7ACFEB81B072298
S315000085100240082824D3811A22D000920394A2197B
S315000085200295019677190023FC58FD186D6805958C
S315000085300494D454D618280EF071280CB071280A69
S3150000854070713571200EF070200CB070200A7070BA
S3150000855008338B42E8D3019EF618039C029D009ACD
S31500008560002A08D070597119496805910490A0191C
S3150000857004A9FBF777FE002007B0F0BDF0B581B087
S3150000858004460026F043002C26D15C1801252F0452
S31500008590BC4221D81148124C875D7F1EA755761C18
S315000085A0382EF9D13620FF262654A67772B60D4E00
S315000085B00D48306028060D4D2F6887432F6008460A
S315000085C011461A4600F016F8B248306062B63821F5
S315000085D02046FBF760FE002001B0F0BD99DC0000EC
S315000085E000000010F800FF0055AA55AA1C00FF0065
S315000085F078563412F0B58BB0174605463C4B1868D2
S31500008600102206929043186003232B400024E24375
S31500008610002B0595049703921AD008920992ED1A39
S3150000862028686A680992089008AEF0180822D41AD9
S31500008630BC4200D33C4622460F46FBF713FE2D48AC
S3150000864002682846314690473946049F059D039A9D
S315000086503E1B07203040082E234630D3361A2ED034
S3150000866000905819079002910193CD180027E85DF4
S31500008670E9194A78120210188A78CB781B029A18E0
S31500008680120410188A79CB790C7949790890080276
S315000086900019190289180904081809900798C019C1
S315000086A014490A6808A990470837B742DFD3019BE7
S315000086B0DB190F4E059D02AF86CF009800E00C4EE9
S315000086C000280ED0089209920246381A091808ACFA
S315000086D020461F46FBF7C6FD781906490A6821465B
S315000086E0904730680699084330600BB0F0BDC0462D
S315000086F02800FF004C010010B0B50C46664D062858
S3150000870000D20C350621FBF783FD88002958072285
S31500008710914321432950B0BDF0B581B0044601789C
S31500008720594A5A4810605A4B1868042505431D607B
S315000087301D68022005431D605D6805435D60554B5D
S315000087401360554A062900D20C326178734E534F96
S315000087505D4D022900920DD3891E012914D8217876
S315000087607A687B682B4001258D40154335401D43B3
S315000087707D6009E021783A683B682B4001258D40F1
S31500008780154335401D433D60227907211140A278EB
S315000087903E46012A03D0022A02D1403100E02031B0
S315000087A0E278D207D70E0F4361780143032902D13D
S315000087B05A48401C0743257806212846FBF728FD22
S315000087C0880000990F506079052857D878440079B9
S315000087D0400087445702132034480120A8404F49DF
S315000087E00C468443306920403169374A11400143C1
S315000087F0316170692040716911401DE00120A84077
S31500008800F44D2946814332690A403169F24C2140D0
S31500008810114331611FE00120A84031690143ED4A4F
S31500008820154611403269EC4C22400A4332618543B9
S315000088307069284071692140014371611EE0012081
S31500008840A84031690143E34A154611403269E24CBA
S3150000885022400A4332617169014329407069204010
S31500008860084370610AE00120A840316A0143D948F3
S315000088700140306AD84A1040084330620020C043A5
S31500008880B060F06101B0F0BDFC1000405A5A5A5A6F
S315000088902410004078563412002000400880004022
S315000088A010B50123834007480268CA4C002901D04D
S315000088B01A4300E09C4322400168C74B0B409918BD
S315000088C0016010BD0480004000FEFFFF421E012A29
S315000088D001D901207047012801D0054800E003486E
S315000088E00068BC4A02400A60002070472C600040C5
S315000088F02CB00040421E012A01D9012070470128F0
S3150000890001D0054800E003480068B24A02400A6008
S31500008910002070471460004014B00040FF010000C2
S31500008920421E012A01D901207047012801D02B4897
S3150000893000E02948026801239A435118016000208B
S315000089407047C046421E012A01D9012070470128FE
S3150000895003D105480068C0B201E00248006808700B
S315000089600020704730B000403060004002460120D1
S31500008970022A0DD8002A0BD0002909D0012A03D1DA
S3150000898005480068C0B201E002480068087000208F
S315000089907047C04604B00040046000400146012014
S315000089A0022918D8002916D0002A14D0002B12D07C
S315000089B0012901D0094800E00748016802229143D5
S315000089C00160016804220A430260016801229206DE
S315000089D00A430260002070470860004008B000406B
S315000089E070B504460120022C48D8002C46D0002A37
S315000089F044D0002B42D0642000BF401EFCD1012C85
S31500008A0001D0ED4800E0EB48446EA40637D48568F3
S31500008A100224A543856001256D0686682E4386607F
S31500008A200D463C3D6E1EB5417D394E1EB141294075
S31500008A30890185684026B543691881600F210904BC
S31500008A4085688D431907090B691881608168214380
S31500008A508160042B00D30423002B0ED00024214672
S31500008A60856A6D07FCD4145D0568FF26B5432C198D
S31500008A700460491CCCB2A342F2D8002070BDC16D7F
S31500008A8020220A43C2650121CA0583681343836015
S31500008A90090682680A438260042070BD10B5032867
S31500008AA026D8144A784400794000874401080B0F01
S31500008AB01148002303601068042398430EE00E4813
S31500008AC0012301E00C480223036004E00A4803681E
S31500008AD003241C43046013680420184310601068C4
S31500008AE00223002901D1984300E01843106030BFEB
S31500008AF010BDC04610ED00E000C00040F0B581B0EA
S31500008B00022801D9012060E00D460446002820D045
S31500008B10A748012C00D0143000680006000F411C45
S31500008B202B48FBF775FB060930462946FBF770FB19
S31500008B30074628467843301A00012946FBF768FBAA
S31500008B400007000C234939404018012C10D0E54A93
S31500008B500FE000F0B3FE2946FBF75AFB20490A68EE
S31500008B60204B1340401E204A0240981808602BE014
S31500008B70DB4A5061516A1848084018498F4B9D429C
S31500008B8010D308231843506200209063012C04D1AF
S31500008B900F2212030B6893430B600A6840239A4323
S31500008BA00A6012E0C8231843506203209063012C28
S31500008BB006D10F2212030B689343000318180860AE
S31500008BC00868402202430A60002001B0F0BDC0469A
S31500008BD0006CDC02FF01000000FEFFFF2CF00040ED
S31500008BE00440004000C0FFFFFF3F0000F0B581B029
S31500008BF017460C460646DF4D022808D9DE4828608F
S31500008C00022E23D0012E4AD0002E0BD05FE010D0CA
S31500008C10012E34D0002EF1D102200121FFF76CFD88
S31500008C20D548286062481038016802220A4302606B
S31500008C304DE00320009705273946FFF75DFD042028
S31500008C403946009FFFF758FDCB48286058484169D0
S31500008C500122114341614169914341614169022207
S31500008C600A434261416904220A43426161784269CA
S31500008C70F0239A430907090E5118416127E0207B2A
S31500008C8002280AD10720009702273946FFF734FD4C
S31500008C9008203946009FFFF72FFDB7482860444853
S31500008CA00168012211430160016891430160016876
S31500008CB002220A430260016804220A4302606178C4
S31500008CC00268F0239A430907090E51180160CA4841
S31500008CD0286021693046FFF711FF002E65D0012E6E
S31500008CE001D0804800E07E48227BC168022A07D175
S31500008CF001221143C160C16804229143C16009E0A9
S31500008D0001229143C160217B012903D1510362688D
S31500008D100A436260C16908220A43C2612169274A7F
S31500008D20914204D30121890362688A436260217BF0
S31500008D300122530685681D438560920683681343A6
S31500008D408360012901D01F4A00E01D4A022900D193
S31500008D5007228260C26D1C490A43C265627A002AF4
S31500008D600DD062680A40016E91430166B000174952
S31500008D704018001F0760012E05D00A2104E0026E8C
S31500008D800A43026611E005218807C00EFF228240D1
S31500008D900F4BC9180323DB430B40217A1C6894430D
S31500008DA08907090E81402143196001B0F0BDC04614
S31500008DB0201000400060004000B00040014B000061
S31500008DC0ED830860ED810860FFFF7F00140A001044
S31500008DD000E400E0421E012A01D901207047012863
S31500008DE002D00120800200E02020074A10600029FE
S31500008DF002D00649086005E05D490860BFF34F8F61
S31500008E00BFF36F8F0020704780E200E000E100E0D2
S31500008E10002822D0002920D0012801D0314800E0C6
S31500008E202F48CA0704D00122520683681343836081
S31500008E308A0704D5012292068368134383604A0792
S31500008E4004D50122D205836813438360090704D53C
S31500008E500121090682680A4382607047F0B582B034
S31500008E6001920123022836D80A46002933D00199F7
S31500008E70002930D00023194C194D1A4E00920028B3
S31500008E8019D001280CD0022820D1B16A4907FCD498
S31500008E90D15C3268FF27BA435118009A316015E059
S31500008EA0A96A4907FCD4D15C2A68FF27BA4351183E
S31500008EB0009A29600AE0A768FF07FCD10099CA5CFE
S31500008EC02168FF27B9438918009A21605B1C019924
S31500008ED08B42D4D10023184602B0F0BD00400040BA
S31500008EE00060004000B00040064A536803435360E8
S31500008EF0002902D01168814301E011680143116025
S31500008F007047C04628C000400149096808407047BC
S31500008F1030C0004010B5074A1368074C1C40000AD1
S31500008F200001201810601068012398434018106053
S31500008F3010BDC046040000400F0000F00C48082198
S31500008F400160BFF34F8FBFF36F8F0A480A49016074
S31500008F500A490A6801231A430A6000BF00BF0A686B
S31500008F609A430A6000BF00BF234901607047C046AC
S31500008F7080E100E0FC1000405A5A5A5A0C1000409A
S31500008F80B0B50E4B1C680225AC43C007800F2018F5
S31500008F9018601868F024A0430907090E40181860E5
S31500008FA003200002196881439007800D0818186095
S31500008FB01868012101431960B0BDC04638C00040A1
S31500008FC005490C4A8A610A6801239A431018086009
S31500008FD0094888617047C04600A00040044805491A
S31500008FE08160016801220A4302600349816070477B
S31500008FF010A000405555AAAA78563412F0B581B093
S3150000900000900078002819D0002344245C43009A7D
S315000090101419A56A002D0ED02479002C0BD0AD1C96
S31500009020002637462E80002901D100226A80AD1D18
S315000090307F1CA742F6D35B1C8342E6D301B0F0BD8A
S31500009040024800684078411E88417047A40C001011
S31500009050F0B583B0019000780090002830D000234E
S3150000906044205843019A1518AA69281D0290002A1F
S315000090700FD002980678002E0BD0971D00242246AA
S315000090803C80002901D1002078800A37521CB24268
S31500009090F6D3EA69002A0FD002980478002C0BD088
S315000090A0951D002210462A80002901D100266E80D7
S315000090B00A35401CA042F6D35B1C00988342CFD3EE
S315000090C003B0F0BD80B50A46012111404B4205218F
S315000090D01940920700D50A31FFF79AFE80BD10B5F8
S315000090E082B0012401A92046FFF704FC6946204608
S315000090F0FFF7ECFB00980199441A00D20C1A0E20D7
S3150000910048436421FBF784F8844208D901240021EE
S315000091102046FFF705FC20462146FFF701FC02B07A
S3150000912010BD0000B0B586B0044601AD0020288011
S31500009130FF2004302881481E814129730592064884
S315000091400290204629461A46FFF750FD0121204687
S31500009150FFF740FE06B0B0BD2D5F000080B50029C8
S3150000916003D01146FFF702FC80BD1146FFF7EAFB6C
S3150000917080BD80B5FFF712FC80BD80B5FFF76EFE9F
S3150000918080BD80B5FFF72CFC4142484180BD000000
S31500009190F0B587B014460D460746101806A90422F6
S315000091A000F064FA0020002C06461CD001900295BF
S315000091B0049700273E4603940498381805AD012409
S315000091C02946224600F052FA1748B043294622465D
S315000091D0039CFDF7B9FB0646781C87B2A742EBD382
S315000091E0029D049F01980699B14205D13846294649
S315000091F0224600F03BFA012007B0F0BD70B582B000
S3150000920014460D4606460848FDF79EFB019030467B
S315000092102946224600F080FAA01901A9042200F08E
S315000092207BFA02B070BDC046FFFF000080B5FFF7B5
S31500009230F9F84142484180BD80B5FFF747F9414200
S31500009240484180BD80B5FFF799F94142484180BD4C
S31500009250F0B581B01C4613460D468021615C803412
S31500009260002D00920AD044224A439A18D26B002A53
S3150000927004D063789B00D25A009B101844263246CD
S315000092804A439A18002D01D1343200E03032126878
S31500009290002A22D067780A237B43D75C002F1BD095
S315000092A0D118CA78002A08D1CA1C032313700A1DD4
S315000092B00023D0529B1C062BFBD10322D2438B18D2
S315000092C05F891F81921CFAD108818B784A78091D23
S315000092D0032002F061FA2178009B32464A439A182D
S315000092E0976B002F08D06B426B41617802B238460B
S315000092F004F094FB009B217832464A439A18576A39
S31500009300002F08D06B426B41617802B2384604F0F8
S3150000931061FB009B21784E439919002D01D12C3118
S3150000932000E028310E68002E06D06B426B41617852
S3150000933002B2304604F09AFB00B201B0F0BD000064
S3150000934080B515497F220A708870124800784870E7
S31500009350FDF75AFD022803D0FDF756FD042803D178
S3150000936003200D49FDF78CFC80BDC04610B50446B0
S3150000937008480078403008490870FDF745FD022886
S3150000938003D0FDF741FD042803D103492046FDF72C
S3150000939077FC10BD5C0300107003001001490870D3
S315000093A07047C04651030010F0B581B000920D46DB
S315000093B00646802100206852317C002933D02F4692
S315000093C080370146C9B2442461437218516C009B30
S315000093D0002B0AD0002914D0C0B20C214143906959
S315000093E0415C506D436901220AE0C0B2C140C90721
S315000093F007D00C2141439069415C506D43690022BE
S3150000940098477878401C787039784C432A19127D31
S31500009410C3B2934203D300207870491C3970327C62
S31500009420CBB29342CED301B0F0BDF0B581B000927D
S315000094300D460646802100206852317C002933D033
S315000094402F4680370146C9B2442461437218916C95
S31500009450009B002B0AD0002914D0C0B20C21414336
S315000094609069415C506D436901220AE0C0B2C14077
S31500009470C90707D00C2141439069415C506D43698F
S31500009480002298477878401C787039784C432A191E
S31500009490127DC3B2934203D300207870491C397001
S315000094A0327CCBB29342CED301B0F0BDF0B585B0DD
S315000094B007467820085A02910A4678320028039710
S315000094C0049235D000231381387C0090002818467A
S315000094D0194630D000231D46194618460193EEB2B0
S315000094E00122B240DEB2442474433E19376C174061
S315000094F0029A1219127D6E1CF4B2944204D35C1CBB
S31500009500049A019414720026002F00D00D462946B5
S31500009510002F00D003461846019CE2B2009B9A42F7
S3150000952023463546039FDAD3049A5672009B02E01F
S315000095303B7C0020014651721072C2B29A4200D39F
S315000095408CE0474DC2B244246243BB181E6CCBB2BA
S31500009550DE40F6070DD0491C049C6172029B9A18E6
S31500009560127DCBB2934274D300216172401C2072EB
S315000095706FE00C2001904343039F1437B8184168ED
S31500009580C918066CF268304690472146049C207A3A
S31500009590009141437A18039F526B002A0AD0607AE1
S315000095A0019A50437A189169095C506D436901220A
S315000095B09847207A009C60433818C169002908D072
S315000095C00499497A0A224A43006A81183269304668
S315000095D09047002730463946FDF7ACF8B3690122BB
